:020000040800F2
:10000000481A002039010008E5360008D130000800
:10001000E1360008A50A00083B4400080000000083
:100020000000000000000000000000004D3A000841
:100030007510000800000000E7360008293B0008A2
:100040005301000853010008530100085301000840
:100050005301000853010008530100085301000830
:100060005301000853010008530100085301000820
:100070005301000853010008530100085301000810
:1000800053010008530100080D080008530100083F
:1000900053010008530100085301000853010008F0
:1000A000000000005301000853010008530100083C
:1000B000013C0008530100085301000853010008E7
:1000C00053010008530100085301000853010008C0
:1000D0005301000853010008F541000853010008CE
:1000E00053010008530100085301000853010008A0
:1000F00053010008000000005301000853010008EC
:100100000000000000000000530100085301000837
:1001100053010008530100085301000800000000CB
:1001200053010008DFF80CD000F0C6FA0048004781
:1001300081460008481A00200648804706480047C4
:10014000FEE7FEE7FEE7FEE7FEE7FEE7FEE7FEE787
:10015000FEE7FEE79D3B000825010008D2B201E062
:1001600000F8012B491EFBD270470022F6E710B5BC
:1001700013460A4604461946FFF7F0FF204610BD15
:10018000F0B480EA0102D40F4200B2EB410F02D278
:100190000246084611464A0042D0C30DDDB2C1F303
:1001A000C752AD1A202D35DAC1F3160141F4000211
:1001B00004B15242C5F1200602FA06F12A41104468
:1001C000B3EBD05F23D0C4B1012DA0EBC35009DC49
:1001D000F0BC4FF0004202EAC352DBB200F500006F
:1001E00000F0DEB9400000F1807000EBC350A0F1D8
:1001F000807040EAD170490009E0490841EAC071C5
:10020000A0EBC35000F50000400800EBC350F0BC69
:1002100000F0BDB96142012202EB4101001BF6E78B
:10022000F0BC704781F00041AAE780F00040A7E7EA
:1002300080EA010210B502F00043400022D04A00DB
:100240001FD0010E01EB1261C0F35600C2F356023B
:1002500040F4000042F40002A0FB022000047F39B9
:10026000140400D0401C50EA124001D44000491E42
:10027000C2B20C0604EBD010401C4008802A02D009
:1002800003E0002010BD20F00100002900DA00206A
:10029000184310BD30B480EA010202F0004530F08E
:1002A000004221F0004013D090B1C30DD40DC2F331
:1002B0001601C0F31600E41A41F4000140F40002F4
:1002C0007D34914201D3641C00E04900002C02DA25
:1002D00030BC002070474FF400000023914201D34E
:1002E000891A034340084FEA4101F7D151B19142C5
:1002F00002D14FF0004105E002D24FF0010101E0D0
:100300006FF0010103EBC450284430BC00F03FB94A
:100310002DE9FE4F804681EA0300C00F0C46009095
:1003200021F0004123F00045B8EB0200A94105D2BD
:100330004046214690461C460B46024623F00040AC
:10034000104347D0270DC7F30A00C3F30A510290A8
:10035000401A019040286BDAC3F3130040F4801B6D
:100360000098924620B10023D2EB030A63EB0B0BFB
:1003700001985946C0F14002504600F0D7F80646B1
:100380000D4650465946019A00F0EFF810EB080070
:100390006141002487EA115284EAE7731A4340D08E
:1003A000009A62B3019A012A4FEA075215DC001B3A
:1003B00061EB02014FF0004202EA0752CDE9004230
:1003C000001C41F5801132462B4600F026F903B09F
:1003D000BDE8F08F40462146F9E7001B61EB0201C2
:1003E000001C41F5801300185B412018A2F500178E
:1003F00047EB030140EAD570B6196D4111E06D0875
:100400004FEA360645EAC0754FEA0752001B61EB1A
:100410000201001C41F5801149084FEA3000001923
:10042000514132462B4603B0BDE8F04F00F0E6B82C
:100430000098012240000023D0EB020263EBE0733E
:10044000009821464FEAE074B8EB000061EB04012C
:10045000E9E783F000435BE781F0004158E796232A
:100460000022114600F09CB820F00040C10DC0F3FE
:10047000160040F400007F2901DA00207047962919
:1004800003DCC1F19601C840704796398840704737
:1004900000F0004230F000400AD0C10D01F560715B
:1004A000C0F3160042EA0151C208400711437047E9
:1004B000002001467047000030B5041E71F10004B1
:1004C00004DB4FF00044404264EB0101141E73F161
:1004D000000405DB1C464FF00043524263EB04036B
:1004E0008B4208BF824230BD30B5041E71F100045A
:1004F00004DB4FF00044404264EB0101141E73F131
:10050000000405DB1C464FF00043524263EB04033A
:10051000994208BF904230BD002801DBC0F1004085
:10052000002901DBC1F1004181427047202A04DB30
:10053000203A00FA02F1002070479140C2F12003F6
:1005400020FA03F3194390407047202A04DB203A35
:1005500021FA02F00021704721FA02F3D040C2F1E3
:1005600020029140084319467047202A06DBCB172A
:10057000203A41FA02F043EAE07306E041FA02F35E
:10058000D040C2F12002914008431946704700292B
:10059000A8BF7047401C490008BF20F00100704709
:1005A00010B4B0FA80FC00FA0CF050EA010404BF69
:1005B00010BC704749B1CCF1200421FA04F411FABF
:1005C0000CF118BF012121430843A3EB0C01CB1D03
:1005D0004FEA00614FEA102042BF002010BC704774
:1005E00000EBC35010440029A4BF10BC7047401C4E
:1005F000490008BF20F0010010BC704710B5141E60
:1006000073F1000408DA401C41F1000192185B41CB
:100610001A4301D120F0010010BD2DE9F04D9246A2
:100620009B4611B1B1FA81F202E0B0FA80F22032B9
:100630009046FFF77BFF04460F4640EA0A0041EA76
:100640000B0153465A46084313D0114653EA0100A2
:1006500019D0C8F140025046FFF777FF05460E4615
:10066000504659464246FFF761FF084305D0012036
:1006700004E020463946BDE8F08D0020054346EAF7
:10068000E0762C4337430A986305E40AA0EB0800A0
:100690000022FD0A44EA47540A3002D500200146F0
:1006A000E9E7010510196941DDE9084500196941CB
:1006B000BDE8F04DA2E70000064C074D06E0E068FB
:1006C00040F0010394E8070098471034AC42F6D399
:1006D000FFF72CFD9C480008BC48000870B58C183A
:1006E00010F8015B15F0070301D110F8013B2A1146
:1006F00006D110F8012B03E010F8016B01F8016B33
:100700005B1EF9D12B0705D40023521E0DD401F82E
:10071000013BFAE710F8013BCB1A921C03E013F8F7
:10072000015B01F8015B521EF9D5A142D8D300202C
:1007300070BD00002DE9F04705460C462C4E2D4FAC
:10074000DFF8B48000F06EFE2C490968884202D2BE
:1007500000202A49086000F065FE28490968401A0F
:10076000642818D900F05EFE24490860284600F08D
:1007700059FF4FEA400A5046FFF771FE8146204874
:1007800001684846FFF7FCFC1D4908601D480088C9
:10079000401C1C4908801B4800880A2825D119489C
:1007A0000088FFF75CFE8146494615480068FFF760
:1007B00071FD13490860144911480068FFF76AFD8C
:1007C00081463946FFF734FD0D49086031460C4833
:1007D0000068FFF727FD81464146FFF75BFD20607B
:1007E00000200849088006490860BDE8F08700003D
:1007F0000000204033335340022B873D0800002087
:10080000040000200000002000C07F4410B5024812
:1008100000F00CFF10BD00007401002038B5044644
:1008200000250020009020680068C0F3801090BB75
:100830002068806840F001002168886017480068DF
:100840001749B0FBF1F000EB4000009002E0009887
:10085000401E009000980028F9D101F00BFB0546DE
:1008600013E001F007FB401B02280ED9E06C40F0BA
:100870001000E064206D40F00100206500BF002002
:1008800084F8480000BF012038BD20680068C0F32C
:1008900080100028E5D00020F6E700004C01002081
:1008A00040420F0010B514480168144800F06CF87D
:1008B00011480168124800F05BF80F484FF40061DE
:1008C0000268104800F0CAF80B484FF480610268D3
:1008D0000C4800F069F80C4802680C4801680C48A4
:1008E000006802F00FFC08480268084801680848E0
:1008F000006803F04FFD10BD3000002020000020F4
:1009000022000020000802402C00002028000020C7
:10091000240000202DE9F84304460D4616461F46E4
:10092000DDE908890E48008800900E4803882246B9
:100930004FF400410C4800F05DF8208801280CD1EC
:10094000D9F800000090D8F80030314628463A68BF
:1009500002F0E6FF012005490880BDE8F8830000A9
:10096000220000202000002000000240380000206B
:100970000288012A06D10A6812B10A68521E0A606A
:1009800002220280704700000288012A08D1054B2C
:100990000A689A4202D20A68521C0A600222028045
:1009A000704700007F96980070B505460E461446C5
:1009B0003146284601F048FA70B901200B490880F9
:1009C0000B480088C82807DD206828B100200849A6
:1009D00008802068401E20603146284601F034FA25
:1009E000012802D100200149088070BD0E000020BE
:1009F000120000202DE9F0410746884614461D46A6
:100A0000069E4146384601F01FFA90B9208880B909
:100A10007DB976B901200F4908800F480088B0F5EC
:100A2000FA6F06DD0120208000200B49088009496B
:100A300008804146384601F007FA012803D0012D0D
:100A400001D0012E04D1002003490880014908800B
:100A5000BDE8F081100000201600002070B50546AA
:100A60000E4614463146284601F0EEF960B90120E1
:100A70000A4908800A480088C82805DD002008497E
:100A800008802068401C20603146284601F0DCF9CF
:100A9000012802D100200149088070BD0C0000200F
:100AA0001200002000BFFEE72DE9F05F04460D466E
:100AB00016461F46DDE90CABDDE90A890020383413
:100AC00004F8380C04F8375C04F8366C44F8347CCD
:100AD00024F8308C44F82C9C24F828AC44F804BC4E
:100AE0000E9820800F986060109820811198E06027
:100AF00012982082139860611498208328206077D0
:100B00000620A0760C20E07614202077383C322096
:100B100000F03CF800223321204600F06BF805205D
:100B200000F034F800223321204600F063F805205D
:100B300000F02CF800223221204600F05BF805205E
:100B400000F024F894F852100022204600F052F8E9
:100B500094F853100022204600F04CF894F85410FA
:100B60000022204600F046F894F855100022204656
:100B700000F040F800220121204600F03BF800225E
:100B80000221204600F036F8BDE8F09F10B504467B
:100B9000204600F0AFFF10BDF8B504460D461646DE
:100BA000002713A0006800906078A84202DC6078FB
:100BB000401EC5B2A078B04202DCA078401EC6B28A
:100BC0001DF806002844C7B22078102806D147F047
:100BD00080010022204600F08BF807E0207828B939
:100BE00047F080010022204600F004F8F8BD000024
:100BF000004014542DE9F04104460F4690463D1143
:100C00003E46B8F1000F05D121890022606801F04D
:100C10002BF907E0B8F1010F04D1218901226068A6
:100C200001F022F905F001020C34A18DA06A01F057
:100C30001BF9A18EC5F34002206B01F015F9A18FBD
:100C4000C5F38002A06B01F00FF9B4F84410C5F3AE
:100C5000C002206C01F008F9A1880022206801F090
:100C600003F90120FFF792FFA1880122206801F01B
:100C7000FBF80120FFF78AFFA1880022206801F01D
:100C8000F3F80120FFF782FF06F00102A18DA06AB0
:100C900001F0EAF8A18EC6F34002206B01F0E4F8FF
:100CA000A18FC6F38002A06B01F0DEF8B4F8441007
:100CB000C6F3C002206C01F0D7F8A188002220689A
:100CC00001F0D2F80120FFF761FFA188012220681E
:100CD00001F0CAF80120FFF759FFA18854F80C0968
:100CE000002201F0C1F80120FFF750FFBDE8F081BC
:100CF00070B504460D4616462EB92189002260685B
:100D000001F0B2F806E0012E04D1218901226068C9
:100D100001F0AAF805F00102218B606901F0A4F846
:100D2000218CC5F34002E06901F09EF8218DC5F3E6
:100D30008002606A01F098F8218EC5F3C002E06A73
:100D400001F092F8218FC5F30012606B01F08CF86E
:100D5000B4F84010C5F34012E06B01F085F8B4F828
:100D60004810C5F38012606C01F07EF8EA09B4F80F
:100D70005010E06C01F078F8218A0022E06801F060
:100D800073F80120FFF702FF218A0122E06801F0D9
:100D90006BF80120FFF7FAFE218A0022E06801F0DB
:100DA00063F80120FFF7F2FE70BD70B504460D46F2
:100DB0002078102805D1012229462046FFF798FF08
:100DC00006E0207820B9012229462046FFF712FFCD
:100DD00070BD70B505460C4604E014F8011B2846AA
:100DE000FFF7E3FF20780028F7D170BD1CB50D4850
:100DF0000D490E4B0E4ACDE900100E490E4800F089
:100E00003BF80B490C48008800F09EF80A4800881F
:100E100000F0ECF80848008800F010F800F004F941
:100E20001CBD000024010020200100201C01002026
:100E30002E0100202A0100202801002010B50446C0
:100E4000ACB94FF480610A4800F0FEFF28B90948A8
:100E5000008810B90120074908804FF480610448D8
:100E600000F0F2FF012802D100200249088010BDE5
:100E700000080240220000202DE9FC470446894674
:100E800016461D46DDE90A784FF48051254800F0EA
:100E9000DBFF10B90120244908802348008801287D
:100EA0003ED101031F4800F0CFFF012838D10020B8
:100EB0001D49088003F0A6F9208810B90120208080
:100EC00001E000202080208801281AD1A9F8000024
:100ED00016480068286016480068386015480068A1
:100EE000C8F80000D8F800003968CDE900101248B1
:100EF0002B6812490268124800F09CF901203080EA
:100F00000EE00A49286808600949386808600949FC
:100F1000D8F80000086002203080044809490860C1
:100F2000BDE8FC87000802401C00002024000020CF
:100F3000280000202C0000203400002000FD0108C3
:100F400010F801083000002070B505460C464FF43B
:100F500000411F4800F078FF10B901201D490880AA
:100F60001C480088012832D1C103194800F06CFFE9
:100F700001282CD10020174908801748008818BB89
:100F800003F040F92088042802D10120208002E0EB
:100F90002088401C208025B92088012801D102200A
:100FA00020802088022802D10C480D490860208842
:100FB000032802D10B480A4908602088042806D17A
:100FC00009480749086002E000200349088070BD15
:100FD000000002401E0000203800002024000020F5
:100FE00030000020280000202C00002010B504460E
:100FF000ACB94FF400610A4800F026FF28B909484F
:10100000008810B90120074908804FF400610448A6
:1010100000F01AFF012802D100200249088010BD0B
:10102000000802402000002010B50E48008801286A
:101030000AD102F057FC02F05FFC00200A49088048
:101040000A490860074908800948008840B902F049
:1010500049FC02F051FC0020034908800349086064
:1010600010BD00002A0100202C01002018010020E2
:10107000280100207047000010B50C4A0C490D48AB
:1010800002F018FD094802880948018809480088CB
:1010900002F062F805480288054801880548008882
:1010A00003F060F9044803F04DF910BD360100204B
:1010B000340100203201002044020020704700006B
:1010C0000021094A51610949096841F40071074A40
:1010D00011601146096841F008011160002120F0FB
:1010E000FF021160704700002C160020043C0240F3
:1010F000014608687047000000202749096801F48C
:101100008071B1F5807F07D12449496941F002011E
:10111000224A516140F480701F49096801F400714E
:10112000B1F5007F07D11D49496941F001011B4A12
:10113000516140F400701849096801F40061B1F58B
:10114000006F07D11549496941F00401134A516103
:1011500040F400601049096801F40051B1F5005FE6
:1011600007D10E49496941F010010C4A516140F420
:1011700000500949096801F48051B1F5805F07D139
:101180000649496941F02001044A516140F4805008
:101190000149086070470000183C02402C160020EE
:1011A00070B5044600F066FE054609E0601C38B1E3
:1011B00024B100F05FFE401BA04201D9032070BDA6
:1011C0001B48006800F001000028EFD118480068B3
:1011D00000F00200022801D1154908601448006897
:1011E00000F48070B0F5807F1BD01148006800F4D7
:1011F0000060B0F5006F14D00D48006800F4005096
:10120000B0F5005F0DD00A48006800F48050B0F5DA
:10121000805F06D00648006800F40070B0F5007FDB
:1012200003D1FFF769FF0120C9E70020C7E70000ED
:10123000183C02402DE9FF4704460D4617461E465E
:10124000DDE90C8900F0E6FC002001900294281BE7
:10125000000A039000200090694601A800F05EFC9F
:101260003A462146022000F0ABFC3246211D022006
:1012700000F0A6FC424604F10801022000F0A0FCA8
:101280004A4604F10C01022000F09AFC00F08EFCAA
:10129000BDE8FF872DE9F34F87B005464FF0010801
:1012A000012006E008EB88014FF6FF7202EA4108D0
:1012B000401C0128F6DD4046FFF7D1F8019008995F
:1012C000FEF7B6FF0290FFF7CFF81FFA80FB9BFBFB
:1012D000F8F008FB10B086B29BFBF8F087B24FF035
:1012E0000109CA460A2006900590002400210898AA
:1012F000FFF712F905D206B91FB12D202855601C41
:1013000084B208E0069800EB80004000069009F1E6
:1013100001001FFA80F90698B6FBF0F00028F1D121
:1013200008E0059800EB8000400005900AF10100FC
:101330001FFA80FA0598B7FBF0F00028F1D100BF42
:101340000CE00A2196FBF1F201FB1261303104AA94
:1013500011540A2196FBF1F18EB2401E0028F0DAFA
:10136000AAF101000CE00A2197FBF1F201FB1271D6
:10137000303103AA11540A2197FBF1F18FB2401EBC
:101380000028F0DA002005E003A9095C2955611C5A
:101390008CB2401C5045F7DB2E202855601C84B2CF
:1013A000484604E030212955611C8CB2401C0128BC
:1013B000F8DB002005E004A9095C2955611C8CB20A
:1013C000401C4845F7DB204602E020212954401C00
:1013D0000428FAD909B0BDE8F08F000010B5044622
:1013E0000D4908682146FFF755FF0CA00CA1884263
:1013F00010D10948006800782D280BD1002007E0A3
:1014000005490A68411C515C034A12681154401C8A
:101410000928F5DB10BD0000E40000204443000073
:1014200041430000054800680549884202D3002076
:101430000249086001480068704700001800002059
:10144000009C57FC7047000038B50246002300207E
:10145000009000BF92F84800012801D1022038BD59
:10146000012082F8480000BF4868072812D210689F
:10147000006C0C79641E04EB84051F24AC40A0436F
:101480000D796D1E05EB85050C68AC402043146892
:10149000206453E048680D2812D21068C06B0C79A4
:1014A000E41F04EB84051F24AC40A0430D79ED1F1D
:1014B00005EB85050C68AC4020431468E0633DE013
:1014C0004868132812D21068806B0C790D3C04EB2D
:1014D00084051F24AC40A0430D790D3D05EB850527
:1014E0000C68AC4020431468A06327E048681928C2
:1014F00012D21068406B0C79133C04EB84051F2456
:10150000AC40A0430D79133D05EB85050C68AC405C
:1015100020431468606311E01068006B0C79193C7B
:1015200004EB84051F24AC40A0430D79193D05EB65
:1015300085050C68AC4020431468206308680A28BD
:1015400010D2106840690C7804EB44050724AC40C5
:10155000A0430D7805EB45058C68AC40204314682A
:1015600060612CE00868142812D2106800690C78B9
:101570000A3C04EB44050724AC40A0430D780A3D27
:1015800005EB45058C68AC4020431468206116E0EB
:1015900008681A2812D81068C0680C78143C04EB4C
:1015A00044050724AC40A0430D78143D05EB4505E8
:1015B0008C68AC4020431468E06000E000BF08681D
:1015C000102802D0086811281DD11248006800F4C4
:1015D0000000C0B90F48006840F400000D4C2060C6
:1015E000086810280FD10C4800680C4CB0FBF4F0D0
:1015F00000EB80004000009002E00098401E009048
:1016000000980028F9D100BF002082F8480000BFF0
:10161000184624E7042701404C01002040420F00F7
:101620007047704701460868806D704710B50446E2
:101630002068406800F02000202838D12068006829
:1016400000F00200022832D1E06C00F0100018B95E
:10165000E06C40F40070E0642068806800F0405066
:10166000F0B994F82400D8B92068006B00F0F87045
:1016700020B12068806800F4806088B920684068E4
:1016800020F0200021684860E06C20F48070E06465
:10169000E06C00F4805018B9E06C40F00100E064A8
:1016A0002046FFF7BDFF6FF0120021680860206838
:1016B000406800F08000802842D12068006800F077
:1016C000040004283CD1E06C00F0100018B9E06C74
:1016D00040F40050E0642068806800F4401040BB93
:1016E0002068406C00F4401020B12068806800F44D
:1016F0008060F0B92068406800F48060C8B9206854
:10170000806800F04050A0B994F8240088B920689F
:10171000406820F0800021684860E06C20F4805030
:10172000E064E06C00F4807018B9E06C40F00100F7
:10173000E0642046FFF786FE6FF00C002168086029
:101740002068406800F0400040280FD12068006801
:1017500000F0010050B1E06C40F48030E0642046BD
:1017600000F00EF96FF00100216808602068406801
:1017700000F08060B0F1806F14D12068006800F044
:10178000200020280ED1206D40F0020020656FF06F
:101790002000216808602046FFF743FF6FF020001B
:1017A0002168086010BD0000F8B504460027002637
:1017B00000250CB90120F8BD206918B194F82C005F
:1017C00000B100BF606B102800D000BFE06CA0B972
:1017D0000020206584F8480000BF6448006840F09D
:1017E0000100624908600846006800F001000090AE
:1017F00000BF00BF204600F0C5F8E06C00F010000C
:10180000002878D1E06C20F4885040F00200E064B9
:101810005748006820F44030616808435449086024
:101820006169E068084394F83C104FF4007292FA42
:10183000A2F2B2FA82F291400843216A084394F876
:101840002410022292FAA2F2B2FA82F291400843E4
:101850000543606B102803D0D4E90D01084305430C
:1018600020680068C0F38010A0BBA0690543E1694F
:10187000A06808432169B1F5807F02D02169012960
:1018800002D14FF4807100E000210843064394F830
:101890002C00012817D194F8240060B9206B401E59
:1018A0004FF4604191FAA1F1B1FA81F1884040F41E
:1018B0000060064307E0E06C40F02000E064206D2B
:1018C00040F001002065206840682A490840304304
:1018D00021684860206880682749084028432168BB
:1018E00088602069B0F5807F02D02069012803D18B
:1018F0004FF4807001E035E00020B0F5807F10D11A
:101900002068006B20F0F871A06A401E4FF0F8725A
:1019100092FAA2F2B2FA82F2904001432068016387
:1019200005E02068006B20F0F870216808632068EB
:10193000806812490840A84208D100202065E06C68
:1019400020F0020040F00100E0640CE0E06C20F0C8
:10195000020040F01000E064206D40F001002065BE
:10196000012700E00127384625E700002038024023
:1019700004270140FF16FCFC89F1FFC0FEFF80BF79
:101980007047000010B586B00446142101A8FEF788
:10199000ECFB1A49206888422DD100BF1848006826
:1019A00040F40070164908600846006800F40070B2
:1019B000009000BF00BF00BF081F006840F0040097
:1019C000091F08600846006800F00400009000BF8E
:1019D00000BF10200190032002900020039001A975
:1019E000084800F049F900221146122000F0CEFA12
:1019F000122000F0BBFA06B010BD00000024014028
:101A0000203802400008024070B50446002500BF9F
:101A100094F84800012801D1022070BD012084F80B
:101A2000480000BF2046FEF7F9FE054695BBE06C76
:101A300040F20161884340F48070E06420684068AF
:101A400000F4806028B1E06C20F4005040F4805035
:101A5000E064E06C00F48050B0F5805F04D1206D4C
:101A600020F00600206501E00020206500BF002076
:101A700084F8480000BF6FF02200216808602068E9
:101A8000806800F0405028B92068806840F08040AD
:101A9000216888602846C0E770B50446002594F8A0
:101AA0002100022803D00420A063012520E0206843
:101AB000006820F00E00216808602068006820F0AF
:101AC00001002168086094F8400000F01C0101202A
:101AD0008840E16B4860012084F8210000BF0020AD
:101AE00084F8200000BF606B10B12046616B88470E
:101AF000284670BD70B5044600F0BCF90646254680
:101B0000681C10B104480068054400BF00F0B2F939
:101B1000801BA842FAD370BD480100202DE9F04196
:101B200004460E460127002500BF1E48007C012800
:101B300002D10220BDE8F08101201A49087400BFDB
:101B40004CF25030FFF72CFB07461FBB4FF0FF3025
:101B50003060656817E02846FFF7B2FA4CF2503063
:101B6000FFF71EFB07461048006820F008000E49EA
:101B700008600846006820F4007008600FB1356006
:101B800007E005F58075D4E9011001EB0020A842BB
:101B9000E1D800BF00BF00200249087400BF3846EA
:101BA000C8E700002C160020043C024003480068EF
:101BB00040F002000149086000207047043C0240E8
:101BC0002DE9F04107460C461546012600BF104896
:101BD000007C012802D10220BDE8F08101200C49DF
:101BE000087400BF4CF25030FFF7DAFA064646B9E7
:101BF00000200749486125604CF25030FFF7D0FAC9
:101C0000064600BF00200249087400BF3046E3E7E3
:101C10002C1600201348006800F0020002281FD193
:101C20001048006800F0010060B10F480D4908310C
:101C300008600E4808600B48006800F0010008B119
:101C4000012070470A4807490C31086009480860BC
:101C50000448006800F00200022801D10120F0E7EA
:101C60000020EEE7043C0240EFCDAB8905040302FF
:101C7000BFAE9D8C1615141378B5034600220024C0
:101C80000020CAE0012696400D6805EA0604002CF3
:101C900071D04D68022D02D04D68122D13D1D60897
:101CA00003F1200555F826005507EE0E0F25B54027
:101CB000A8435607F60E0D69B5402843D60803F130
:101CC000200545F82600186856000325B540A843AE
:101CD0000D7905F003055600B540284318604D689E
:101CE000012D08D04D68022D05D04D68112D02D070
:101CF0004D68122D13D1986856000325B540A843AE
:101D00005600CD68B5402843986058680125954035
:101D1000A8430D79C5F30015954028435860D8684D
:101D200056000325B540A84356008D68B5402843AA
:101D3000D8604D6805F08055B5F1805F6CD100BF6B
:101D4000394D2D6845F00105374E356035462D6813
:101D500005F00105009500BF00BF344D960855F809
:101D6000260095072E0F0F25B540A843304DAB42F6
:101D700002D1002515E04FE02E4DAB4201D10125E7
:101D80000FE02D4DAB4201D102250AE02B4DAB42B5
:101D900001D1032505E02A4DAB4201D1042500E025
:101DA00005259607360FB5402843204D960845F87F
:101DB0002600244D2868A0434D6805F48035B5F50C
:101DC000803F00D120431F4D28602D1D2868A0436F
:101DD0004D6805F40035B5F5003F00D12043194D9D
:101DE0002D1D28602D1D2868A0434D6805F4801521
:101DF000B5F5801F00D12043124D083528602D1DF8
:101E00002868A0434D6805F40015B5F5001F00D102
:101E100020430C4D0C352860521C0D68D540002D18
:101E20007FF430AF78BD0000203802400800014048
:101E3000000002400004024000080240000C024082
:101E40000010024000040140024613690B400BB130
:101E5000012000E00020704742690A4012B10A04E4
:101E6000826100E0816170470AB1816101E00B0489
:101E700083617047014800687047000040010020FE
:101E8000034800680349096808440149086070472D
:101E9000400100204801002010B50024032000F07C
:101EA000B3F8002000F008F808B1012401E000F0C8
:101EB0002FF8204610BD000070B5044600251148DB
:101EC0000068D8B10F4800684FF47A71B1FBF0F0A8
:101ED0000D490968B1FBF0F6304600F03FFD58B9F6
:101EE000102C07D200222146501E00F04FF8074860
:101EF000046004E0012502E0012500E001252846F8
:101F000070BD0000480100204C0100204401002069
:101F100008B500BF1448006840F00040124908604E
:101F20000846006800F00040009000BF00BF00BFFE
:101F3000081F006840F00100091F0860084600689B
:101F400000F00100009000BF00BF00BF081D006846
:101F500040F08050091D08600846006800F080507D
:101F6000009000BF00BF08BD24380240014608466B
:101F7000002809DB00F01F0301229A4043099B005F
:101F800003F1E023C3F8002100BF70472DE9F05FA3
:101F900080460D461646002702F052FA074639469B
:101FA0002A46334601F00700C0F1070ABAF1040FD0
:101FB00002D94FF0040A01E0C0F1070AD14600F14E
:101FC000040ABAF1070F02D24FF0000A01E0A0F1B3
:101FD000030AD4464FF0010A0AFA09FAAAF1010AE3
:101FE0000AEA020A0AFA0CFA4FF0010B0BFA0CFB90
:101FF000ABF1010B0BEA030B4AEA0B042146404606
:1020000002F026FABDE8F09F00BF00F00702064B81
:1020100019684FF6FF031940044B0B4343EA0221B2
:10202000014B196000BF70470CED00E00000FA059D
:102030002DE9F04104460D4614B90120BDE8F081B8
:102040007E48006800F00100A84218D200BF012DB0
:1020500005D17A48006840F0040078490860774864
:10206000006820F0010028437449086000BF08465A
:10207000006800F00100A84201D00120DEE72078CE
:1020800000F00200022807D16D48006820F0F0003F
:10209000A16808436A490860207800F00100002820
:1020A0007FD06068022807D165480838006800F4CE
:1020B0000030F8B90120C1E76068032807D1604803
:1020C0000838006800F00070A0B90120B6E7606829
:1020D000012807D15A480838006800F0020048B9C2
:1020E0000120ABE756480838006800F4007008B9D2
:1020F0000120A3E75248006820F00300616808430C
:102100004F490860FFF7B6FE06466068022810D106
:1021100008E0FFF7AFFE801B41F28831884201D909
:1021200003208BE74648006800F00C000828F0D137
:1021300037E06068032810D108E0FFF79BFE801BA2
:1021400041F28831884201D9032077E73C48006892
:1021500000F00C000C28F0D123E06068012810D1B9
:1021600008E0FFF787FE801B41F28831884201D9E1
:10217000032063E73248006800F00C000428F0D127
:102180000FE008E0FFF776FE801B41F288318842BD
:1021900001D9032052E72A48006800F00C0000280B
:1021A000F0D12648006800F00100A84218D900BF0D
:1021B000012D05D12148006840F004001F49086046
:1021C0001E48006820F0010028431C49086000BF39
:1021D0000846006800F00100A84201D001202DE768
:1021E000207800F00400042807D11548006820F486
:1021F000E060E168084312490860207800F00800B8
:10220000082808D10E48006820F46050216940EA8F
:10221000C1000B49086000F041F809490968C1F3A1
:102220000311084A515CC840074908600748006824
:10223000FFF742FE0746384600E70000003C024038
:10224000083802401D4800084C01002044010020CD
:1022500001480068704700004C01002000B5FFF7FE
:10226000F7FF04490968C1F30221034A515CC840E1
:1022700000BD0000083802402D48000800B5FFF7F7
:10228000E7FF04490968C1F3C221034A515CC84011
:1022900000BD0000083802402D480008F0B51A4E75
:1022A000316801F00C0616B3042E04D0082E04D0B9
:1022B0000C2E1BD103E0154823E0154821E0154EF4
:1022C000C1F38347F25DC1F38156731C0E4E36682D
:1022D00006F4803626B10E4E5643B6FBF3F403E007
:1022E0000A4E5643B6FBF3F420460AE000BF064E02
:1022F000361F3668C6F342356E1C0127B740F80317
:1023000000BF00BFF0BD0000083802400024F40008
:1023100000366E01144800082DE9F843044614B94C
:102320000120BDE8F883FE48006800F00C06FC4878
:10233000006800F48037207800F00100002875D094
:10234000082E04D00C2E0ED1B7F5803F0BD1F448E7
:102350000838006800F40030002867D06068002862
:1023600064D10120DDE700BF6068012808D1EC4896
:102370000838006840F48030E949083908602DE0E9
:10238000606868B9E6480838006820F48030E4499D
:10239000083908600846006820F4802008601DE0C5
:1023A000606805280DD1DE480838006840F48020B8
:1023B000DB49083908600846006840F4803008604E
:1023C0000CE0D7480838006820F48030D449083938
:1023D00008600846006820F48020086000BF60683C
:1023E00090B1FFF747FD054606E0FFF743FD401BB0
:1023F000642801D9032094E7C9480838006800F42C
:1024000000300028F1D011E0FFF734FD054606E06A
:10241000FFF730FD401B642801D9032081E7C04845
:102420000838006800F400300028F1D1207800F06E
:102430000200022853D1042E02D00C2E17D1B7B9B6
:10244000B7480838006800F0020020B1E0680128B1
:1024500001D0012065E7B248001F006820F4F85061
:10246000216940EA0120AE49091F086037E0E068B1
:1024700000B30120AB490860FFF7FCFC054606E00D
:10248000FFF7F8FC401B022801D9032049E7A448C4
:102490000838006800F002000028F1D0A048001FB2
:1024A000006820F4F850216940EA01209C49091F86
:1024B000086014E000209B490860FFF7DBFC05463C
:1024C00006E0FFF7D7FC401B022801D9032028E7CC
:1024D00093480838006800F002000028F1D1207805
:1024E00000F01000102871D1F6BB8D480838006844
:1024F00000F4007018B1A06908B9012011E78849FB
:10250000091F206A096801F46041884219D9206ACC
:1025100001F0EAF808B1012003E78148001F0068D4
:1025200020F46040216A08437D49091F0860217F2B
:102530007B48001F006861F31F607949091F08602C
:102540001AE07748001F006820F46040216A0843C1
:102550007349091F0860217F7148001F006861F3FB
:102560001F606F49091F00E020E00860206A01F049
:10257000BBF808B10120D4E60121206A01EB5031FB
:1025800001208840C00366490968C1F30311664A07
:10259000515CC8406549086065480068FFF78CFCDD
:1025A0008046B8F1000F42D04046BAE6A06948B371
:1025B00001205C490862FFF75DFC054607E0FFF774
:1025C00059FC401B022802D90320AAE62FE05448F8
:1025D0000838006800F400700028F0D05048001F50
:1025E000006820F46040216A08434D49091F0860D3
:1025F000217F4B48001F006861F31F604849091F95
:10260000086014E0002047490862FFF733FC0546E4
:1026100006E0FFF72FFC401B022801D9032080E6CB
:102620003F480838006800F400700028F1D1207895
:1026300000F0080008282CD16069A8B101203D49AC
:102640000860FFF717FC054606E0FFF713FC401B88
:10265000022801D9032064E631482C30006800F0DC
:1026600002000028F1D014E0002032490860FFF792
:1026700001FC054606E0FFF7FDFB401B022801D9DF
:1026800003204EE626482C30006800F002000028A7
:10269000F1D1207800F0040004286ED14FF0000939
:1026A0001F481C30006800F0805088B900BF1C48EB
:1026B0001C30006840F0805019491C310860084601
:1026C000006800F08050009000BF00BF4FF001098B
:1026D0001948006800F48070B0B91748006840F4E9
:1026E000807015490860FFF7C5FB054606E0FFF757
:1026F000C1FB401B642801D9032012E60E48006884
:1027000000F480700028F2D000BFA068012817D123
:1027100003482C30006840F4807001492C310DE0F2
:1027200008380240000047421D4800084C010020C4
:10273000440100208006474200700040086028E005
:10274000A06858B96648006820F480706449086041
:102750000846006820F4806008601AE0A068052838
:102760000CD15F48006840F480605D49086008460D
:10277000006840F4807008600BE040E05848006852
:1027800020F48070564908600846006820F4806094
:10279000086000BFA06898B1FFF76CFB054608E031
:1027A000FFF768FB401B41F28831884201D90320C2
:1027B000B7E54B48006800F400700028F0D012E044
:1027C000FFF758FB054608E0FFF754FB401B41F2BA
:1027D0008831884201D90320A3E54148006800F40C
:1027E00000700028F0D1B9F1010F07D13C48103832
:1027F000006820F080503A491039086000BF606AD4
:10280000A8B30C2E52D0606A022839D10020354975
:102810000866FFF72FFB054606E0FFF72BFB401B82
:10282000022801D903207CE52D483438006800F0E7
:1028300000700028F1D1D4E90A010843216B084354
:1028400027492C39096821F47D01084324492C3992
:102850000860012023490866FFF70CFB054607E0E6
:10286000FFF708FB401B022802D9032059E535E099
:102870001B483438006800F000700028F0D02DE0CC
:10288000002018490866FFF7F5FA054606E0FFF74D
:10289000F1FA401B022801D9032042E510483438E0
:1028A000006800F000700028F1D117E0606A01288C
:1028B00000D136E50A482C38076807F48031A06A51
:1028C000814209D107F47011E06A814204D107F412
:1028D0004001206B814201D0012022E5002020E54B
:1028E000343802400000474215480068401C144933
:1028F000086014480088012804D113480088401C4F
:102900001149088011480088012803D01048008828
:10291000012805D10F480088401C0E49088004E0BA
:1029200000200C4908800C4908800A480088B0F54E
:10293000FA7F04DD08480088401C0749088070477A
:102940001800002010000020160000200C000020BD
:102950000E000020140000201200002070B5044674
:102960002546681EB0F1807F01D301200FE0681E6C
:102970004FF0E02148610F214FF0FF3001F068FD7A
:1029800000204FF0E021886107200861002070BD21
:1029900010B5FFF7A9FF10BD10B5024600BF92F8B1
:1029A0003800012801D1022010BD012082F8380032
:1029B00000BF022082F839001068436810688468FC
:1029C00023F070030868034324F08004486804433C
:1029D0001068436010688460012082F8390000BFED
:1029E000002082F8380000BF00BFDDE710B50446C4
:1029F0000CB9012010BD94F8390028B9002084F8E2
:102A00003800204600F00CF8022084F83900211D1F
:102A1000206801F0FDF8012084F839000020E9E782
:102A200038B504462068B0F1804F15D100BF0B487F
:102A3000006840F00100094908600846006800F09D
:102A40000100009000BF00BF002211461C20FFF7CC
:102A50009DFA1C20FFF78AFA38BD00002438024096
:102A600001460868C06840F001000B68D86008683B
:102A7000806800F00702062A05D00868006840F068
:102A800001000B681860002070472DE9F0410446F2
:102A90000D4600BF94F83800012802D10220BDE89D
:102AA000F081012084F8380000BF022084F839004A
:102AB0002068866826F0770626F47F4620688660C0
:102AC0002868502833D00CDC202850D004DC0028A3
:102AD0004BD0102851D149E0302849D040284CD162
:102AE00039E060282DD0702807D0B0F5805F03D082
:102AF000B0F5005F41D10DE040E0D5E902136A680E
:102B0000206801F0CDF82068866846F077062068D6
:102B1000866033E0D5E902136A68206801F0C0F8E6
:102B20002068806840F480402168886026E0EA6878
:102B30006968206801F0C8F85021206801F0BBF8EE
:102B40001CE0EA686968206801F0D1F8602120681B
:102B500001F0B1F812E0EA686968206801F0B4F8A1
:102B60004021206801F0A7F808E000BF00BF00BFC7
:102B70002968206801F09FF800E000BF00BF012035
:102B800084F8390000BF002084F8380000BF00BF7F
:102B900085E7704710B5044620680069C0F340001F
:102BA000D8B12068C068C0F34000B0B16FF0020037
:102BB00021680861012020762068806900F0030008
:102BC00018B12046FFF7E5FF05E0204600F08BF83E
:102BD000204600F089F80020207620680069C0F3C4
:102BE0008000D8B12068C068C0F38000B0B16FF039
:102BF000040021680861022020762068806900F4C2
:102C0000407018B12046FFF7C4FF05E0204600F0F1
:102C10006AF8204600F068F80020207620680069F5
:102C2000C0F3C000D8B12068C068C0F3C000B0B124
:102C30006FF0080021680861042020762068C069D0
:102C400000F0030018B12046FFF7A3FF05E020467F
:102C500000F049F8204600F047F800202076206870
:102C60000069C0F30010D8B12068C068C0F300103C
:102C7000B0B16FF01000216808610820207620684C
:102C8000C06900F4407018B12046FFF782FF05E0EC
:102C9000204600F028F8204600F026F80020207694
:102CA0002068006900F0010058B12068C06800F099
:102CB000010030B16FF0010021680861204600F08A
:102CC00015F820680069C0F3801058B12068C0680A
:102CD000C0F3801030B16FF04000216808612046D9
:102CE00000F00CF810BD70477047000002490968F9
:102CF000491C014A11607047180100207047704755
:102D00002DE9F0470446206805682068C6682068F9
:102D100047694FF00008C14605F00F08B8F1000FF1
:102D20000AD105F0200038B106F0200020B120467D
:102D300001F01BF8BDE8F087B8F1000F6ED007F086
:102D4000010018B906F49070002867D005F0010062
:102D500030B106F4807018B1E06B40F00100E06320
:102D600005F0040030B107F0010018B1E06B40F04D
:102D70000200E06305F0020030B107F0010018B175
:102D8000E06B40F00400E06305F0080030B107F0AC
:102D9000010018B1E06B40F00800E063E06B70B335
:102DA00005F0200028B106F0200010B1204600F008
:102DB000DCFF20684069C0F38019E06B00F0080078
:102DC00010B9B9F1000F23D0204600F0AEFF206803
:102DD000406900F04000402816D12068406920F08A
:102DE000400021684861606B50B11748616B4863CF
:102DF000606BFEF751FE10B1606B416B88470CE0D1
:102E00002046FFF77CFF08E02046FFF778FF04E04C
:102E10002046FFF774FF0020E0638BE705F0800099
:102E200030B106F0800018B1204601F079F981E751
:102E300005F0400030B106F0400018B1204600F027
:102E400084FF77E700BF75E7173D000810B504461B
:102E50000CB9012010BDA06900B100E000BF94F8DA
:102E6000390028B9002084F83800204600F028F8FE
:102E7000242084F839002068C06820F400502168BC
:102E8000C860204600F0C4FF2068006920F490402C
:102E9000216808612068406920F02A0021684861A3
:102EA0002068C06840F400502168C8600020E063DA
:102EB000202084F8390084F83A000020CAE7000096
:102EC00010B586B00446142101A8FDF74EF91D493E
:102ED0002068884233D100BF1B48006840F40030AE
:102EE000194908600846006800F40030009000BFEF
:102EF00000BF00BF14480838006840F001001249C4
:102F0000083908600846006800F00100009000BF22
:102F100000BF0C20019002200290012003900320AA
:102F200004900720059001A90848FEF7A5FE00229D
:102F300001212620FFF72AF82620FFF717F806B010
:102F400010BD000000440040243802400000024050
:102F500010B5034693F83A0020282FD101B10AB9E1
:102F6000012010BD00BF93F83800012801D10220D4
:102F7000F7E7012083F8380000BF99629A85DA8567
:102F80000020D863222083F83A0000BF002083F895
:102F9000380000BF1868C06840F480701C68E060AA
:102FA0001868406940F001001C6860611868C068DA
:102FB00040F020001C68E0600020D2E70220D0E74B
:102FC00010B504460A492068096888420ED10948AC
:102FD0000179C288C088401C064BD88003F10800E4
:102FE00081540122011F0248FFF7B2FF10BD00000B
:102FF000040200209C0200202DE9F84304460D46FF
:1030000016461F464FF0000994F8390020285CD17D
:1030100005B116B90120BDE8F88300BF94F8380067
:10302000012801D10220F6E7012084F8380000BF12
:103030000020E063212084F83900FEF71BFF814661
:10304000A684E6842BE0E08C401EE084A068B0F506
:10305000805F16D14B46002280212046009701F068
:1030600093F808B10320D6E7A846B8F80000C0F3EB
:10307000080021684860206908B9AD1C0FE06D1C8C
:103080000DE04B46002280212046009701F07CF89D
:1030900008B10320BFE715F8010B21684860E08CF8
:1030A0000028D0D14B46002240212046009701F055
:1030B0006BF808B10320AEE7202084F8390000BF88
:1030C000002084F8380000BFA5E70220A3E770477E
:1030D00000BFFEE770B5044608480068FDF7BFF979
:1030E00005462146FDF718FA07D02046FDF7BCF942
:1030F0000249086001200249088170BD4800002093
:10310000E400002010B50E4B1B68984204D00C4B15
:10311000186001230B4C23810B4B1B68994204D090
:10312000094B19600123094C2381094B1B689A4202
:1031300004D0074B1A600123064C238110BD000008
:103140003C000020C000002040000020CC000020F7
:1031500044000020D800002010B50E4B1B6893429D
:1031600004D00C4B1A6001230B4C23810B4B1B88A2
:103170008B4204D0094B19800123094C2381094B50
:103180001B88834204D0074B18800123064C2381FF
:1031900010BD00004C000020B400002050000020B2
:1031A000A8000020520000209C0000202DE9F047DC
:1031B00081460C4615461E46DDE90878012C08D1EB
:1031C0002889012805D12946484600F092F80020B8
:1031D0002881022C08D13089012805D13146484682
:1031E00000F087F800203081032C08D138890128AD
:1031F00005D13946484600F07CF800203881042C7F
:103200000AD1B8F80800012806D14146484600F026
:1032100070F80020A8F80800BDE8F0872DE9F04715
:1032200081460C4615461E46DDE9087828890128A6
:1032300007D1012C05D12946484600F05AF8002054
:1032400028813089012807D1022C05D13146484612
:1032500000F04FF8002030813889012807D1032C75
:1032600005D13946484600F044F800203881B8F8C6
:103270000800012808D1042C06D14146484600F038
:1032800038F80020A8F80800BDE8F08770B50646B9
:103290000C4615462089012807D12146304600F00A
:1032A00028F8002020810120288170BD2DE9F041FF
:1032B00007460E4614461D463089012805D1314681
:1032C000384600F016F8002030812089012805D109
:1032D0002146384600F00DF8002020812889012879
:1032E00005D12946384600F004F800202881BDE8C1
:1032F000F08170B505460C46A27921792846FDF784
:103300004BFC28462168FDF764FD70BD70B504468E
:103310000D46FEF787F817490968884202D2002057
:1033200014490860FEF77EF812490968401AB0F5A2
:10333000FA6F05D9FEF776F80E49086000F092FBA7
:10334000FEF770F80B490968401A642807D908216C
:103350000948FEF779FD012801D100F0AFFA012CF0
:1033600004D1042D02DA00F073FB01E000F09CFAB6
:1033700070BD0000FC000020000402402DE9F04177
:1033800004460D469046012C26D1042D24DA3048FF
:10339000006830B9FEF746F82E49086002202C4933
:1033A0000860FEF73FF82B490968884204D20020E4
:1033B0002749086027490860FEF734F8254909685D
:1033C000401AB0F57A7F0CD921480068022808D14C
:1033D00001201F49086004E000201D49086000F03A
:1033E00077FA1B48006801282DD14046FDF750F8B8
:1033F00006460022184BFDF75FF821D24046FDF744
:1034000047F806460022154BFDF76EF818D2FEF776
:1034100009F813490968884202D20020104908605F
:10342000FEF700F80E490968401A64280DD9FDF727
:10343000F9FF0B49086020210A48FEF70DFD04E062
:1034400000F046FA01E000F043FABDE8F081000028
:1034500004010020080100200000E03F0000E0BF60
:1034600000010020000402400EB5002000900190F1
:103470000290184818490860002048604FF0807199
:10348000154881600021C160016141618161C161B4
:103490000162012180F824108162002180F82C1043
:1034A000102141630021816380F83C10FEF77CF914
:1034B00008B1FDF703FE0E200090012001900720C7
:1034C000029069460448FDF7BFFF08B1FDF7F6FD1D
:1034D0000EBD0000002401407401002000B587B03B
:1034E000142102A8FCF741FE00BF4F48006840F0DD
:1034F00001004D4908600846006800F00100019095
:1035000000BF00BF00BF0846006840F0040008602C
:103510000846006800F00400019000BF00BF00BF33
:103520000846006840F0020008600846006800F0A5
:103530000200019000BF00BF00BF0846006840F0D5
:10354000080008600846006800F00800019000BF0D
:1035500000BF002248F23F013448FEF785FC0022FC
:103560004FF470713248FEF77FFC00224FF48071F7
:103570003048FEF779FC002204212F48FEF774FC46
:103580003F2002900120039002200490002005902B
:1035900002A92648FEF770FB4FF40040029001207C
:1035A000039000200490059002A92048FEF764FBD8
:1035B0004FF4707002900120039000200490059059
:1035C00002A91B48FEF758FB4FF4807002900120BF
:1035D000039000200490059002A91648FEF74CFBCA
:1035E0004FF400400290002003900120049002A9B3
:1035F0001048FEF741FB4FF4E0500290002003908A
:103600000120049002A90A48FEF736FB042002902C
:103610000120039000200490059002A90648FEF7BF
:103620002BFB07B000BD00001C3802400004024024
:103630000008024000000240000C024000B587B0C4
:1036400000200390049005900690019002904FF0A6
:103650008040144908604FF47A50486000211148B6
:1036600081604FF47A71C160002101614161FFF70F
:10367000BDF908B1FDF722FD4FF48050039003A976
:103680000848FFF702FA08B1FDF718FD0020019085
:10369000029001A90348FFF77FF908B1FDF70EFD7D
:1036A00007B000BDC801002010B50B480B490860E9
:1036B0004FF4E1304860002108488160C160016139
:1036C0000C21416100218161C161FFF7BFFB08B19D
:1036D000FDF7F4FC10BD000000440040040200208F
:1036E00000BFFEE77047704718B503460022254823
:1036F000006800F0F00050BB22481C30006800F069
:10370000805020B12048006800F4C05118E000BF8C
:103710001C481C30006840F080501A4C1C3420605B
:103720002046006800F08050009000BF00BF16489F
:10373000006800F4C0512046006820F080502060EE
:10374000B1F5C05F03D1B3F5404F00D1012200BFF6
:10375000012A05D10D48006840F004000B4C2060A0
:103760000A48006820F001001043084C206000BFA8
:103770002046006800F00100904201D0012018BDF1
:103780000020FCE70838024000700040003C024086
:1037900010B50E48FDF7ACFC0D49088008460088BE
:1037A000012811D10948001DFDF7A2FC0949086054
:1037B00006480830FDF79CFC0749086003480C30B8
:1037C000FDF796FC0549086010BD000010F80108DF
:1037D000300100201C0100202001002024010020D5
:1037E0002DE9FC47044689469246012C05D1B9F1E2
:1037F000010F02D12848C0F800A0012C27D1B9F14F
:10380000020F24D12548006830B9FDF70BFE24498A
:103810000860022021490860FDF704FE204909687C
:10382000884204D200201D4908601D490860FDF748
:10383000F9FD1B490968401AB0F57A7F0CD9174881
:103840000068022808D101201449086004E0002023
:103850001249086000F05AF810480068012817D192
:103860000D480068FCF714FE05460E465046FCF76E
:103870000FFE074600220B4BFCF7EBFD2A463346B2
:10388000CDE90001FCF718FE04D800F009F901E0C9
:1038900000F03CF8BDE8FC870C010020100100207E
:1038A000140100200000E03F10B500221021024862
:1038B000FEF7DAFA10BD00000004024010B5002245
:1038C00008210248FEF7D0FA10BD000000040240B3
:1038D00010B5002220210248FEF7C6FA10BD0000F4
:1038E0000004024010B5002201210248FEF7BCFA94
:1038F00010BD00000004024010B500220221024861
:10390000FEF7B2FA10BD00000004024010B500221C
:1039100004210248FEF7A8FA10BD0000000402408E
:103920002DE9F04104460D4616461F46DDF8188085
:1039300010480660104807601048C0F80080012059
:1039400020800C480E4908600C4802680A4801684B
:1039500008480068FFF7D6FB084802680648016877
:103960000448006800F016FD2846FDF737FDBDE865
:10397000F081000024000020280000202C000020FE
:103980003000002010B52C48008848B900F074F8C9
:1039900029480088401C28490880002027490860E1
:1039A0002548008801280FD1244800682449096867
:1039B000884209D300F06AF81F480088401C1E495D
:1039C000088000201D4908601B48008802280FD18C
:1039D0001A4800681B490968884209D3FFF78CFF21
:1039E00015480088401C14490880002013490860CD
:1039F0001148008803280FD1104800681049096851
:103A0000884209D3FFF76EFF0B480088401C0A4923
:103A100008800020094908600748008804280AD166
:103A20000648006808490968884204D30020034911
:103A300008600149088010BD2C01002018010020F9
:103A4000240100201C0100202001002070470000FC
:103A500010B5012210210248FEF706FA10BD000041
:103A60000004024010B5012208210248FEF7FCF9CB
:103A700010BD00000004024010B5012211460248AA
:103A8000FEF7F2F910BD00000004024010B501225B
:103A900002210248FEF7E8F910BD000000040240D0
:103AA00010B5012204210248FEF7DEF910BD000026
:103AB00000040240F0B53C233C24194D194E3668F1
:103AC0004FF46167B6FBF7F606800688C6EB06166C
:103AD000B600C6EB0616134F3F68A7EB86063C27D9
:103AE000B6FBF7F60E800688C6EB0616B600C6EBE8
:103AF00006160C4F3F88A7EB86060F88C7EB071703
:103B0000A6EB87061680074E36682F46BE4205D3C1
:103B10000026044F3E6006800E801680F0BD000037
:103B2000805101001801002010B5FEF7A9F9FEF739
:103B30002FFF10BD00B593B0342106A8FCF715FB8C
:103B4000142101A8FCF711FB1348006820F4C050B1
:103B500040F400601049086002200690012009909E
:103B600010200A9000200F9006A8FEF7D5FB08B1A0
:103B7000FDF7A4FA0F20019001200290002003908D
:103B800004900590002101A8FEF752FA08B1FDF754
:103B900095FA13B000BD00000070004014480068A2
:103BA00040F48070124908601148083000681149DB
:103BB00008400F49083108600D4800680E49084068
:103BC0000B4908600846006820F480200860084817
:103BD0000830006820F47D000549083108600020A5
:103BE000091D08604FF0006004490860704700003C
:103BF000003802400CC0FF88FEFFFEEE08ED00E03A
:103C000010B50248FEF7C6FF10BD0000C801002035
:103C100010B50268B0F1804F0BD01B4B984208D012
:103C20001A4B984205D01A4B984202D0194B984231
:103C300003D122F070024B681A43B0F1804F11D0CB
:103C4000114B98420ED0114B98420BD0104B98421A
:103C500008D0104B984205D00F4B984202D00F4B22
:103C6000984203D122F44072CB681A4322F08003B9
:103C70000C6943EA040202608B68C3620B688362CA
:103C80000123436110BD0000000400400008004013
:103C9000000C004000080140000C014000100140F1
:103CA00030B50C46816821F47F4142EA0325254363
:103CB0002943816030BD0A46816821F0700142F0DD
:103CC000070319438160704730B50B461446026AFA
:103CD000056A25F001050562816921F0F00141EADC
:103CE000041122F00A021A438161026230BD30B52C
:103CF0000B461446056A25F0100505628169026AC3
:103D000021F4704141EA043122F0A00242EA031298
:103D10008161026230BD70B505466C6A0020E085A5
:103D2000E0842046FEF7EBFF70BD0168C96821F40E
:103D300090710268D1600168496921F0010102684F
:103D40005161202180F83A10704710B50446206870
:103D5000C06820F040002168C860202084F8390045
:103D60002046FFF7B4F9002010BD70B5044694F862
:103D70003A0022284AD1A068B0F5805F13D1A56A25
:103D8000206940B920684068C0F308002880A06A14
:103D9000801CA06219E020684068C0B22880A06A38
:103DA000401CA06211E0206938B920684068C1B2A7
:103DB000A26A501CA062117007E02068406800F001
:103DC0007F01A26A501CA0621170E08D401E80B27B
:103DD000E085C8B92068C06820F020002168C8606C
:103DE0002068C06820F480702168C860206840693D
:103DF00020F0010021684861202084F83A00204624
:103E0000FFF7DEF8002070BD0020FCE70220FAE793
:103E100070B504462168096921F44051E2681143F4
:103E2000226811612269A168114362691143E26944
:103E300041EA02052168C96849F20C6291432943AD
:103E40002268D1602168496921F44071A269114357
:103E500022685161E169B1F5004F7DD1AF4A216817
:103E6000914255D1FEF70AFA00EBC00101EB0011B7
:103E700062685200B1FBF2F16422B1FBF2F10A0177
:103E800000EBC00101EB001163685B00B1FBF3F1D3
:103E900000EBC00303EB001366687600B3FBF6F398
:103EA0006426B3FBF6F303EBC30606EB0313A1EBA7
:103EB0008301322303EBC1016423B1FBF3F101F071
:103EC000F80102EB410200EBC00101EB0011636855
:103ED0005B00B1FBF3F100EBC00303EB001366687A
:103EE0007600B3FBF6F36426B3FBF6F303EBC306ED
:103EF00006EB0313A1EB8301322303EBC10164231F
:103F0000B1FBF3F101F0070111442268916004E173
:103F1000FEF7A4F900EBC00101EB0011626852004A
:103F2000B1FBF2F16422B1FBF2F10A0100EBC00136
:103F300001EB001163685B00B1FBF3F100EBC00320
:103F400003EB001366687600B3FBF6F36426B3FB5D
:103F5000F6F303EBC30600E032E006EB0313A1EB3C
:103F60008301322303EBC1016423B1FBF3F101F0C0
:103F7000F80102EB410200EBC00101EB00116368A4
:103F80005B00B1FBF3F100EBC00303EB00136668C9
:103F90007600B3FBF6F36426B3FBF6F303EBC3063C
:103FA00006EB0313A1EB8301322303EBC10164236E
:103FB000B1FBF3F101F00701114422689160ACE01C
:103FC000564A2168914254D1FEF758F900EBC001DE
:103FD00001EB001162689200B1FBF2F100EBC0024C
:103FE00002EB001263689B00B2FBF3F26423B2FBA6
:103FF000F3F202EBC20303EB0212A1EB82013222C5
:1040000002EB01116422B1FBF2F101F0F00200EBCE
:10401000C00101EB001163689B00B1FBF3F1642365
:10402000B1FBF3F102EB011200EBC00101EB001157
:1040300063689B00B1FBF3F100EBC00303EB0013DB
:104040006668B600B3FBF6F36426B3FBF6F303EB46
:10405000C30606EB0313A1EB8301322303EB01112B
:104060006423B1FBF3F101F00F0111442268916068
:1040700053E0FEF7F3F800EBC00101EB00116268BA
:104080009200B1FBF2F100EBC00202EB0012636898
:104090009B00B2FBF3F26423B2FBF3F202EBC20328
:1040A00003EB0212A1EB8201322202EB0111642226
:1040B000B1FBF2F101F0F00200EBC00101EB0011E5
:1040C00063689B00B1FBF3F16423B1FBF3F102EBF6
:1040D000011200EBC00101EB001163689B00B1FB12
:1040E000F3F100EBC00303EB00136668B600B3FB0B
:1040F000F6F36426B3FBF6F303EBC30606EB0313F8
:10410000A1EB8301322303EB01116423B1FBF3F133
:1041100001F00F0111442268916070BD0038014028
:10412000014691F8390021282CD18868B0F5805FCC
:104130000FD10A6A1088C0F308000B68586008693C
:1041400018B9086A801C086209E0086A401C086205
:1041500005E00B6A581C086218780B685860C88C18
:10416000401E80B2C88458B90868C06820F080003A
:104170000B68D8600868C06840F040000B68D860E1
:10418000002070470220FCE72DE9F04104460D466F
:1041900017469846069E21E0701CF8B12EB1FDF737
:1041A00069FEA0EB0800B04218D92068C06820F46E
:1041B000D0702168C8602068406920F00100216843
:1041C0004861202084F8390084F83A0000BF0020BC
:1041D00084F8380000BF0320BDE8F0812068006843
:1041E0002840A84201D1012000E00020B842D3D0ED
:1041F0000020F1E710B50248FEF782FD10BD000077
:104200000402002001200849088108490881084962
:104210000881084908810849088108490881084936
:104220000881084908817047780000208400002038
:1042300090000020F0000020C0000020CC000020F2
:10424000D8000020E40000207CB505460E46144648
:104250002046FEF73FFF2046FDF7C0F80C4A0D4907
:104260002846FFF713F80C480C490D4B0D4ACDE9D1
:10427000001031462846FEF7D1FF0B480B490C4B86
:104280000C4ACDE9001031462846FEF78FFF7CBD71
:104290006C000020600000209000002084000020BE
:1042A00078000020F0000020D8000020CC00002082
:1042B000C0000020E400002028B90749098911B98D
:1042C0000121064A1181012805D10449098911B942
:1042D0000121014A11817047600000206C0000201C
:1042E0007CB504460D460D4A0D492046FEF7CEFF2B
:1042F0000C480D490D4B0E4ACDE9001029462046C9
:10430000FEF78CFF0B480C490C4B0D4ACDE9001011
:1043100029462046FEF74AFF7CBD000060000020D1
:104320006C00002090000020840000207800002015
:10433000F0000020D8000020CC000020C0000020A9
:10434000E400002010B50446034B044A044920460B
:10435000FEF7ACFF10BD0000B4000020A800002054
:104360009C00002070B504460E46154621460648BE
:1043700000F04CF83146054800F048F8A9B204486E
:1043800000F044F870BD00005400002057000020E9
:104390005A00002070B504460E46154621460648D0
:1043A00000F010F83146054800F00CF829460448A2
:1043B00000F008F870BD00005001002059010020F5
:1043C0006201002070B501220A2404E004EB84039A
:1043D0005C00531C9AB2B1FBF4F3002BF6D1531ED0
:1043E0000AE00A25B1FBF5F605FB16153035C55474
:1043F0000A25B1FBF5F15B1E002BF2DA2023835472
:1044000020261346551CAAB2C65470BD0A2905DAE7
:104410003022027001F1300242700BE00A2291FB5F
:10442000F2F2303202700A2291FBF2F302FB131215
:104430003032427000228270704700BFFEE70000F9
:1044400002480068C0F30220704700000CED00E055
:1044500010B5002804DB0A07130E054A135406E0C2
:104460000A07140E034A00F00F031B1FD45410BD9B
:1044700000E400E018ED00E002E008C8121F08C1E7
:10448000002AFAD170477047002001E001C1121FD5
:10449000002AFBD17047000070B506460D46144651
:1044A000002D30D15F48008800282CD14FF47A735A
:1044B00006225DA13046FEF79FFD4FF47A7302227B
:1044C0005BA13046FEF798FD4FF47A730A2259A19A
:1044D0003046FEF791FD4FF47A73022254A1304624
:1044E000FEF78AFD4FF47A730A2255A13046FEF793
:1044F00083FD4FF47A73032254A13046FEF77CFD0E
:10450000012048490880012D17D14648008801281C
:1045100013D14FF47A7307224DA13046FEF76CFD9C
:104520004FF47A73022242A13046FEF765FD002067
:104530003C490880012048490880012D70D1012C98
:1045400014D145480088012810D14FF47A7309220C
:1045500042A13046FEF750FD4FF47A73022234A197
:104560003046FEF749FD02203B490880022C14D159
:1045700039480088022810D14FF47A7309223AA1F1
:104580003046FEF739FD4FF47A73022228A13046F7
:10459000FEF732FD032030490880032C14D12E4849
:1045A0000088032810D14FF47A730A2221A13046E3
:1045B000FEF722FD4FF47A7302221DA13046FEF76A
:1045C0001BFD042024490880042C22D122480088A5
:1045D00004281ED14FF47A730A2219A13046FEF73F
:1045E0000BFD4FF47A73022211A13046FEF704FD51
:1045F0004FF47A7309221FA13046FEF7FDFC4FF4F9
:104600007A73032211A13046FEF7F6FC002012490E
:1046100008802CB91048008810B901200E49088084
:1046200070BD00003C0100200A53657475700000E5
:104630000D0A000052656C6179325F4F46460000FA
:1046400052656C6179315F4F464600000D0A0A00E1
:1046500052756E6E696E67003E01002052656C6196
:1046600079315F4F4E00000052656C6179325F4FC7
:104670004E000000467265652054696D65000000BB
:104680008CB0504850490860FDF706FCFFF752FA1D
:10469000FEF724FFFEF7E8FEFEF7D0FFFFF704F871
:1046A0004A48FEF7DDF901224749091D4548FEF752
:1046B0004FFC4748FDF7A8F94FF480704549420088
:1046C000454BCDE90732CDE909108022CDE903320F
:1046D000CDE9053040204202CDE9002302903F4B56
:1046E000022210213E48FCF7DFF9FFF751F80022C3
:1046F00011463B48FCF750FA3AA13948FCF769FBF0
:104700003D48006800903D4803683D4802683D48C8
:1047100001683D48FFF704F952E0FCF7ADFCFCF7F7
:1047200065FB38492A48FCF705F8384801883848BD
:104730000088FEF7EBFD33480268344801883448AE
:104740000088FEF71BFE2F48026830480188304879
:104750000088FFF745F82D4802882D480188194840
:10476000FFF79AFE2A480088C8B92748008804281D
:1047700001D0FCF797F820482049214BCDE90010E3
:104780002048214902682248FCF7C4F820480088E4
:10479000FFF792FD1C4801881148FFF7A1FD1C4856
:1047A000008801280CD1FFF7EDF819480088FFF7C1
:1047B00083FD14480268144801880948FFF744FD46
:1047C000ABE70000040200209C020020C80100208A
:1047D0007401002000000240000802400004024072
:1047E00044020020202020202020202030303A3099
:1047F000303A303000000000240100202001002069
:104800001C010020380100202E0100202C01002076
:1048100028010020030406080C10182030000000B6
:104820000000000000010203040607080900000060
:10483000000102030400000053455455502020009D
:1048400052756E6E696E672000000000493D2020A1
:104850002020202020202020416D706500000000D5
:1048600054313A20202020202020202047696179DF
:104870000000000054323A20202020202020202058
:10488000476961790000000054333A20202020203D
:10489000202020204769617900000000BC48000802
:1048A0000000002050010000DC0600081C49000840
:1048B00050010020F818000088440008011805186D
:1048C000788857FC022B0113404882089A380C3A2A
:1048D000600C3A014C9A740C9A880C22542A2031AC
:1048E000290C1A570C5A0B0C1A5A0C5A0E0C13504E
:1048F000011320043A020C9A590C9A620C1A6B0CA0
:104900005A03549A4C6001205A0A047A05F4C936B5
:0C491000690E5A100C1468FF1F00000014
:0400000508000125C9
:00000001FF
