:020000040800F2
:10000000801B00203901000839400008D939000858
:1000100035400008550F0008D54D000800000000CD
:100020000000000000000000000000000144000883
:1000300035160008000000003B4000082545000878
:100040005301000853010008530100085301000840
:100050005301000853010008530100085301000830
:10006000530100085301000853010008E915000876
:100070005301000853010008530100085301000810
:100080005301000853010008ED0B0008530100085C
:1000900053010008530100085301000853010008F0
:1000A000000000005301000853010008530100083C
:1000B000FD4500080D4600085301000853010008E3
:1000C00053010008530100085301000853010008C0
:1000D0005301000853010008B94A00085301000801
:1000E00053010008530100085301000853010008A0
:1000F00053010008000000005301000853010008EC
:100100000000000000000000530100085301000837
:1001100053010008530100085301000800000000CB
:1001200053010008DFF80CD000F00AFC004800473B
:100130009D510008801B0020064880470648004764
:10014000FEE7FEE7FEE7FEE7FEE7FEE7FEE7FEE787
:10015000FEE7FEE799450008250100082DE9F05F5C
:100160000546002092469B46884606468146402426
:100170001BE0284641464746224600F056FA5346C1
:100180005A46C01A914110D311461846224600F033
:100190003DFA2D1A67EB01084F4622460120002147
:1001A00000F034FA17EB00094E41201EA4F10104BF
:1001B000DFDC484631462A464346BDE8F09FD2B2CE
:1001C00001E000F8012B491EFBD270470022F6E740
:1001D00010B513460A4604461946FFF7F0FF2046BD
:1001E00010BDF0B480EA0102D40F4200B2EB410F1F
:1001F00002D20246084611464A0042D0C30DDDB283
:10020000C1F3C752AD1A202D35DAC1F3160141F4FE
:10021000000204B15242C5F1200602FA06F12A4159
:100220001044B3EBD05F23D0C4B1012DA0EBC35079
:1002300009DCF0BC4FF0004202EAC352DBB200F529
:10024000000000F00BBA400000F1807000EBC350DA
:10025000A0F1807040EAD170490009E0490841EA04
:10026000C071A0EBC35000F50000400800EBC35084
:10027000F0BC00F0EAB96142012202EB4101001B2F
:10028000F6E7F0BC704781F00041AAE780F000403B
:10029000A7E780EA010210B502F00043400022D037
:1002A0004A001FD0010E01EB1261C0F35600C2F3E9
:1002B000560240F4000042F40002A0FB02200004B9
:1002C0007F39140400D0401C50EA124001D4400091
:1002D000491EC2B20C0604EBD010401C4008802A14
:1002E00002D003E0002010BD20F00100002900DA58
:1002F0000020184310BD30B480EA010202F000452E
:1003000030F0004221F0004013D090B1C30DD40D65
:10031000C2F31601C0F31600E41A41F4000140F4E0
:1003200000027D34914201D3641C00E04900002C9E
:1003300002DA30BC002070474FF4000000239142E5
:1003400001D3891A034340084FEA4101F7D151B163
:10035000914202D14FF0004105E002D24FF001017D
:1003600001E06FF0010103EBC450284430BC00F001
:100370006CB92DE9FE4F81EA030404F0004421F03A
:10038000004100944FF0000B23F0004350EA0104B9
:100390005ED052EA03045BD0C3F30A54C1F30A559A
:1003A0002C44A4F2F3340194A0FB0254C1F31301D2
:1003B00041F48011C3F3130343F4801301FB02449F
:1003C00000FB034E840A970A44EA815447EA8357A4
:1003D000A4FB076802958D0A05FB07854FEA932C5D
:1003E00004FB0C542705029D4FEA065847EA1637CE
:1003F000B5EB08056EEB070C870E920E47EA8117E6
:1004000042EA8312A7FB0201B6EB0B0164EB000486
:100410002B0D43EA0C335E1844EB1C50DA46514670
:10042000E7FB0201C5F313044FEA0B3343EA14530D
:100430004FEA0432019C43EA0603A4F10C0402943F
:10044000009CCDE900B400F046F903B0BDE8F08FA0
:1004500000200146F9E72DE9F04D81EA030404F09C
:10046000004B21F0004514464FF0000A23F00041F4
:1004700050EA050220D054EA01021DD0C5F30A5704
:100480000246C5F31303C1F31300C1F30A5640F447
:10049000801543F48013A7EB0608101BD64608F21C
:1004A000FD3873EB050002D308F1010801E0921852
:1004B0005B41B8F1000F03DA00200146BDE8F08D82
:1004C00000204FF48011064684460EE0171B73EBA4
:1004D000050705D3121B63EB050306434CEA010C29
:1004E00049084FEA300092185B4150EA0107EDD10C
:1004F00052EA030012D082EA040083EA05010843AD
:1005000005D0101BAB4106D20122002306E00022D9
:100510004FF0004302E06FF0010253101AEB0600A7
:100520004CEB085110EB0A0041EB0B01BDE8F04D1C
:1005300000F0C2B896230022114600F08FB820F0D8
:100540000040C10DC0F3160040F400007F2901DA1D
:1005500000207047962903DCC1F19601C84070471E
:10056000963988407047C1F30A5210B5C1F31301A0
:1005700040F2FF3341F480119A4201DA002010BDAD
:1005800040F233439A42A2F2334203DC524200F07B
:100590004CF810BD904010BD00F0004230F000401B
:1005A0000AD0C10D01F56071C0F3160042EA015195
:1005B000C20840071143704700200146704701F010
:1005C000004330B421F0004150EA010206D00A0D88
:1005D000A2F56072C1F31301002A02DC30BC0020D6
:1005E0007047440F44EAC104C100E01830BC00EB7E
:1005F000C25000F02AB80000002801DBC0F1004022
:10060000002901DBC1F1004181427047202A04DB4F
:10061000203A00FA02F1002070479140C2F1200315
:1006200020FA03F3194390407047202A04DB203A54
:1006300021FA02F00021704721FA02F3D040C2F102
:10064000200291400843194670470029A8BF70470F
:10065000401C490008BF20F00100704710B4B0FAF8
:1006600080FC00FA0CF050EA010404BF10BC704793
:1006700049B1CCF1200421FA04F411FA0CF118BFAD
:10068000012121430843A3EB0C01CB1D4FEA00617C
:100690004FEA102042BF002010BC704700EBC3504F
:1006A00010440029A4BF10BC7047401C490008BF7B
:1006B00020F0010010BC704710B5141E73F1000447
:1006C00008DA401C41F1000192185B411A4301D144
:1006D00020F0010010BD2DE9F04D92469B4611B16E
:1006E000B1FA81F202E0B0FA80F220329046FFF7D0
:1006F0008DFF04460F4640EA0A0041EA0B015346CB
:100700005A46084313D0114653EA010019D0C8F1E4
:1007100040025046FFF789FF05460E4650465946AF
:100720004246FFF773FF084305D0012004E020464E
:100730003946BDE8F08D0020054346EAE0762C43BB
:1007400037430A986305E40AA0EB08000022FD0A7B
:1007500044EA47540A3002D500200146E9E7010582
:1007600010196941DDE9084500196941BDE8F04DFE
:10077000A2E72DE9FE4F804681EA0300C00F0C4638
:10078000009021F0004123F00045B8EB0200A941A0
:1007900005D24046214690461C460B46024623F0B1
:1007A0000040104347D0270DC7F30A00C3F30A5196
:1007B0000290401A019040286BDAC3F3130040F412
:1007C000801B0098924620B10023D2EB030A63EB12
:1007D0000B0B01985946C0F140025046FFF716FF37
:1007E00006460D4650465946019A00F0BBF810EBFC
:1007F00008006141002487EA115284EAE7731A4332
:1008000040D0009A62B3019A012A4FEA075215DCE0
:10081000001B61EB02014FF0004202EA0752CDE9F2
:100820000042001C41F5801132462B46FFF753FF72
:1008300003B0BDE8F08F40462146F9E7001B61EBAD
:100840000201001C41F5801300185B412018A2F53D
:10085000001747EB030140EAD570B6196D4111E06E
:100860006D084FEA360645EAC0754FEA0752001B8D
:1008700061EB0201001C41F5801149084FEA30008C
:100880000019514132462B4603B0BDE8F04FFFF747
:1008900013BF0098012240000023D0EB020263EB5B
:1008A000E073009821464FEAE074B8EB000061EB7A
:1008B0000401E9E783F000435BE781F0004158E77A
:1008C00070B521F0004303430CD0C1F30A55002456
:1008D000D5EB040564EB0403D617AD1AB34102DB74
:1008E0000020014670BD201841EB025170BD0EB5CD
:1008F000C10F80EAE0700844CA07002140F2334388
:100900008DE80E000A460B46FFF7E5FE03B000BD7A
:1009100030B5041E71F1000404DB4FF00044404286
:1009200064EB0101141E73F1000405DB1C464FF05B
:100930000043524263EB0403994208BF904230BD2A
:10094000064C074D06E0E06840F0010394E807001C
:1009500098471034AC42F6D3FFF7E8FB185F000865
:10096000385F0008202A06DBCB17203A41FA02F054
:1009700043EAE07306E041FA02F3D040C2F12002FC
:1009800091400843194670472DE9F04D00231A465F
:100990001B1A8A4103DB00200146BDE8F08DC1F33C
:1009A0000A52C1F3130141F480154FF0000BD10737
:1009B00002D100186D41521E0027044640F2FF117B
:1009C000384601EB620A3E468046024600204FF45C
:1009D0008011FFF72AFEC2197141BB1846EB0100D6
:1009E000B4EB030C75EB000C04D3E41A65EB0005C3
:1009F00017460E46241908F101006D41804634283F
:100A0000E3DDF91946EB0600091BA84103D24FF0BC
:100A1000FF32134601E0002213461BEB070046EBB2
:100A20000A51BDE8F04DFFF747BE70B58C1810F8BD
:100A3000015B15F0070301D110F8013B2A1106D123
:100A400010F8012B03E010F8016B01F8016B5B1E3D
:100A5000F9D12B0705D40023521E0DD401F8013B18
:100A6000FAE710F8013BCB1A921C03E013F8015B84
:100A700001F8015B521EF9D5A142D8D3002070BD08
:100A80002DE9FF5F04460E4691461D46DDF838A06D
:100A9000BAF1010F03D102204849088009E0BAF1F8
:100AA000020F03D104204549088002E00020434999
:100AB00008804348006800EB45004249B1F9001046
:100AC00008443E49B1F9001008443D4908603E48D9
:100AD000006848443C4908603C480088401C3B4949
:100AE000088008460088192866D1374800680988B8
:100AF000B0FBF1F03449086035480068FFF71AFD93
:100B0000804631480068FFF715FD83464146FFF7F0
:100B1000F2FB07462F4801683846FFF7BAFB2E491B
:100B200008602748006829490988B0FBF1F024498A
:100B3000086027480068FFF7FDFC804620480068F1
:100B4000FFF7F8FC83464146FFF7D5FB07462148EF
:100B500001683846FFF79DFB204908601E48016880
:100B60001E480068FFF78FFB07461D48016838469E
:100B7000FFF7C1FB206000221A4B10461A4904F00F
:100B800007FC074688462068FFF706FD3A464346BD
:100B9000CDE90001FFF7EDFBCDE90201FFF7E3FC32
:100BA00030600020094908800B4908600B49086043
:100BB0000549086002490860BDE8FF9F0200002067
:100BC0000C00002000000020140000200400002081
:100BD000080000201C000020180000201000002049
:100BE000200000200000F03F0000244010B5024823
:100BF00000F0DBFF10BD00002402002010B502460B
:100C0000506AC16C11F0500F05D0406C016BBDE80B
:100C1000104010460847C16C41F40071C16401687E
:100C20008A6812F0405F1AD190F82420BAB90A6B92
:100C300012F0F87F03D08A6812F4806F0FD14A68EF
:100C400022F020024A60C16C21F48071C164C16C41
:100C500011F4805F03D1C16C41F00101C16400F067
:100C6000A1FF10BD10B5406AC16C41F04001C164E4
:100C7000016D41F00401016500F096FF10BD10B553
:100C8000406A00F090FF10BDF8B5044600260096BB
:100C90002068016811F0400F2AD1816841F00101FC
:100CA00081601A481A490068B0FBF1F000EB40007F
:100CB0000090009828B10098401E009000980028ED
:100CC000F9D101F0CDFC05462068006810F0400F16
:100CD0000ED101F0C5FC401B022804D92068006831
:100CE00010F0400F06D02068006810F0400FF0D0E0
:100CF0000020F8BDE06C40F01000E064206D40F092
:100D00000100206584F848600120F8BDD80100206A
:100D100040420F0038B504461B48214602681B4874
:100D200000F07DF8184821460268194800F06CF878
:100D3000154822464FF400610368164800F0DEF8BB
:100D4000114822464FF480610368124800F076F89B
:100D50001148006800901148036811480268114862
:100D600001681148006802F04BFE0B4800680090D3
:100D70000A4803680A4802680A4801680A48006885
:100D800003F094FF38BD00004C0000203400002028
:100D900036000020000802404800002044000020E7
:100DA000400000203C000020380000202DE9FF5FBB
:100DB00004460D4616461F46DDE910ABDDE90E89F7
:100DC0000D48008800900D48038822464FF40041EA
:100DD0000B4800F05FF8208801280AD18DE8000F49
:100DE00020883B463246294603F052FA0120054945
:100DF0000880BDE8FF9F000036000020340000207E
:100E000000000240540000200388012B06D1136823
:100E100013B113685B1E136002230380704710B583
:100E20000388012B09D142F20F741368A34202D246
:100E300013685B1C13600223038010BD2DE9F04191
:100E400005460E4617461C463146284601F0F2FB81
:100E500080B901200D4908800D480088322809DD3D
:100E6000206838B100200A490880206810B1206845
:100E7000401E20603146284601F0DCFB012802D1EB
:100E8000002002490880BDE8F08100002600002013
:100E90002A0000202DE9F0410746884614461D46E9
:100EA000069E4146384601F0C5FB90B9208880B9BE
:100EB0007DB976B901200F4908800F480088B0F548
:100EC000FA6F06DD0120208000200B4908800949C7
:100ED00008804146384601F0ADFB012803D0012DC2
:100EE00001D0012E04D10020034908800149088067
:100EF000BDE8F081280000202E0000202DE9F041FF
:100F000005460E4617461C463146284601F092FB20
:100F100088B901200D4908800D48008832280ADD73
:100F200000200B49088042F20F712068884202D2EB
:100F30002068401C20603146284601F07BFB0128D8
:100F400002D1002001490880BDE8F0812400002082
:100F50002A00002000BFFEE72DE9F05F04460D46A1
:100F600016461F46DDE90CABDDE90A89002038345E
:100F700004F8380C04F8375C04F8366C44F8347C18
:100F800024F8308C44F82C9C24F828AC44F804BC99
:100F90000E9820800F986060109820811198E06072
:100FA000129820821398606114982083282060771B
:100FB0000620A0760C20E07614202077383C3220E2
:100FC00000F03CF800223321204600F06BF80520A9
:100FD00000F034F800223321204600F063F80520A9
:100FE00000F02CF800223221204600F05BF80520AA
:100FF00000F024F894F852100022204600F052F835
:1010000094F853100022204600F04CF894F8541045
:101010000022204600F046F894F8551000222046A1
:1010200000F040F800220121204600F03BF80022A9
:101030000221204600F036F8BDE8F09F10B50446C6
:10104000204601F03DF910BDF8B504460D461646A0
:10105000002713A0006800906078A84202DC607846
:10106000401EC5B2A078B04202DCA078401EC6B2D5
:101070001DF806002844C7B22078102806D147F092
:1010800080010022204600F08BF807E0207828B984
:1010900047F080010022204600F004F8F8BD00006F
:1010A000004014542DE9F04104460F4690463D118E
:1010B0003E46B8F1000F05D121890022606801F099
:1010C000C8FA07E0B8F1010F04D121890122606854
:1010D00001F0BFFA05F001020C34A18DA06A01F005
:1010E000B8FAA18EC5F34002206B01F0B2FAA18FCD
:1010F000C5F38002A06B01F0ACFAB4F84410C5F35C
:10110000C002206C01F0A5FAA1880022206801F03D
:10111000A0FA0120FFF792FFA1880122206801F0C8
:1011200098FA0120FFF78AFFA1880022206801F0C9
:1011300090FA0120FFF782FF06F00102A18DA06A5C
:1011400001F087FAA18EC6F34002206B01F081FA0C
:10115000A18FC6F38002A06B01F07BFAB4F84410B3
:10116000C6F3C002206C01F074FAA1880022206846
:1011700001F06FFA0120FFF761FFA18801222068CA
:1011800001F067FA0120FFF759FFA18854F80C0914
:10119000002201F05EFA0120FFF750FFBDE8F08168
:1011A00070B504460D4616462EB9218900226068A6
:1011B00001F04FFA06E0012E04D121890122606876
:1011C00001F047FA05F00102218B606901F041FA54
:1011D000218CC5F34002E06901F03BFA218DC5F393
:1011E0008002606A01F035FA218EC5F3C002E06A20
:1011F00001F02FFA218FC5F30012606B01F029FA7C
:10120000B4F84010C5F34012E06B01F022FAB4F8D4
:101210004810C5F38012606C01F01BFAEA09B4F8BB
:101220005010E06C01F015FA218A0022E06801F00C
:1012300010FA0120FFF702FF218A0122E06801F085
:1012400008FA0120FFF7FAFE218A0022E06801F087
:1012500000FA0120FFF7F2FE70BD70B504460D469E
:101260002078102805D1012229462046FFF798FF53
:1012700006E0207820B9012229462046FFF712FF18
:1012800070BD70B505460C4604E014F8011B2846F5
:10129000FFF7E3FF20780028F7D170BD1FB5104895
:1012A0001049114A114BCDE90032CDE90210104B23
:1012B000104A1149114800F04DF80E490F480088B6
:1012C00000F0CCF80E490D48008800F023F90C49D5
:1012D0000A48008800F016F800F044F91FBD00002D
:1012E000B0010020AC010020A00100209C010020E2
:1012F00098010020BE010020BA010020B4010020A6
:10130000B801002070B504460D46ACB94FF48061B9
:101310000E4801F08FF928B90D48008810B9012056
:101320000B4908804FF48061084801F083F90128D7
:1013300002D10020064908804FF48061034801F083
:1013400079F908B90020288070BD0000000802402B
:10135000360000202DE9FF5F0446894616461D46EB
:101360000EAF97E8800D4FF48051314801F062F9DB
:1013700010B901202F4908802E480088012854D137
:1013800001032B4801F056F901284ED100202949CC
:10139000088003F099FB208810B90120208001E02B
:1013A000002020802088012828D1A9F800002248A8
:1013B0000068286021480068386021480068C8F843
:1013C000000020480068CAF800001F480068CBF8F9
:1013D00000001D4802681B480368D8F800003968FF
:1013E000CDE90232CDE9001018482B68184902688F
:1013F000184800F0E1F90120308016E00E49286815
:1014000008600E49386808600D49D8F80000086087
:101410000C49DAF8000008600B49DBF800000860AE
:101420000220308004480C490860BDE8FF9F00009E
:101430000008024030000020380000203C0000205E
:101440004000002044000020480000205000002000
:1014500000FD010810F801084C00002070B5054699
:101460000C464FF40041244801F0E4F810B9012083
:10147000224908802148008801283CD1C1031E4828
:1014800001F0D8F8012836D100201C4908801C48FA
:10149000008868BB03F018FB2088062802D10120D1
:1014A000208002E02088401C20802088042801D170
:1014B000052020802088052801D10620208025B91C
:1014C0002088012801D1022020802088022802D112
:1014D0000C480D4908602088032802D10B480A49AE
:1014E00008602088062806D109480749086002E0FC
:1014F00000200349088070BD000002403200002037
:1015000054000020380000204C0000203C00002047
:101510004800002070B504460D46ACB94FF4006198
:101520000E4801F087F828B90D48008810B901204D
:101530000B4908804FF40061084801F07BF801284E
:1015400002D10020064908804FF40061034801F0F1
:1015500071F808B90020288070BD00000008024022
:10156000340000201CB51948008801280CD102F075
:1015700071FE02F079FE02F081FE0020144908801D
:10158000144908601149088013480088E8B902F03E
:1015900061FE02F069FE02F071FE00200C49088035
:1015A0000C4908600D48008878B908460068084969
:1015B0000988CDE900100848038801220849094834
:1015C00000F038F90120054908801CBDBA0100204F
:1015D000BC01002094010020B4010020C4010020BF
:1015E00000F4010800F0010810B5024800F069FDA0
:1015F00010BD00007802002010B490F840C0012413
:101600000CF01C0C04FA0CFCC46BC4F804C0D0F839
:1016100000C0CCF804304368102B05D003689960F3
:101620000068C26010BC704703689A600068C160BF
:1016300010BC70477047000010B50C4A0C490D48AB
:1016400002F012FF09480288094801880948008809
:1016500002F01AFA05480288054801880548008802
:1016600003F00CFB044803F091FA10BDCA010020FE
:10167000C8010020C6010020800300207047000040
:10168000074900224A6107490B6843F400730B6065
:101690000B6843F008030B6020F0FF000260704706
:1016A00068170020043C02400146086870470000AB
:1016B00000201F4A116811F4807F1E4904D0486938
:1016C00040F0020048619015136813F4007F05D0C4
:1016D0004B6943F001034B6140F40070136813F44D
:1016E000006F05D04B6943F004034B6140F4006088
:1016F000136813F4005F05D04B6943F010034B618E
:1017000040F40050136813F4805F05D04B6943F038
:1017100020034B6140F48050136813F4806F05D0B0
:101720004B6943F008034B6140F4806010607047E0
:10173000183C02406817002070B5044600F090FF86
:1017400006461C4D286810F0010F0ED0B4F1FF3F83
:1017500007D024B100F084FF801BA04201D90320F0
:1017600070BD286810F0010FF0D1286810F0020F4A
:1017700001D002202860286810F4807F13D12868E7
:1017800010F4006F0FD1286810F4005F0BD12868A7
:1017900010F4805F07D1286810F4806F03D12868A7
:1017A00010F4007F03D0FFF783FF012070BD0020FD
:1017B00070BD0000183C02402DE9FF5F04460D4655
:1017C00017461E46DDE910ABDDE90E8900F0FAFD93
:1017D000002001900294281B000A03900020009032
:1017E000694601A800F080FD3A462146022000F03B
:1017F000C9FD3246211D022000F0C4FD424604F11D
:101800000801022000F0BEFD4A4604F10C0102204E
:1018100000F0B8FD524604F11001022000F0B2FDC4
:101820005A4604F11401022000F0ACFD00F0A0FDC6
:10183000BDE8FF9F2DE9FF4704460D4617461E46AB
:10184000DDE90C8900F0BEFD002001900294281B08
:10185000000A039000200090694601A800F044FDB2
:101860003A462146022000F08DFD3246211D02201D
:1018700000F088FD424604F10801022000F082FDDC
:101880004A4604F10C01022000F07CFD00F070FDDE
:10189000BDE8FF872DE9F34F87B005464FF00108FB
:1018A000012006E008EB88014FF6FF7202EA4108CA
:1018B000401C0128F6DD4046FEF73CFE01900899E9
:1018C000FEF7E7FC0290FEF73AFE1FFA80FB9BFB57
:1018D000F8F008FB10B086B29BFBF8F087B24FF02F
:1018E0000109CA460A2006900590002400210898A4
:1018F000FEF782FE05D206B91FB12D202855601CC7
:1019000084B208E0069800EB80004000069009F1E0
:1019100001001FFA80F90698B6FBF0F00028F1D11B
:1019200008E0059800EB8000400005900AF10100F6
:101930001FFA80FA0598B7FBF0F00028F1D100BF3C
:101940000CE00A2196FBF1F201FB1261303104AA8E
:1019500011540A2196FBF1F18EB2401E0028F0DAF4
:10196000AAF101000CE00A2197FBF1F201FB1271D0
:10197000303103AA11540A2197FBF1F18FB2401EB6
:101980000028F0DA002005E003A9095C2955611C54
:101990008CB2401C5045F7DB2E202855601C84B2C9
:1019A000484604E030212955611C8CB2401C0128B6
:1019B000F8DB002005E004A9095C2955611C8CB204
:1019C000401C4845F7DB204602E020212954401CFA
:1019D0000428FAD909B0BDE8F08F000010B504461C
:1019E0000D4908682146FFF755FF0CA00CA188425D
:1019F00010D10948006800782D280BD1002007E09D
:101A000005490A68411C515C034A12681154401C84
:101A10000928F5DB10BD00006401002044430000EC
:101A2000414300007047000078B40024A446CDF87C
:101A300000C090F84820012A14D0012280F84820E4
:101A40004A681F25072A10D203681E6C521E02EB3B
:101A50008202954026EA05050E6806FA02F22A433C
:101A60001A643FE078BC022070470D2A0DD203684B
:101A7000DE6BD21F02EB8202954026EA05050E6856
:101A800006FA02F22A43DA632CE0132A0DD2036825
:101A90009E6B0D3A02EB8202954026EA05050E6820
:101AA00006FA02F22A439A631CE0192A0DD203684F
:101AB0005E6B133A02EB8202954026EA05050E683A
:101AC00006FA02F22A435A630CE003681E6B193AC5
:101AD00002EB8202954026EA05050E6806FA02F23C
:101AE0002A431A630A6807250A2A0CD203685E692A
:101AF00002EB4202954026EA05058E6806FA02F2DC
:101B00002A435A6120E0142A0DD203681E690A3A5A
:101B100002EB4202954026EA05058E6806FA02F2BB
:101B20002A431A6110E01A2A0DD80368DE68143AB5
:101B300002EB4202954026EA05058E6806FA02F29B
:101B40002A43DA6000E000BF0A68102A01D0112A97
:101B50001CD1114A136813F4000F17D1136843F412
:101B6000000313600968102910D10C490C4A096858
:101B7000B1FBF2F101EB810149000091009929B11B
:101B80000099491E009100990029F9D180F848C0B8
:101B9000204678BC7047000004270140D80100208F
:101BA00040420F0070477047704770B50446206888
:101BB000416811F0200F31D0016811F0020F2DD0D3
:101BC000E16C11F0100F03D1E16C41F40071E1649C
:101BD000816811F0405F1AD194F82410B9B9016BF3
:101BE00011F0F87F03D0816811F4806F0FD1416844
:101BF00021F020014160E06C20F48070E064E06C32
:101C000010F4805F03D1E06C40F00100E0642046F6
:101C1000FFF7C8FF21686FF0120008602068416874
:101C200011F0800F39D0016811F0040F35D0E16C4C
:101C300011F0100F03D1E16C41F40051E1648168AF
:101C400011F4401F22D1416C11F4401F03D0816870
:101C500011F4806F1AD1416811F4806F16D1816838
:101C600011F0405F12D194F8241079B9416821F045
:101C700080014160E06C20F48050E064E06C10F47E
:101C8000807F03D1E06C40F00100E0642046FFF764
:101C9000C9FE21686FF00C0008602068416811F0EF
:101CA000400F0ED0006810F0010F0AD0E06C40F435
:101CB0008030E064204600F0EBF821686FF001000E
:101CC00008602068416811F0806F0FD0016811F042
:101CD000200F0BD0216D41F0020121656FF020052E
:101CE00005602046FFF760FF2068056070BD0000BA
:101CF000F8B504460025002C03D0E06C002610B196
:101D000010E00120F8BD266584F848605B48016852
:101D100041F001010160006800F0010000902046E0
:101D200000F0B8F8E06C10F0100F02D00125284642
:101D3000F8BDE06C20F4885040F00200E0645048A8
:101D40000168626821F44031114301606169E06813
:101D50004FF40073084394F83C1093FAA3F3B3FADA
:101D600083F39940226A94F82430114308430221F6
:101D700091FAA1F1B1FA81F103FA01F10843616B23
:101D8000102902D0A26B114308432268116811F098
:101D9000400F28D1A1690843D4F81CC0A16841EACA
:101DA0000C0C2169B1F5807F0AD0012908D00021EF
:101DB0004CEA010194F82CC0BCF1010F03D00BE0F8
:101DC0004FF48071F4E76BB3E36C43F02003E364FA
:101DD000236D43F0010323655368DFF8A8C003EACD
:101DE0000C031943516021688A68274B1A4002434B
:101DF0008A602169B1F5807F22D0012920D0216835
:101E00000A6B22F0F8720A63216889681F4A114040
:101E1000814226D12665E06C20F0020040F00100EE
:101E2000E06484E7236B4FF4604C9CFAACFC5B1ECF
:101E3000BCFA8CFC03FA0CF3194341F40061CBE7C4
:101E400021680A6B4FF0F87C22F0F873A26A9CFAC2
:101E5000ACFC521EBCFA8CFC02FA0CF21A430A6368
:101E6000D2E7E06C20F0020040F01000E064206D4A
:101E700040F001002065012559E7000020380240AC
:101E800004270140FF16FCFC89F1FFC0FEFF80BF64
:101E90007047000010B586B00446142101A8FEF773
:101EA00095F928492068884249D100BF2648006832
:101EB00040F40070244908600846006800F400708F
:101EC000009000BF00BF00BF081F006840F0040082
:101ED000091F08600846006800F00400009000BF79
:101EE00000BF30200190032002900020039001A940
:101EF000164800F097FA1648164908600020486016
:101F00000021144881608021C1604900016189007D
:101F10004161202181610021C16100F03FF908B1D8
:101F2000FFF7ACFB00BF0B486064446200BF0022B7
:101F30001146122000F014FC122000F003FC06B041
:101F400010BD00000024014020380240000802407B
:101F500008600240780200202DE9F04104460E4658
:101F6000174694F84800012809D0012084F8480059
:101F70002046FEF789FE0546280003D04BE00220EC
:101F8000BDE8F081E06C20F0010020F4C06040F476
:101F90008070E0642068406810F4806F05D0E06CC9
:101FA00020F4005040F48050E064E06C10F4805F56
:101FB0004FF0000004D0216D21F00601216500E002
:101FC000206584F84800616C14488862616C14488C
:101FD000C862616C1348086321686FF022000860D2
:101FE0002068416841F0806141602068816841F467
:101FF0008071816020683B4600F158013246606C78
:1020000000F020F92068816811F0405F03D18168F9
:1020100041F0804181602846BDE8F081FD0B000859
:102020007F0C0008650C000890F82110002202299E
:1020300005D00421816380F82020012070470168C9
:102040000B6823F00E030B6001680B6823F001039B
:102050000B6090F84010D0F83CC001F01C03012147
:1020600001FA03F3CCF8043080F8211080F8202026
:102070001046704710B5002490F82110022903D0B3
:102080000421816301241AE001680A6822F00E022B
:102090000A6001680A6822F001020A6090F84010A4
:1020A000C36B01F01C02012101FA02F25A6080F8B0
:1020B0002110002180F82010416B01B18847204693
:1020C00010BDF0B4C16B0A6801680B6890F840C09D
:1020D00004240CF01C0C04FA0CF5154217D013F074
:1020E000040F14D00A6812F0200F03D10A6822F0FE
:1020F00004020A6090F84010C26B01F01C0104FA5F
:1021000001F15160C16A002945D0F0BC08470225A1
:1021100005FA0CF414424FF000064FF001041BD0F6
:1021200013F0020F18D00A6812F0200F05D10A68C8
:1021300022F00A020A6080F8214090F84010C26B39
:1021400001F01C0105FA01F1516080F82060816AFC
:10215000002920D0F0BC0847082505FA0CFC1CEA31
:10216000020F18D013F0080F15D00A6822F00E02E3
:102170000A6090F84010C26B01F01C0104FA01F1F2
:102180005160846380F8214080F82060016B002951
:1021900001D0F0BC0847F0BC7047000010B4002824
:1021A0000ED0224B0168224A99420CD2214B0B449B
:1021B000A2FB03321209920002641F4AC2630BE0C1
:1021C00010BC012070471D4B0B44A2FB03321209C7
:1021D000920002641A4AC263022280F821200A682F
:1021E0006FF30E12D0F808C04368046943EA0C0389
:1021F000D0F80CC04CEA040C43EA0C03D0F814C02D
:1022000043EA0C03D0F818C043EA0C03D0F81CC012
:1022100043EA0C031A430A6000218163012280F81B
:10222000212080F8201010BC002070470864024074
:10223000CDCCCCCCF89FFDBF00600240F89BFDBF29
:102240000064024070B50446002594F8200001287F
:102250000DD0012084F8200094F821C00020BCF1AA
:10226000010F06D084F820000225284670BD022008
:1022700070BD4FF0020C84F821C0A0632068D0F834
:1022800000C02CF0010CC0F800C02046FFF7B4F9E4
:10229000E06A28B12068016841F00E01016009E0A0
:1022A0002068016821F0040101602068016841F0A4
:1022B0000A0101602068016841F001010160D4E772
:1022C00070B5044600F0CCF90546B4F1FF3F02D0EA
:1022D00004484068044400F0C3F9401BA042FAD30C
:1022E00070BD0000DC0100202DE9F04105460F46DD
:1022F000DFF8748098F81000012808D0012088F8D1
:1023000010004CF25030FFF717FA18B126E0022007
:10231000BDE8F0814FF0FF3139606C68A96804EBCB
:102320000121A1421AD9114E2046FFF7A9F94CF21A
:102330005030FFF701FA316821F00801316031684F
:1023400021F40071316008B13C6007E004F580744D
:10235000AA68696801EB0221A142E5D8002188F84A
:102360001010BDE8F081000068170020043C024016
:102370000348016841F0020101600020704700003D
:10238000043C02402DE9F0410E4617460C4C207CDF
:10239000012808D0012020744CF25030FFF7CCF90E
:1023A000002518B108E00220BDE8F08165613760C2
:1023B0004CF25030FFF7C0F92574BDE8F081000001
:1023C000681700201048016811F0020F19D0016849
:1023D00011F0010F0AD00E490C4A0A600D4A0A603A
:1023E000016811F0010F01D0012070470B490A4A22
:1023F0000A600B4A0A60006810F0020F01D0012049
:102400007047002070470000043C0240EFCDAB89CC
:102410000C3C024005040302BFAE9D8C103C024000
:10242000161514132DE9F84F00220B68002B7CD0F1
:10243000DFF8F4A1DFF8EC914FF0010E03274FF025
:102440000F080AF1040B0B680EFA02F42340002B6C
:102450006CD091F804C00CF0030CBCF1010F02D059
:10246000BCF1020F18D185684FEA420C07FA0CF64E
:10247000B543CE6806FA0CFC4CEA050CC0F808C05F
:10248000D0F804C02CEA040C0C79C4F30014944076
:1024900044EA0C0CC0F804C0D1F804C037EA0C0CB4
:1024A0000CD0C4684FEA420C07FA0CF5AC438D68B7
:1024B00005FA0CFC4CEA040CC0F80CC091F804C0FE
:1024C0000CF0030CBCF1020F12D14FEAD20C00EB5E
:1024D0008C04256A4FEA427C4FEADC6C08FA0CF661
:1024E000B5430E6906FA0CFC4CEA050CC4F820C092
:1024F00004684FEA420C07FA0CF5AC430D7905F07D
:10250000030505FA0CFC4CEA040CC0F800C0D1F835
:1025100004C01CF4403F6FD0D9F800C04CF0010C4F
:10252000C9F800C0D9F800C001E06AE064E00CF02E
:10253000010CCDF800C022F0030C0CF1804505F52C
:102540008035D5F808C09407240F08FA04F62CEA61
:102550000606A0F1804CBCF5003C54D0A0F1804CA4
:10256000BCF5013C52D0A0F1804CBCF5023C50D0EF
:10257000A0F1804CBCF5033C4ED0A0F1804CBCF5E2
:10258000043C4CD04FF0050C0CFA04FC4CEA060C51
:10259000C5F808C0DAF800C02CEA030C4C6814F443
:1025A000803F01D04CEA030CCAF800C0DBF800C041
:1025B0002CEA030C4C6814F4003F01D04CEA030CE5
:1025C000CBF800C0194CD4F800C02CEA030C4D68BD
:1025D00015F4801F01D04CEA030CC4F800C0144C61
:1025E000D4F800C02CEA030C4D6815F4001F01D08C
:1025F0004CEA030CC4F800C0521C0B68D3407FF4B3
:1026000022AFBDE8F88F4FF0000CBDE74FF0010C92
:10261000BAE74FF0020CB7E74FF0030CB4E74FF006
:10262000040CB1E7203802400004014008040140D6
:102630000C0401400069084201D0012070470020CD
:102640007047426921EA0203114043EA0141816176
:102650007047002A01D08161704709048161704789
:102660000148806870470000DC0100200248816852
:102670004268114481607047DC01002010B50024DD
:10268000032000F0A1F8002000F008F808B10124B0
:1026900001E000F029F8204610BD000070B50546A5
:1026A00000240F4E7068002817D04FF47A71B1FBE8
:1026B000F0F00C490968B1FBF0F000F025FD08B11D
:1026C00001240BE0102D06D200222946501E00F0F6
:1026D00047F8356002E0012400E00124204670BD87
:1026E000DC010020D801002008B500BF14480068B4
:1026F00040F00040124908600846006800F00040C1
:10270000009000BF00BF00BF081F006840F001003C
:10271000091F08600846006800F00100009000BF33
:1027200000BF00BF081D006840F08050091D086010
:102730000846006800F08050009000BF00BF08BD50
:102740002438024000280ADB00F01F01012202FAAF
:1027500001F14009800000F1E020C0F8001170474D
:1027600010B4184B1B68C3F30223C3F1070CBCF170
:10277000040F01D94FF0040C1C1D072C01D20023BB
:1027800000E0DB1E012404FA0CFCACF1010C0CEAA5
:102790000101994004FA03F35B1E1A40114300281B
:1027A00006DB00F1E020090180F8001410BC70473E
:1027B00000F00F0000F1E020090180F8141D10BCAA
:1027C000704700000CED00E000F00700064A1168B9
:1027D0004FF6FF03194041EA002040F0FD7040F041
:1027E00080601060704700000CED00E02DE9F047BC
:1027F00004460D46002C0AD0DFF8E881D8F8000026
:1028000000F00100A8421BD2012D03D008E00120F6
:10281000BDE8F087D8F8000040F00400C8F80000D8
:10282000D8F8000020F001002843C8F80000D8F8CC
:10283000000000F00100A84202D00120BDE8F087AE
:102840002078694F10F0020F05D03868A16820F099
:10285000F00008433860207810F0010F7ED06068E7
:102860006249022808D003280DD0012812D0096837
:1028700011F4007F32D011E0096811F4003F0DD14E
:102880000120BDE8F087096811F0007F06D1012022
:10289000BDE8F087096811F0020F1CD0396821F0FB
:1028A000030108433860FFF7DBFE0646606841F22B
:1028B0008839022815D0032826D0012837D0386857
:1028C00010F00C0F4AD0FFF7CBFE801B484541D9D2
:1028D0000320BDE8F0870120BDE8F0870120BDE8B6
:1028E000F087386800F00C00082837D0FFF7B8FEF2
:1028F000801B484502D90320BDE8F087386800F006
:102900000C000828F2D129E038684FF00C0A3AEAA6
:10291000000023D0FFF7A4FE801B484502D9032006
:10292000BDE8F08738683AEA0000F3D116E038686D
:1029300000F00C00042811D0FFF792FE801B4845E0
:1029400002D90320BDE8F087386800F00C000428A5
:10295000F2D103E0386810F00C0FB4D1D8F80000C1
:1029600000F00100A84217D9012D05D1D8F80000C8
:1029700040F00400C8F80000D8F8000020F0010082
:102980002843C8F80000D8F8000000F00100A84271
:1029900002D00120BDE8F087207810F0040F05D0A8
:1029A0003868E16820F4E06008433860207810F06F
:1029B000080F06D03868216920F4605040EAC10051
:1029C000386000F041F83968094AC1F30311515CDD
:1029D000C8400849086008480068BDE8F047FFF7AC
:1029E0005DBE0000003C0240083802400038024052
:1029F000BD5D0008D8010020DC010020014800680E
:102A000070470000D801002000B5FFF7F7FF044928
:102A10000968044AC1F30221515CC84000BD0000AE
:102A200008380240CD5D000800B5FFF7E7FF044914
:102A30000968044AC1F3C221515CC84000BD0000CE
:102A400008380240CD5D000810B5184C21681848C0
:102A500001F00C02042A0ED0DFF858C0082A0BD06F
:102A60000C2A0BD0201F0068C0F34230401C4FF4EA
:102A7000004101FA00F010BD604610BD0E4AC1F3DE
:102A80008343D35CC1F381514A1C216811F4803F18
:102A900005D0A3FB0C010023FDF760FB10BDA3FBD9
:102AA00000010023FDF75AFB10BD0000083802406A
:102AB0000024F40000366E01B45D00082DE9F04FEB
:102AC00083B00446002C10D0FE48016801F00C05CC
:102AD000006800F480392078FB4E10F0010F67D0B9
:102AE000082D21D00C2D04D006E003B00120BDE854
:102AF000F08FB9F5803F17D0606801281ED010B361
:102B0000052829D0306820F480303060306820F407
:102B100080203060606888B3FFF7A2FD0746306808
:102B200010F4003F21D043E0306810F4003F3FD064
:102B3000606840BB03B00120BDE8F08F306840F40E
:102B400080303060E6E7306820F4803030603068F4
:102B500020F480203060DDE7306840F48020306071
:102B6000306840F480303060D4E7FFF779FDC01B57
:102B7000642804D903B00320BDE8F08F04E0306876
:102B800010F4003FF1D013E0FFF76AFD074630680C
:102B900010F4003F0CD0FFF763FDC01B642803D97D
:102BA00003B00320BDE8F08F306810F4003FF2D18D
:102BB0002078DFF818B3C64F10F0020F4FF001086D
:102BC0004FF0000A57D0042D10D00C2D02D1B9F1CE
:102BD000000F0BD0E068B0B3C7F80080FFF740FDEE
:102BE0008146306810F0020F15D022E0306810F0F6
:102BF000020F06D0E068012803D003B00120BDE831
:102C0000F08FDBF80000216920F4F85040EA012041
:102C1000CBF800002FE0FFF723FDA0EB090002280E
:102C200003D903B00320BDE8F08F306810F0020F25
:102C3000F1D0DBF80000216920F4F85040EA0120CF
:102C4000CBF8000017E0FFE7C7F800A0FFF708FD8A
:102C50008146306810F0020F0DD0FFF701FDA0EBA8
:102C60000900022803D903B00320BDE8F08F3068C3
:102C700010F0020FF1D1207810F0100F61D05DB18B
:102C8000A06988B3C7F82080FFF7EAFC8146306866
:102C900010F4007F56D063E0306810F4007F01D05C
:102CA000A06968B1206ADBF8001001F46041884235
:102CB0001BD901F0C3F938B103B00120BDE8F08F92
:102CC00003B00120BDE8F08FDBF80000216A20F49A
:102CD00060400843CBF80000217FDBF8000061F37F
:102CE0001F60CBF8000016E04AE0DBF8001021F48A
:102CF00060410843CBF80000217FDBF8000061F35E
:102D00001F60CBF80000206A01F098F918B101208B
:102D100003B0BDE8F08F206A4FF4004108EB50305B
:102D20008140684800686B4AC0F30310105C21FAC8
:102D300000F06949086069480068FFF7AFFC0028A7
:102D4000E6D134E0FFF78CFCA0EB0900022803D9A0
:102D500003B00320BDE8F08F306810F4007FF1D09D
:102D6000DBF80000216A20F460400843CBF8000043
:102D7000217FDBF8000061F31F60CBF8000016E054
:102D8000C7F820A0FFF76CFC8146306810F4007F84
:102D90000DD0FFF765FCA0EB0900022803D903B0B2
:102DA0000320BDE8F08F306810F4007FF1D1207867
:102DB000DFF82C9110F0080F35D04A486169C9B18D
:102DC000C0F80080FFF74CFC8346D9F8000010F0F3
:102DD000020F28D1FFF744FCA0EB0B00022803D917
:102DE00003B00320BDE8F08FD9F8000010F0020F07
:102DF000F0D018E0C0F800A0FFF732FC8346D9F805
:102E0000000010F0020F0ED0FFF72AFCA0EB0B0021
:102E1000022803D903B00320BDE8F08FD9F80000E1
:102E200010F0020FF0D1207810F0040F7BD04FF09B
:102E3000000B2D48006810F0805F0AD12A48016815
:102E400041F080510160006800F0805001904FF027
:102E5000010B2648016811F4807F1BD1006840F403
:102E6000807122480160FFF7FBFB02901F48006859
:102E700010F4807F0ED1FFF7F3FB0299401A64280B
:102E800003D903B00320BDE8F08F1848006810F4A0
:102E9000807FF0D0A068012831D048B3052844D005
:102EA000D9F8000020F48070C9F80000D9F80000BB
:102EB00020F48060C9F80000A068A8B3FFF7D0FB39
:102EC000029016E008380240003802400438024000
:102ED00000004742BD5D0008D8010020DC01002051
:102EE00034380240800647422438024000700040D7
:102EF0000CE0D9F8000010F4007F23D04DE0D9F8A1
:102F0000000040F48070C9F80000D5E7D9F800004F
:102F100020F48070C9F80000D9F8000020F4806027
:102F2000C9F80000C8E740E01EE0D9F8000040F40E
:102F30008060C9F80000D9F8000040F48070C9F83A
:102F40000000B9E7FFF78CFB0299411A41F2883083
:102F5000814203D903B00320BDE8F08FD9F8000007
:102F600010F4007FEED018E0FFF77AFB0290D9F85A
:102F7000000010F4007F10D0FFF772FB0299411A95
:102F800041F28830814203D903B00320BDE8F08FBD
:102F9000D9F8000010F4007FEED1BBF1010F04D18D
:102FA0003D48016821F080510160606AE8B30C2D52
:102FB00052D0022811D0C7F860A0FFF751FB044699
:102FC000306810F0007F62D0FFF74AFB001B022838
:102FD0003DD903B00320BDE8F08FC7F860A0FFF72C
:102FE0003FFB0546306810F0007F0CD0FFF738FB40
:102FF000401B022803D903B00320BDE8F08F3068DE
:1030000010F0007FF2D1E16AA06A226B01432348ED
:10301000036823F47D031A4311430160C7F86080FD
:10302000FFF71EFB0446306800E030E010F0007F40
:103030002DD1FFF715FB001B022803D903B0032095
:10304000BDE8F08F306810F0007FF2D01FE03068EC
:1030500010F0007FB8D11AE0012814D00F480068A2
:10306000A26A00F48031914209D1E26A00F4701141
:10307000914204D1216B00F44000884207D003B094
:103080000120BDE8F08F03B00120BDE8F08F03B050
:103090000020BDE8F08F00002438024008380240CC
:1030A00013480088012804D112480088401C1149A7
:1030B000088011480088012803D0104800880128A2
:1030C00005D10F480088401C0D49088004E000200D
:1030D0000B4908800B49088009480088B0F5FA7F41
:1030E00004DD08480088401C06490880704700003D
:1030F000280000202E0000202400002026000020B0
:103100002C0000202A000020401EB0F1807F01D357
:10311000012070474FF0E0214861044AF020107010
:1031200000208861072008610020704723ED00E03F
:1031300010B5FFF7B5FF10BD30B490F83820012A64
:1031400030D0012480F83840022280F8392002680B
:10315000D2F804C093682CF0700C0D6845EA0C0C92
:10316000C2F804C00268B2F1804F0ED0A2F1804CC8
:10317000BCF5806C09D0A2F1804CBCF5006C04D089
:10318000A2F1804CBCF5843C04D123F08003496853
:103190001943916080F83940002180F8381030BC24
:1031A0000020704730BC0220704710B50446002C48
:1031B00003D094F8390010B107E0012010BD0020C1
:1031C00084F83800204600F017F8022084F839000F
:1031D000211D206801F022FA012084F83E0084F8C5
:1031E0003A0084F83B0084F83C0084F83D0084F801
:1031F0003900002010BD000038B504462068B0F149
:10320000804F16D100BF1848006840F001001649F1
:1032100008600846006800F00100009000BF00BF91
:10322000002201211C20FFF79BFA1C20FFF78AFADD
:1032300019E00E492068884215D100BF0A4800688D
:1032400040F00200084908600846006800F00200EB
:10325000009000BF00BF002201211D20FFF780FA6F
:103260001D20FFF76FFA38BD2438024000040040EB
:1032700090F83910012901D001207047022180F80F
:1032800039100168CA6842F00102CA600068B0F1F2
:10329000804F14D0A0F18041B1F580610FD0A0F132
:1032A0008041B1F500610AD0A0F18041B1F58431CF
:1032B00005D0016841F0010101600020704781687C
:1032C00001F007010629F8D0016841F00101016011
:1032D000F3E770B5044694F83800012818D00125AA
:1032E00084F83850022084F839002068826822F07F
:1032F000770222F47F4282600868502832D00EDCC8
:1033000020284DD006DC00284AD010284DD147E0B7
:10331000022070BD302843D0402846D136E06028D6
:103320002AD0702806D0B0F5805F3ED0B0F5005F9F
:103330003BD10BE0CB684A688968206801F0B2F99C
:103340002068816841F0770181602EE0CB684A688F
:103350008968206801F0A6F92068816841F48041FD
:10336000816022E0CA684968206801F0AEF9502106
:10337000206801F0A2F918E0CA684968206801F0E5
:10338000B7F96021206801F098F90EE0CA68496831
:10339000206801F09AF94021206801F08EF904E0DC
:1033A00022680146104601F088F984F8395000205F
:1033B00084F8380070BD704770B504462068016914
:1033C0004FF0000511F0020F17D0C16811F0020F85
:1033D00013D0E91E0161012020762068806910F079
:1033E000030F03D02046FFF7E6FF05E0204600F07C
:1033F0007DF8204600F07BF825762068016911F001
:10340000040F18D0C16811F0040F14D06FF004013C
:103410000161022020762068806910F4407F03D08B
:103420002046FFF7C8FF05E0204600F05FF8204681
:1034300000F05DF825762068016911F0080F18D0BA
:10344000C16811F0080F14D06FF008010161042069
:1034500020762068C06910F0030F03D02046FFF7E4
:10346000AAFF05E0204600F041F8204600F03FF8B2
:1034700025762068016911F0100F18D0C16811F08D
:10348000100F14D06FF01001016108202076206821
:10349000C06910F4407F03D02046FFF78CFF05E0A1
:1034A000204600F023F8204600F021F82576206819
:1034B000016911F0010F09D0C16811F0010F05D0A9
:1034C0006FF001010161204600F012F820680169E7
:1034D00011F0400F09D0C16811F0400F05D06FF016
:1034E00040010161204600F05FF870BD70477047F1
:1034F0001CB50446204920680968884227D11F4826
:103500000088012804D11E480068401C1C4908603E
:103510001A48008820B900201A4908801849086014
:1035200018480088002812DD1548006878B1144852
:10353000006814490988CDE9001010480388012269
:1035400011491248FEF776F9002011490880114907
:103550002068096888420ED102220F490F48FEF701
:10356000FBFC0848008800900B48438802880C49FF
:103570000C48FDF785FA1CBDBC020020B4010020F8
:1035800094010020BC01002000F4010800F00108B3
:10359000C4010020FC020020D401002024020020ED
:1035A000D0010020CC010020704770477047000018
:1035B000F8B5044622681068D168536900F00F0C12
:1035C000BCF1000F0AD110F0200F07D011F0200F2E
:1035D00004D02046BDE8F84001F0DFB80025BCF17A
:1035E000000F6DD003F0010C01F490765CEA060642
:1035F00066D010F0010F06D011F4807F03D0226C4A
:1036000042F00102226410F0040F06D013F0010F03
:1036100003D0226C42F00202226410F0020F06D0A6
:1036200013F0010F03D0226C42F00402226410F068
:10363000080F08D001F0200252EA0C0203D0226CDD
:1036400042F008022264226C002A2FD010F0200FD2
:1036500005D011F0200F02D0204601F09EF820681E
:103660004069C0F38010216C11F0080F00D110B335
:10367000204601F06DF82068416911F0400F16D026
:10368000416921F040014161A06B60B1474941634C
:10369000A06BFEF7EFFC002808D0A06B416B01B0D7
:1036A000BDE8F04008472046FFF780FFF8BD204600
:1036B000FFF77CFFF8BD2046FFF778FF2564F8BDD3
:1036C000236B012B5BD110F0100F58D011F0100FAD
:1036D00055D010685068009050694FF0200310F0EA
:1036E000400F2ED0A16B0868406880B20028E6D059
:1036F000B4F82CC08445E2D9E0858869202818D028
:10370000D06820F48070D0602068416921F0010108
:1037100041612068416921F04001416184F83E30F7
:1037200025632068C16821F01001C160A06BFEF71D
:103730007BFCA08DE18D401A81B22046FFF735FF5A
:10374000F8BDA08DE18D401A81B2E08D0028F7D040
:103750000029F5D0D06820F49070D06020684269CC
:1037600022F00102426184F83E3025632068C2687D
:1037700022F01002C2602046FFF717FFF8BD10F0DC
:10378000800F07D011F0800F04D02046BDE8F8402C
:1037900001F027B910F0400FF0D011F0400FEDD03C
:1037A0002046BDE8F84000F0EBBF000041470008AC
:1037B00070B50446002C04D094F83D00002510B1EB
:1037C00006E0012070BD84F83C50204600F022F84D
:1037D000242084F83D002068C16821F40051C160B4
:1037E000204601F039F82068016921F49041016117
:1037F0002068416921F02A0141612068C16841F4D3
:103800000051C1602564202084F83D0084F83E000A
:10381000002070BD10B586B00446142101A8FCF745
:10382000D5FC1D492068884233D100BF1B48006881
:1038300040F40030194908600846006800F4003080
:10384000009000BF00BF00BF14480838006840F077
:1038500001001249083908600846006800F00100BC
:10386000009000BF00BF0C200190022002900020B9
:103870000390032004900720059001A90848FEF753
:10388000D1FD002202212620FEF76AFF2620FEF746
:1038900059FF06B010BD000000440040243802402B
:1038A0000000024090F83E30202B01D002207047EB
:1038B00059B152B190F83C30012B08D0012380F867
:1038C0003C300023036301F071B8012070470220EF
:1038D0007047000010B504460A492068096888420C
:1038E0000ED109480179C288C088401C064BD88097
:1038F00003F1080081540122011F0248FFF7D2FFA3
:1039000010BD00003C030020D80300202DE9F8433F
:1039100004460E4615461F4694F83D00202802D066
:103920000220BDE8F883C6B1BDB194F83C0001287F
:1039300016D0012084F83C004FF00009C4F84090F4
:10394000212084F83D00FEF78BFE8046A584E584A7
:10395000A068B0F5805F06D007E00120BDE8F883DD
:103960000220BDE8F883206980B13546002684F83E
:103970003C90E08CB8B1434600228021204600975D
:1039800001F05EF820B10320BDE8F8830025EEE7E2
:10399000A5B12168287848606D1CE08C401EE08449
:1039A000E08C0028E7D143460022402120460097C2
:1039B00001F046F848B10320BDE8F883308821685B
:1039C000C0F308004860B61CE7E7202084F83D00FB
:1039D0000020BDE8F883704700BFFEE710B504463D
:1039E000054801682046FCF707FE04D00248046041
:1039F00001200249088110BD8000002064010020E0
:103A000070B5049C164D2D68A84204D0144D286052
:103A10000125144E3581144D2D68A94204D0124D54
:103A200029600125114E3581114D2D68AA4204D01F
:103A30000F4D2A6001250F4E35810F4D2D68AB4289
:103A400004D00D4D2B6001250C4E35810C4D2D6899
:103A5000AC4204D00A4D2C6001250A4E358170BD60
:103A600060000020280100206400002034010020B4
:103A700068000020400100206C0000204C01002064
:103A8000700000205801002010B50E4B1B689342B7
:103A900004D00C4B1A6001230B4C23810B4B1B8869
:103AA0008B4204D0094B19800123094C2381094B17
:103AB0001B88834204D0074B18800123064C2381C6
:103AC00010BD0000840000201C01002088000020A0
:103AD000100100208A000020040100202DE9F05F81
:103AE00083460C4615461E460AAF97E88007012C10
:103AF00008D12889012805D12946584600F0C7F881
:103B000000202881022C08D13089012805D13146B6
:103B1000584600F0BCF800203081032C08D13889C9
:103B2000012805D13946584600F0B1F80020388107
:103B3000042C0AD1B8F80800012806D1414658469D
:103B400000F0A5F80020A8F80800052C0AD1B9F863
:103B50000800012806D14946584600F098F8002090
:103B6000A9F80800062C0AD1BAF80800012806D1E5
:103B70005146584600F08BF80020AAF80800BDE82E
:103B8000F09F2DE9F05F83460C4615461E460AAFAE
:103B900097E880072889012807D1012C05D12946FB
:103BA000584600F074F8002028813089012807D198
:103BB000022C05D13146584600F069F800203081CA
:103BC0003889012807D1032C05D13946584600F021
:103BD0005EF800203881B8F80800012808D1042CCC
:103BE00006D14146584600F052F80020A8F80800D7
:103BF000B9F80800012808D1052C06D149465846D5
:103C000000F045F80020A9F80800BAF808000128DB
:103C100008D1062C06D15146584600F038F800204D
:103C2000AAF80800BDE8F09F70B506460C46154698
:103C30002089012807D12146304600F028F80020CD
:103C400020810120288170BD2DE9F04107460E46F4
:103C500014461D463089012805D13146384600F00A
:103C600016F8002030812089012805D121463846E8
:103C700000F00DF8002020812889012805D129466F
:103C8000384600F004F800202881BDE8F08170B5C6
:103C900005460C46A27921792846FDF7D5F9284634
:103CA0002168FDF7EEFA70BD70B504460D46FEF7CB
:103CB000D7FC12490968401AB0F5FA6F05D9FEF72A
:103CC000CFFC0E49086000F0A7FBFEF7C9FC0B49CA
:103CD0000968401A642807D908210948FEF7AAFC98
:103CE000012801D100F0A2FA012C04D1042D02DA3E
:103CF00000F088FB01E000F08FFA70BD7C0100202D
:103D0000000402400EB500200090019002901E4871
:103D10001E4908600020486000211C488160C16085
:103D20004FF480710161002141618161C1610162D3
:103D300080F8241002218162002180F82C101021CB
:103D4000416300218163012180F83C10FDF7D0FF21
:103D500008B1FDF793FC0F2000900120019007208F
:103D6000029069460948FDF75FFE08B1FDF786FC41
:103D70000E2000900220019069460448FDF754FE91
:103D800008B1FDF77BFC0EBD002401402402002099
:103D900008B500BF0A48006840F080700849086014
:103DA0000846006800F08070009000BF00BF00224D
:103DB00011460B20FEF7D4FC0B20FEF7C3FC08BD18
:103DC0001C38024000B587B0142102A8FCF7FEF9A8
:103DD00000BF4F48006840F001004D4908600846A8
:103DE000006800F00100019000BF00BF00BF08465E
:103DF000006840F0040008600846006800F0040015
:103E0000019000BF00BF00BF0846006840F00200FC
:103E100008600846006800F00200019000BF00BF83
:103E200000BF0846006840F00800086008460068C7
:103E300000F00800019000BF00BF002248F23F01DF
:103E40003448FEF706FC00224FF470713248FEF74A
:103E500000FC00224FF480713048FEF7FAFB00228C
:103E600004212F48FEF7F5FB3F200290012003902C
:103E7000022004900020059002A92648FEF7D2FAFD
:103E80004FF4004002900120039000200490059020
:103E900002A92048FEF7C6FA4FF470700290012084
:103EA000039000200490059002A91B48FEF7BAFA7F
:103EB0004FF4807002900120039000200490059040
:103EC00002A91648FEF7AEFA4FF400400290002017
:103ED00003900120049002A91048FEF7A3FA4FF4C2
:103EE000E0500290002003900120049002A90A48AB
:103EF000FEF798FA0420029001200390002004901D
:103F0000059002A90648FEF78DFA07B000BD000033
:103F10001C38024000040240000802400000024039
:103F2000000C024000B587B000200390049005907B
:103F30000690019002904FF08040144908604FF4C1
:103F40007A50486000211148816040F2E731C16039
:103F5000002101614161FFF728F908B1FDF78EFBEF
:103F60004FF48050039003A90848FFF7B2F908B155
:103F7000FDF784FB00200190029001A90348FFF7A0
:103F8000DBF808B1FDF77AFB07B000BDBC020020EA
:103F900000B587B000200390049005900690019032
:103FA0000290144814490860A0204860002112487B
:103FB000816040F2E731C160002101614161FFF79A
:103FC000F4F808B1FDF75AFB4FF48050039003A9B1
:103FD0000948FFF77EF908B1FDF750FB002001907A
:103FE000029001A90448FFF7A7F808B1FDF746FBC6
:103FF00007B000BD00040040FC02002010B50B48D3
:104000000B4908604FF4E1304860002108488160A6
:10401000C16001610C21416100218161C161FFF733
:10402000C7FB08B1FDF72AFB10BD000000440040AB
:104030003C03002000BFFEE77047704781B00021BD
:10404000204A126812F0F00F25D11F4B1A6812F0A7
:10405000805F1E4A03D0126802F4C05214E0D3F805
:1040600000C04CF0805CC3F800C0D3F800C00CF076
:10407000805CCDF800C0126802F4C052D3F800C0D2
:104080002CF0805CC3F800C0B2F5C05F03D1B0F57E
:10409000404F00D101210E48012903D1026842F0AE
:1040A00004020260026822F001020A430260006812
:1040B00000F00100884202D0012001B070470020CA
:1040C00001B07047083802402438024000700040B8
:1040D000003C02402DE9F0473F48FDF7E5FA3F4933
:1040E00008800846008801281ED13B48001DFDF7C6
:1040F000DBFA3B49086038480830FDF7D5FA394902
:10410000086035480C30FDF7CFFA3749086032486F
:104110001030FDF7C9FA354908602F481430FDF713
:10412000C3FA334908602BE00022324B1046324973
:1041300001F02EF906460F4630480068FCF72CFACD
:10414000804632463B46FCF714F90446FCF70BFA6E
:10415000264908600022274B1046274901F018F92C
:1041600004460D4626480068FCF716FA0646224625
:104170002B46FCF7FEF88046FCF7F5F91C49086071
:104180002048FDF791FA2049088008460088012858
:104190001FD11C48001DFDF787FA1C4908801948EB
:1041A0000830FDF781FA1A49088016480C30FDF7EF
:1041B0007BFA1849086016480088012801D100F0F0
:1041C00035F913480088022803D100F02FF900F0D8
:1041D00037F9BDE8F087000010F80108C0010020A1
:1041E000980100209C010020A0010020AC010020CB
:1041F000B00100200000F03F00002440A401002096
:10420000A801002000F00108C2010020B401002034
:10421000BC0100209401002010B5002210210248AA
:10422000FEF717FA10BD00000004024010B500228E
:1042300008210248FEF70DFA10BD000000040240FC
:1042400010B5002220210248FEF703FA10BD00003D
:104250000004024010B5002201210248FEF7F9F9DE
:1042600010BD00000004024010B5002202210248E7
:10427000FEF7EFF910BD00000004024010B5002267
:1042800004210248FEF7E5F910BD000000040240D9
:104290002DE9F84F04460D4616461F46DDE90CABE6
:1042A000DDE90A891C4807601C48C0F800801C48EA
:1042B000C0F800901B48C0F800A01B48C0F800B030
:1042C000012C01D1012028800CB90220288012483D
:1042D00016490860144800680090124803681048A6
:1042E00002680E4801680C480068FFF789FB0E4819
:1042F000006800900B480368094802680748016895
:104300000548006800F0D2FC3046FCF713F9009035
:10431000FDF764FBBDE8F88F380000203C0000206A
:104320004000002044000020480000204C000020F5
:1043300010B52E48008848B900F078F82B4800885E
:10434000401C2A4908800020294908602748008825
:1043500001280FD12648006826490968884209D3F8
:1043600000F06EF821480088401C20490880002099
:104370001F4908601D48008802280FD11C480068AA
:104380001D490968884209D3FFF76EFF1748008866
:10439000401C164908800020154908601348008811
:1043A00003280FD11248006812490968884209D3CE
:1043B000FFF750FF0D480088401C0C490880002082
:1043C0000B4908600948008804280DD10B48006893
:1043D000C0EB0010800006490968884204D800201C
:1043E000034908600149088010BD0000BC0100209D
:1043F00094010020A0010020980100209C010020D1
:104400007047000010B5012210210248FEF721F983
:1044100010BD00000004024010B50122082102482E
:10442000FEF717F910BD00000004024010B501228C
:1044300011460248FEF70DF910BD000000040240CD
:1044400010B5012202210248FEF703F910BD000059
:104450000004024010B5012204210248FEF7F9F8D9
:1044600010BD000000040240F0B53C233C24194D6F
:10447000194E36684FF46167B6FBF7F6068006887A
:10448000C6EB0616B600C6EB0616134F3F68A7EB41
:1044900086063C27B6FBF7F60E800688C6EB0616A6
:1044A000B600C6EB06160C4F3F88A7EB86060F88B2
:1044B000C7EB0717A6EB87061680074E36682F4610
:1044C000BE4205D30026044F3E6006800E80168053
:1044D000F0BD0000805101009401002008B50C4897
:1044E000006800900B480C4A0C4903680C4800F027
:1044F00073FC0A480088012804D100F00BF9FFF78B
:10450000A9FF03E0FFF79CFEFFF7B8FE08BD00001F
:10451000B0010020D0010020BC010020B801002023
:10452000B401002010B5FEF7A1F8FEF701FE10BDA2
:1045300000B593B0342106A8FBF748FE142101A86A
:10454000FBF744FE1348006820F4C05040F40060BC
:1045500010490860022006900120099010200A905E
:1045600000200F9006A8FEF7A9FA08B1FDF786F81B
:104570000F200190012002900020039004900590EC
:10458000002101A8FEF732F908B1FDF777F813B062
:1045900000BD0000007000401448006840F48070C6
:1045A00012490860114808300068114908400F4955
:1045B000083108600D4800680E4908400B49086042
:1045C0000846006820F48020086008480830006829
:1045D00020F47D000549083108600020091D0860AD
:1045E0004FF0006004490860704700000038024046
:1045F0000CC0FF88FEFFFEEE08ED00E010B502489B
:10460000FEF7DAFE10BD0000BC02002010B5024823
:10461000FEF7D2FE10BD0000FC02002070B402685C
:10462000DFF870C01C4B1D4C1D4DB0F1804F07D002
:10463000604505D0984203D0A04201D0A84203D1E2
:1046400022F070024E683243B0F1804F11D06045C5
:104650000FD098420DD0A0420BD0A84209D0A0F1B3
:104660008043B3F5863304D0A0F18043B3F588339B
:1046700003D122F44072CB681A430B6922F0800206
:104680001A4302608A68C26209688162012141613D
:1046900070BC70470004004000080040000C00405F
:1046A00000080140D0F808C02CF47F4C42EA0322F5
:1046B000114341EA0C0181607047826822F0700268
:1046C000114341F0070181607047036AD0F820C0B0
:1046D0002CF0010CC0F820C0D0F818C02CF0F00C61
:1046E0004CEA021223F00A03194382610162704707
:1046F000036A23F010030362D0F818C0036A2CF495
:10470000704C4CEA023223F0A00343EA01118261AB
:104710000162704710B5FDF7A3FF07490968401A09
:10472000642807D9FDF79CFF03490860202103484E
:10473000FDF787FF10BD000080010020000402404B
:1047400010B5406A0021C185C184FEF72FFF10BD5E
:104750000168CA6822F49072CA6001684A6922F04E
:1047600001024A61016B012904D10168CA6822F083
:104770001002CA60202180F83E10002101637047BA
:1047800010B50168CA6822F04002CA60202180F892
:104790003D10FFF720F9002010BD08B590F83E103D
:1047A000222901D0022008BD8268B2F5805F01D1C4
:1047B000016929B1816AB2F5805F1DD052B10BE069
:1047C000816A02685268C2F308020A80816A891C01
:1047D000816209E002697AB10268526802F07F02E0
:1047E0000A70816A491C8162C18D491E0904090C45
:1047F000C18505D0002008BD026852680A70F0E744
:104800000168CA6822F02002CA600168CA6822F4FE
:104810008072CA6001684A6922F001024A6120215F
:1048200080F83E10016B012903D0FFF753F80020F8
:1048300008BD002101630168CA6822F01002CA6045
:1048400001680A6812F0100F02D00A6849680091E6
:10485000818DFEF7AAFEEAE72DE9F04104462068C3
:104860000169E26821F44051114301612169A068A6
:10487000E26908436169114301432068C26822F478
:10488000037222F414421143C16020684169A26995
:1048900021F44071114341612068A0F18041B1F5DC
:1048A0009C3142D0FEF7B0F8E1693F4A3223B1F5BE
:1048B000004F3DD000EBC00101EB001061688900A2
:1048C000B0FBF1FCA2FB0C6CB0FBF1F54FEA5C1CF9
:1048D0006FF018060CFB06FC05EB8C0C03EB0C1CB4
:1048E000A2FB0C5C4FEA5C1C0CF0F005B0FBF1FC89
:1048F000A2FB0C6C4FEA5C1C05EB0C1CB0FBF1F549
:10490000B0FBF1F0A2FB001040096FF01801484322
:1049100005EB800003EB0010A2FB00102168C0F340
:10492000431060448860BDE8F081FEF77DF8BBE786
:1049300000EBC00101EB001061684900B0FBF1FC25
:10494000A2FB0C5C4FEA5C1C4FEA0C15B0FBF1FCBF
:10495000A2FB0C7CB0FBF1F64FEA5C1C6FF0180771
:104960000CFB07FC06EB8C0C03EBCC0CA2FB0C6CD9
:104970004FEA5C1C0CF0F80C05EB4C0CB0FBF1F5AD
:10498000B0FBF1F0A2FB00104009784305EB80007A
:1049900003EBC000A2FB00102168C0F3421060448A
:1049A0008860BDE8F08100001F85EB51816282853F
:1049B000C28500210164222280F83E2080F83C104C
:1049C0000168CA6842F48072CA6001684A6942F0AC
:1049D00001024A610068C16841F02001C160002005
:1049E000704790F83D10212901D00220704781685E
:1049F000B1F5805F01D1016961B1016A4A1C0262AF
:104A0000026809785160C18C491E0904090CC184EF
:104A10000AD013E0016A02680988C1F308015160F5
:104A2000016A891C0162EEE70168CA6822F080020F
:104A3000CA600068C16841F04001C1600020704751
:104A40002DE9F0410446069D884617461E4620681B
:104A5000006838EA000020D00020B84227D1B5F124
:104A6000FF3F1CD025B1FDF7FBFD801BA84216D9E6
:104A70002068C16821F4D071C1602068416921F0CB
:104A800001014161202084F83D0084F83E000020AF
:104A900084F83C000320BDE8F0810120DDE72068B8
:104AA000006838EA000005D00020B842D7D00020C6
:104AB000BDE8F0810120F8E710B50248FEF778FD67
:104AC00010BD00003C03002001200C4908810C4966
:104AD00008810C4908810C4908810C4908810C495E
:104AE00008810C4908810C4908810C4908810C494E
:104AF00008810C4908810C4908817047C8000020D2
:104B0000D4000020E0000020EC000020F80000208D
:104B10007001002028010020340100204001002005
:104B20004C010020580100206401002070B50446AB
:104B30000D461646024A03492046FFF775F870BD38
:104B4000A40000209800002028B90749098911B95C
:104B50000121064A1181012805D10449098911B9A9
:104B60000121014A1181704798000020A400002013
:104B700070B504460D46034A03492046FFF754F832
:104B800070BD000098000020A400002010B504466D
:104B9000034B044A04492046FFF756F810BD0000B5
:104BA0001C010020100100200401002070B5054602
:104BB0000C460E48008840B9012C06D10C49284605
:104BC000FFF765F801200949088008480088012896
:104BD0000AD14CB907492846FFF759F80120064980
:104BE000088100200149088070BD00007400002089
:104BF000B0000020BC000020980000207FB50546D2
:104C00000E4614462046FEF7E9FE2046FCF7E6FE77
:104C10000E480F490F4A104BCDE90032CDE9021082
:104C20000E4B0F4A31462846FEF7ABFF0D480E49A2
:104C30000E4A0F4BCDE90032CDE902100D4B0E4A62
:104C400031462846FEF74AFF7FBD0000F8000020ED
:104C5000EC000020E0000020D4000020C80000206C
:104C600070010020580100204C010020400100206C
:104C700034010020280100206401002070B50446A2
:104C80000E4615462146064800F06AF831460548AA
:104C900000F066F8A9B2044800F062F870BD0000A8
:104CA0008C0000208F000020920000202DE9F041B0
:104CB00004460F4615461E46DDF8188021460F486B
:104CC00000F02AF839460E4800F026F829460D482B
:104CD00000F022F80C49304600F05AF80B494046E3
:104CE00000F056F8084801680948FCF7D3FD07486A
:104CF00001680848FCF7CEFDBDE8F081EC0100201A
:104D0000F5010020FE010020780000207C0000203A
:104D1000070200201002002070B501220A2404E0DE
:104D200004EB84035C00531C9AB2B1FBF4F3002B38
:104D3000F6D1531E0AE00A25B1FBF5F605FB161560
:104D40003035C5540A25B1FBF5F15B1E002BF2DAB4
:104D50002023835420261346551CAAB2C65470BD86
:104D60000A2905DA3022027001F1300242700BE0AC
:104D70000A2291FBF2F2303202700A2291FBF2F326
:104D800002FB131230324270002282707047000022
:104D90002DE9F84F83468A4600220C4B10460C49F9
:104DA00000F0F6FA06460F465846FBF7C3FB0090A4
:104DB000FBF7F2FB804632463B46FBF74CFB0446D2
:104DC000FBF7FDFBCAF80000BDE8F88F0000F03FDC
:104DD0000000244000BFFEE72DE9F04105460C46E7
:104DE00016461F46DDF81880288801281DD1308816
:104DF00002281AD11448006830B9FDF731FC134974
:104E00000860022010490860FDF72AFC0F49096874
:104E1000401A40F2DC5188420AD90B480068022847
:104E200006D101200849086002E000200649086018
:104E300005480068012805D1474501D2208001E0DE
:104E400000202080BDE8F0818C010020900100202E
:104E5000490050EAC12018BF04204A0D18BF40F095
:104E6000010040F2FF72B2EB515F08BF40F0020058
:104E7000012808BF052070472DE9F0414F1E00EBC7
:104E8000C7010446D1E9000115461E4637F0060267
:104E90000DD02A463346FBF76CFA7F1E04EBC7039E
:104EA000D3E90023FBF765FC37F00602F1D1022FAE
:104EB00025D0042F13D0062F18BFBDE8F0812A4655
:104EC0003346FBF756FAD4E90A23FBF752FC2A468D
:104ED0003346FBF74EFAD4E90823FBF74AFC2A468F
:104EE0003346FBF746FAD4E90623FBF742FC2A4691
:104EF0003346FBF73EFAD4E90423FBF73AFC2A4693
:104F00003346FBF736FAD4E90223FBF732FC2A4694
:104F10003346FBF72EFAD4E90023BDE8F041FBF756
:104F200028BC00000022134610460149FBF793BA43
:104F30000000F03FFBF71DBC00221346104611464F
:104F4000FBF789BA40F2013200204FF0E041FBF755
:104F5000B7BC0000024A00201107FBF7B1BC0000FB
:104F600001FDFFFF02E008C8121F08C1002AFAD1A4
:104F700070477047002001E001C1121F002AFBD1D9
:104F8000704700000149086070470000E8010020F8
:104F900070B505460C4616469CB96448008880B931
:104FA0004FF47A73062262A12846FEF7AFFC4FF455
:104FB0007A73022260A12846FEF7A8FC01205B4913
:104FC0000880012C14D159480088012810D14FF4D1
:104FD0007A73072259A12846FEF798FC4FF47A739A
:104FE000022255A12846FEF791FC00204F49088077
:104FF00004215448FDF71EFB012813D152480088B4
:1050000080B94FF47A73092250A12846FEF77EFC3E
:105010004FF47A73022248A12846FEF777FC01205C
:105020004949088004214748FDF704FBA0B94648D8
:105030000088012810D14FF47A730A2246A128462D
:10504000FEF764FC4FF47A7302223BA12846FEF778
:105050005DFC00203C49088002213A48FDF7EAFA4D
:10506000012813D13F48008880B94FF47A73092290
:105070003DA12846FEF74AFC4FF47A7302222EA186
:105080002846FEF743FC01203649088002212D48BE
:10509000FDF7D0FAA0B933480088012810D14FF4A9
:1050A0007A730A2233A12846FEF730FC4FF47A7354
:1050B000022221A12846FEF729FC00202949088068
:1050C00001212048FDF7B6FA012813D12C480088A9
:1050D00080B94FF47A7309222AA12846FEF716FCFC
:1050E0004FF47A73022214A12846FEF70FFC012028
:1050F0002349088001211348FDF79CFAA0B92048F4
:105100000088012810D14FF47A730A2220A1284682
:10511000FEF7FCFB4FF47A73022207A12846FEF744
:10512000F5FB00201649088070BD000056000020E5
:105130000A536574757000000D0A000052756E6E9A
:10514000696E6700000402405A00002052656C61DD
:1051500079335F4F4E00000052656C6179335F4FC9
:10516000464600005C00002052656C6179325F4F5A
:105170004E00000052656C6179325F4F4646000078
:105180005E00002052656C6179315F4F4E00000077
:1051900052656C6179315F4F464600008CB06248C1
:1051A00062490860FDF76AFAFFF7C2F9FEF70AFEE6
:1051B000FEF7EEFDFEF7A6FDFEF7B4FEFEF71EFFBE
:1051C000FEF7E6FE5A48FEF753F85A48FEF750F845
:1051D00004225649091D5448FEF764FB4FF48070C1
:1051E00055494200554BCDE90732CDE909108022DF
:1051F000CDE90332CDE9053040204202CDE900235C
:1052000002904F4B022210214E48FBF7A5FEFEF7FD
:1052100061FF002211464B48FBF716FF4AA149489F
:10522000FCF72FF84D4800684D4909684D4A12684F
:105230004D4B1B68CDE90032CDE902104B480368A5
:105240004B484C4902684C480088FFF721F802227D
:105250004A494B48FCF780FE65E0FCF7EDF9494808
:105260000288454801883048FFF792FEFCF716F89F
:105270004448018840480088FEF716FD42480188EE
:105280003048FFF793FCFFF729F93B48008890BBB3
:1052900000203D49088037480088042803D035485D
:1052A0000088FBF737FD39480068FBF748F90446EA
:1052B0002A4800682A4909682A4A12682A4B1B684A
:1052C000CDE90032CDE90210284822462949036879
:1052D0002948FBF76BFD28480088FFF735FC254877
:1052E00001881848FFF744FC2848026821480188D3
:1052F0001448FFF783FC20480088012813D1FFF7EA
:1053000017F81D480088FFF71FFC2048026819485D
:1053100001880C48FFF70AFC1C4802681548018800
:105320000848FFF76BFC98E73C030020D8030020F7
:10533000BC020020FC0200200000024000080240E5
:105340000004024080030020202020202020202074
:1053500030303A30303A303000000000B0010020E8
:10536000AC010020A00100209C0100209801002039
:10537000D0010020BE010020B4010020D401002093
:1053800024020020BC010020B6010020CC01002036
:105390002DE9F04D1D460C4698B0174621F000410E
:1053A00023F00043002814BF4FF0010C4FF0000C15
:1053B0000CEB440CFE4A0CEB02064FEA620C66450D
:1053C0002BD33E0018BF012606EB45061644F94ACA
:1053D000964222D3F84A53EA070C02D0944205D1F0
:1053E00048B918B000201146BDE8F08D002808BF6C
:1053F0004FF0000C01D04FF0010C0CEB440212F501
:10540000001F0AD8002F14BF4FF0010C4FF0000C02
:105410000CEB450212F5001F07D918B03A462B468F
:105420002146BDE8F04DFFF785BD0022DFF88CA3D3
:10543000002CB8BF534526DADFF884C36345A8BF04
:10544000022220DADFF870C39C451CDCDFF874C34D
:105450000CEB235CBCF1140F08DDCCF1340627FA09
:1054600006FC0CFA06F6BE420DD108E05FB9CCF19D
:10547000140623FA06FC0CFA06F69E4203D10CF041
:105480000102C2F1020251EA000C19D1002D17DA13
:10549000002C18BF022A01D0012A07D00220FFF7F2
:1054A00071FD18B0BDE8F04DFFF73CBD0220FFF7DD
:1054B00069FDFFF737FD18B081F00041BDE8F08DC0
:1054C000B7F1000C6CD1534525D104F1804212F59F
:1054D000801201BF00280020B74918B008BFBDE8FE
:1054E000F08DB548884207DC002DA1BF60462946F3
:1054F00018B0BDE8F08D07E0281E05DA80F0004105
:1055000018B06046BDE8F08DAF497944D1E900019B
:1055100018B0BDE8F08DDFF8A0C2634525D1002D9D
:105520001FDA19B1514512D1D8B909E0002840F06D
:10553000EC82A24A214618B062F31E01BDE8F08D4C
:105540000020214618B060F31E01BDE8F08D08DA96
:1055500018B02346BDE8F04D024600206146FAF738
:105560007ABF18B02146BDE8F08D514518DAB5F183
:10557000804F0DD0A5F1005CBCF1FF5C10D1B4F1FF
:10558000000C0DDB18B06146BDE8F04D00F0ECBB3F
:10559000234618B00246BDE8F04D1946FAF7E9BEB9
:1055A000060024F0004C3BD1D9B1514533D1002C39
:1055B00006DD002DA1BF0020514618B0BDE8F08DDA
:1055C000002C01DD002D1BDB002C13DA002D11DB7C
:1055D000012A4FF0000014BF78497C4918B0BDE89B
:1055E000F08D022A18BF002C0AD0012A08D1002C05
:1055F00006DA0AE0002CB8BF002D11DA012A04D027
:10560000002018B00146BDE8F08D18B000204FF022
:105610000041BDE8F08DA1F14050B0F17F601AD09B
:10562000012000EBE47050EA020421D0624C521ECB
:105630004FF0000B104304BF4FF0000B644C654863
:1056400083427CDD644A654893421FDD884217DB54
:10565000002D25DB37E0002C00DA4AB1022A0CBF0E
:1056600001204FF0FF3018B0BDE8F04DFBF73FB917
:105670000120FFF787FC18B0BDE8F04DFFF75CBCD8
:105680004D4A8A4202DC002D0ADC1CE0814202DA2B
:10569000002D18DA04E0484B994220DD002D12DD80
:1056A0000220FFF76FFCFFF74DFC05460E46002277
:1056B000534658462146FAF75CFE18B066F31E01C1
:1056C0002846BDE8F08D0220FFF75CFCFFF742FCA6
:1056D0000A46214618B062F31E01BDE8F08D002293
:1056E00030466146FBF7E6F880460E466FF0010251
:1056F000FBF7E6F84FF05532394BFBF7DEF8424640
:105700003346FAF736FE0022364BFBF7D6F88246D0
:1057100042463346049110461946FAF72AFE52468D
:10572000049BFAF726FE8A4600904FF0C0422E4BAB
:1057300040463146FAF71DFE2C4A2B4B00E027E08D
:10574000CDE9060151460098FAF713FE8246019111
:10575000274A284B40463146FAF70BFE5246019B3A
:10576000FBF7A8F882460B4602460591DDE90601E3
:10577000FAF7FFFFDDE90623002688463046FBF7EF
:1057800099F85246059BFBF798F8024600F07EB95F
:105790000020B1F5801F07DA352230466146FBF75D
:1057A0008FF806466FF0340000EB215024E0000033
:1057B000FFFF1F00FFFF0F000000F03F0000F07F21
:1057C0000000404301FCFFFF520900000000F0FF11
:1057D0000000F0BF0000E0410000F043FFFFEF3F9A
:1057E0005555D53F0000E03F4715F73FFE822B653A
:1057F00044DF5DF80BAE543EA0F2FF300190C1F3E0
:10580000130040F07F6141F040510291FE4988420F
:10581000D8BF002004DDFD498142C8BF012001DD61
:105820000D9008E000200D900198401C0190029816
:10583000A0F5801002900299F54878440B910D99DB
:1058400000EBC100D0E900230F9330460A920B9978
:10585000FBF730F8CDE90601DDE90A2130460F9B60
:10586000FAF787FF02460B460020EA49FAF7F3FDF4
:10587000059102460B460090DDE90601FAF779FD35
:105880001490E5488A464FF0000878440299006871
:1058900012904FF0005040EA61010D980F9B01EB10
:1058A000804000F5002109910A9A1298FBF702F84E
:1058B00032460B9BFBF701F842465346FAF759FD77
:1058C0000646029140465146099B129AFAF751FD4D
:1058D000DDE90623FAF7F1FF3246029BFAF7EAFF09
:1058E000059B009AFAF745FD0091149A04905346DF
:1058F00010461946FAF73DFD06460246C7480B46D4
:10590000029106217844FFF7B7FACDE90510029B12
:10591000324610461946FAF72CFDDDE90532FAF752
:1059200028FD05910646534640461946149AFAF753
:1059300020FF009B049AFAF71CFD3246059BFAF7FC
:1059400018FFCDE905104246534610461946FAF7AE
:1059500010FD0022B24B02910A90FAF70AFFDDE92E
:105960000532FAF706FF0E464246AD4B4046FAF7BF
:10597000A1FF029B0A9AFAF79DFFDDE90532FAF7CB
:105980009CFF424602910A90334610465146FAF770
:10599000F0FCCDE906015346149A02990A98FAF7E9
:1059A000E8FC8A4602903346424600990498FAF78A
:1059B000E0FC5346029AFAF7DCFE82460B460246AA
:1059C0000591DDE90601FAF7D4FEDDE906230020A2
:1059D00088460646FAF76EFF5246059BFAF76DFFBA
:1059E000824609914FF060428E4B30464146FAF7AD
:1059F000C0FC049006918C4A8A4B50460999FAF7EC
:105A0000B8FC82460291894A894B30464146FAF7F2
:105A1000B0FC5246029BFAF7ACFE864B7B440D9AD3
:105A200003EBC203D3E90023FAF7A3FE0E9007911C
:105A30000198FAF75CFF0591DDE9061382460E9A9C
:105A40000498FAF796FE7C4A7A440D9B02EBC30356
:105A5000D3E9002300930292FAF78BFE5246059B8E
:105A6000FAF787FE0026884652463046059BFAF72D
:105A700021FF009B029AFAF71DFF069B049AFAF792
:105A800019FF079B0E9AFAF718FF024600200B46F3
:105A9000029038462946FAF76CFC824601912B4663
:105AA00038461946029AFAF705FF32464346FAF796
:105AB00060FC5246019BFAF75CFE07468A46324676
:105AC000434629460298FAF754FC05460E463A46E4
:105AD0005346FAF74EFE594A8846914221DBA8EB1D
