:020000040800F2
:10000000881B0020390100088D400008193A0008BB
:1000100089400008C90E00082550000800000000B3
:100020000000000000000000000000007144000813
:10003000AD150008000000008F400008E1450008F1
:100040005301000853010008530100085301000840
:100050005301000853010008530100085301000830
:100060005301000853010008530100086D150008F2
:100070005301000853010008530100085301000810
:100080005301000853010008550B000853010008F4
:1000900053010008530100085301000853010008F0
:1000A000000000005301000853010008530100083C
:1000B000B9460008C946000853010008530100086A
:1000C00053010008530100085301000853010008C0
:1000D0005301000853010008FD4C000853010008BB
:1000E00053010008530100085301000853010008A0
:1000F00053010008000000005301000853010008EC
:100100000000000000000000530100085301000837
:1001100053010008530100085301000800000000CB
:1001200053010008DFF80CD000F0EAFB004800475C
:10013000CD540008881B0020064880470648004729
:10014000FEE7FEE7FEE7FEE7FEE7FEE7FEE7FEE787
:10015000FEE7FEE75546000825010008D2B201E09F
:1001600000F8012B491EFBD270470022F6E710B5BC
:1001700013460A4604461946FFF7F0FF204610BD15
:10018000F0B480EA0102D40F4200B2EB410F02D278
:100190000246084611464A0042D0C30DDDB2C1F303
:1001A000C752AD1A202D35DAC1F3160141F4000211
:1001B00004B15242C5F1200602FA06F12A41104468
:1001C000B3EBD05F23D0C4B1012DA0EBC35009DC49
:1001D000F0BC4FF0004202EAC352DBB200F500006F
:1001E00000F0D4BA400000F1807000EBC350A0F1E1
:1001F000807040EAD170490009E0490841EAC071C5
:10020000A0EBC35000F50000400800EBC350F0BC69
:1002100000F0B3BA6142012202EB4101001BF6E794
:10022000F0BC704781F00041AAE780F00040A7E7EA
:1002300080EA010210B502F00043400022D04A00DB
:100240001FD0010E01EB1261C0F35600C2F356023B
:1002500040F4000042F40002A0FB022000047F39B9
:10026000140400D0401C50EA124001D44000491E42
:10027000C2B20C0604EBD010401C4008802A02D009
:1002800003E0002010BD20F00100002900DA00206A
:10029000184310BD30B480EA010202F0004530F08E
:1002A000004221F0004013D090B1C30DD40DC2F331
:1002B0001601C0F31600E41A41F4000140F40002F4
:1002C0007D34914201D3641C00E04900002C02DA25
:1002D00030BC002070474FF400000023914201D34E
:1002E000891A034340084FEA4101F7D151B19142C5
:1002F00002D14FF0004105E002D24FF0010101E0D0
:100300006FF0010103EBC450284430BC00F035BA53
:100310002DE9FE4F804681EA0300C00F0C46009095
:1003200021F0004123F00045B8EB0200A94105D2BD
:100330004046214690461C460B46024623F00040AC
:10034000104347D0270DC7F30A00C3F30A510290A8
:10035000401A019040286BDAC3F3130040F4801B6D
:100360000098924620B10023D2EB030A63EB0B0BFB
:1003700001985946C0F14002504600F0CDF90646BA
:100380000D4650465946019A00F0E5F910EB080079
:100390006141002487EA115284EAE7731A4340D08E
:1003A000009A62B3019A012A4FEA075215DC001B3A
:1003B00061EB02014FF0004202EA0752CDE9004230
:1003C000001C41F5801132462B4600F01CFA03B0A8
:1003D000BDE8F08F40462146F9E7001B61EB0201C2
:1003E000001C41F5801300185B412018A2F500178E
:1003F00047EB030140EAD570B6196D4111E06D0875
:100400004FEA360645EAC0754FEA0752001B61EB1A
:100410000201001C41F5801149084FEA3000001923
:10042000514132462B4603B0BDE8F04F00F0DCB935
:100430000098012240000023D0EB020263EBE0733E
:10044000009821464FEAE074B8EB000061EB04012C
:10045000E9E783F000435BE781F0004158E72DE9CD
:10046000FE4F81EA030404F0004421F000410094AF
:100470004FF0000B23F0004350EA01045ED052EA33
:1004800003045BD0C3F30A54C1F30A552C44A4F20D
:10049000F3340194A0FB0254C1F3130141F4801121
:1004A000C3F3130343F4801301FB024400FB034E28
:1004B000840A970A44EA815447EA8357A4FB0768F1
:1004C00002958D0A05FB07854FEA932C04FB0C541B
:1004D0002705029D4FEA065847EA1637B5EB08058F
:1004E0006EEB070C870E920E47EA811742EA8312E1
:1004F000A7FB0201B6EB0B0164EB00042B0D43EAF2
:100500000C335E1844EB1C50DA465146E7FB0201FF
:10051000C5F313044FEA0B3343EA14534FEA043292
:10052000019C43EA0603A4F10C040294009CCDE96B
:1005300000B400F068F903B0BDE8F08F0020014678
:10054000F9E72DE9F04D81EA030404F0004B21F0B6
:10055000004514464FF0000A23F0004150EA05021E
:1005600020D054EA01021DD0C5F30A570246C5F354
:100570001303C1F31300C1F30A5640F4801543F48A
:100580008013A7EB0608101BD64608F2FD3873EB64
:10059000050002D308F1010801E092185B41B8F1AF
:1005A000000F03DA00200146BDE8F08D00204FF473
:1005B0008011064684460EE0171B73EB050705D332
:1005C000121B63EB050306434CEA010C49084FEA92
:1005D000300092185B4150EA0107EDD152EA030066
:1005E00012D082EA040083EA0501084305D0101BFB
:1005F000AB4106D20122002306E000224FF0004367
:1006000002E06FF0010253101AEB06004CEB0851A8
:1006100010EB0A0041EB0B01BDE8F04D00F0E4B82F
:1006200096230022114600F0B1B80EB5C10F80EA42
:10063000E0700844CA07002140F233438DE80E0001
:100640000A460B4600F0DFF803B000BD20F0004082
:10065000C10DC0F3160040F400007F2901DA00202C
:100660007047962903DCC1F19601C840704796395E
:1006700088407047C1F30A5210B5C1F3130140F22C
:10068000FF3341F480119A4201DA002010BD40F29C
:1006900033439A42A2F2334203DC524200F04BF859
:1006A00010BD904010BD00F0004230F000400AD074
:1006B000C10D01F56071C0F3160042EA0151C20894
:1006C00040071143704700200146704701F0004386
:1006D00030B421F0004150EA010206D00A0DA2F523
:1006E0006072C1F31301002A02DC30BC00207047A5
:1006F000440F44EAC104C100E01830BC00EBC25012
:1007000000F03BB8002801DBC0F10040002901DB0C
:10071000C1F1004181427047202A04DB203A00FAEF
:1007200002F1002070479140C2F1200320FA03F348
:10073000194390407047202A04DB203A21FA02F046
:100740000021704721FA02F3D040C2F1200291400B
:10075000084319467047202A06DBCB17203A41FA96
:1007600002F043EAE07306E041FA02F3D040C2F13E
:10077000200291400843194670470029A8BF7047DE
:10078000401C490008BF20F00100704710B4B0FAC7
:1007900080FC00FA0CF050EA010404BF10BC704762
:1007A00049B1CCF1200421FA04F411FA0CF118BF7C
:1007B000012121430843A3EB0C01CB1D4FEA00614B
:1007C0004FEA102042BF002010BC704700EBC3501E
:1007D00010440029A4BF10BC7047401C490008BF4A
:1007E00020F0010010BC704710B5141E73F1000416
:1007F00008DA401C41F1000192185B411A4301D113
:1008000020F0010010BD2DE9F04D92469B4611B13C
:10081000B1FA81F202E0B0FA80F220329046FFF79E
:100820007BFF04460F4640EA0A0041EA0B015346AB
:100830005A46084313D0114653EA010019D0C8F1B3
:1008400040025046FFF777FF05460E465046594690
:100850004246FFF761FF084305D0012004E020462F
:100860003946BDE8F08D0020054346EAE0762C438A
:1008700037430A986305E40AA0EB08000022FD0A4A
:1008800044EA47540A3002D500200146E9E7010551
:1008900010196941DDE9084500196941BDE8F04DCD
:1008A000A2E770B521F0004303430CD0C1F30A5511
:1008B0000024D5EB040564EB0403D617AD1AB3414D
:1008C00002DB0020014670BD201841EB025170BDD3
:1008D00030B5041E71F1000404DB4FF000444042C7
:1008E00064EB0101141E73F1000405DB1C464FF09C
:1008F0000043524263EB0403994208BF904230BD6B
:10090000064C074D06E0E06840F0010394E807005C
:1009100098471034AC42F6D3FFF708FC4C6200084D
:100920006C6200082DE9F04D00231A461B1A8A411B
:1009300003DB00200146BDE8F08DC1F30A52C1F38C
:10094000130141F480154FF0000BD10702D10018BC
:100950006D41521E0027044640F2FF11384601EB5C
:10096000620A3E468046024600204FF48011FFF79F
:10097000E2FEC2197141BB1846EB0100B4EB030C57
:1009800075EB000C04D3E41A65EB000517460E4620
:10099000241908F101006D4180463428E3DDF9197E
:1009A00046EB0600091BA84103D24FF0FF32134665
:1009B00001E0002213461BEB070046EB0A51BDE89D
:1009C000F04DFFF711BF70B58C1810F8015B15F0F2
:1009D000070301D110F8013B2A1106D110F8012BB1
:1009E00003E010F8016B01F8016B5B1EF9D12B07D6
:1009F00005D40023521E0DD401F8013BFAE710F88C
:100A0000013BCB1A921C03E013F8015B01F8015B78
:100A1000521EF9D5A142D8D3002070BD2DE9FC5F4C
:100A200004468A46934699463F48006800EB4900D1
:100A30003E49098808443C4908603D4800685844DC
:100A40003B4908603B480088401C3A4908800846FA
:100A50000088192866D1364800680988B0FBF1F093
:100A60003349086034480068FFF7DAFD064630482D
:100A70000068FFF7D5FD07463146FFF70BFC05463A
:100A80002E4801682846FFF7D3FB2D490860264809
:100A9000006828490988B0FBF1F02349086026481E
:100AA0000068FFF7BDFD06461F480068FFF7B8FD68
:100AB00007463146FFF7EEFB054620480168284609
:100AC000FFF7B6FB1F4908601D4801681D48006814
:100AD000FFF7A8FB05461C4801682846FFF7DAFB2C
:100AE00020600022194B1046194904F0EDFD05461F
:100AF0000E462068FFF7D7FD07462A463346FFF724
:100B0000AEFCCDE90001FFF7B5FDCAF800000020FA
:100B1000084908800A4908600A49086004490860D1
:100B200001490860BDE8FC9F080000200200002089
:100B30001000002000000020040000201800002009
:100B4000140000200C0000201C0000200000F03FDA
:100B50000000244010B5024801F03FF810BD00002D
:100B60003802002070B505466C6AE06C00F0500059
:100B700058BBE06C40F40070E0642068806800F0CE
:100B80004050F0B994F82400D8B92068006B00F008
:100B9000F87020B12068806800F4806088B920680F
:100BA000406820F0200021684860E06C20F48070EC
:100BB000E064E06C00F4805018B9E06C40F0010093
:100BC000E064204601F006F803E0606C016B284603
:100BD000884770BD70B505466C6AE06C40F0400017
:100BE000E064206D40F004002065204600F0F4FF32
:100BF00070BD70B50446656A284600F0ECFF70BD14
:100C000038B5044600250020009020680068C0F335
:100C1000801090BB2068806840F0010021688860E7
:100C2000174800681749B0FBF1F000EB4000009056
:100C300002E00098401E009000980028F9D101F0D1
:100C40004BFD054613E001F047FD401B02280ED97D
:100C5000E06C40F01000E064206D40F00100206581
:100C600000BF002084F8480000BF012038BD206884
:100C70000068C0F380100028E5D00020F6E70000EF
:100C8000F801002040420F0038B504461B482146B9
:100C900002681B4800F07DF8184821460268194890
:100CA00000F06CF8154822464FF4006103681648BE
:100CB00000F0DEF8114822464FF4806103681248C4
:100CC00000F076F811480068009011480368114858
:100CD0000268114801681148006802F0B1FE0B4833
:100CE000006800900A4803680A4802680A480168D8
:100CF0000A48006804F002F938BD000050000020E6
:100D0000380000203A000020000802404C0000207B
:100D10004800002044000020400000203C0000204B
:100D20002DE9FF5F04460D4616461F46DDE910AB70
:100D3000DDE90E890D48008800900D4803882246A1
:100D40004FF400410B4800F05FF8208801280AD1D9
:100D50008DE8000F20883B463246294603F0D4FA3E
:100D6000012005490880BDE8FF9F00003A000020EF
:100D70003800002000000240580000200388012BAA
:100D800006D1136813B113685B1E1360022303803E
:100D9000704710B50388012B09D142F20F74136814
:100DA000A34202D213685B1C13600223038010BDB0
:100DB0002DE9F04105460E4617461C4631462846A9
:100DC00001F074FC80B901200D4908800D480088AD
:100DD000322809DD206838B100200A4908802068DF
:100DE00010B12068401E20603146284601F05EFCAC
:100DF000012802D1002002490880BDE8F0810000EE
:100E000022000020260000202DE9F04107468846F8
:100E100014461D46069E4146384601F047FC90B9EF
:100E2000208880B97DB976B901200F4908800F4824
:100E30000088B0F5FA6F06DD0120208000200B4904
:100E40000880094908804146384601F02FFC0128F6
:100E500003D0012D01D0012E04D1002003490880C8
:100E600001490880BDE8F081240000202A0000200C
:100E70002DE9F04105460E4617461C4631462846E8
:100E800001F014FC88B901200D4908800D48008844
:100E900032280ADD00200B49088042F20F712068D9
:100EA000884202D22068401C20603146284601F06A
:100EB000FDFB012802D1002001490880BDE8F08136
:100EC000200000202600002000BFFEE72DE9F05F93
:100ED00004460D4616461F46DDE90CABDDE90A89DE
:100EE0000020383404F8380C04F8375C04F8366C09
:100EF00044F8347C24F8308C44F82C9C24F828AC3A
:100F000044F804BC0E9820800F98606010982081EF
:100F10001198E060129820821398606114982083E1
:100F2000282060770620A0760C20E0761420207719
:100F3000383C322000F03CF800223321204600F0FB
:100F40006BF8052000F034F800223321204600F031
:100F500063F8052000F02CF800223221204600F032
:100F60005BF8052000F024F894F852100022204687
:100F700000F052F894F853100022204600F04CF88C
:100F800094F854100022204600F046F894F85510CA
:100F90000022204600F040F800220121204600F007
:100FA0003BF800220221204600F036F8BDE8F09F11
:100FB00010B50446204601F0CFF910BDF8B504463F
:100FC0000D461646002713A0006800906078A842DE
:100FD00002DC6078401EC5B2A078B04202DCA07886
:100FE000401EC6B21DF806002844C7B2207810285B
:100FF00006D147F080010022204600F08BF807E080
:10100000207828B947F080010022204600F004F83B
:10101000F8BD0000004014542DE9F04104460F468D
:1010200090463D113E46B8F1000F05D121890022BE
:10103000606801F04BFB07E0B8F1010F04D1218992
:101040000122606801F042FB05F001020C34A18D21
:10105000A06A01F03BFBA18EC5F34002206B01F0BA
:1010600035FBA18FC5F38002A06B01F02FFBB4F814
:101070004410C5F3C002206C01F028FBA1880022B7
:10108000206801F023FB0120FFF792FFA1880122D5
:10109000206801F01BFB0120FFF78AFFA1880022D6
:1010A000206801F013FB0120FFF782FF06F0010228
:1010B000A18DA06A01F00AFBA18EC6F34002206B4D
:1010C00001F004FBA18FC6F38002A06B01F0FEFAD1
:1010D000B4F84410C6F3C002206C01F0F7FAA188FE
:1010E0000022206801F0F2FA0120FFF761FFA188D9
:1010F0000122206801F0EAFA0120FFF759FFA188D8
:1011000054F80C09002201F0E1FA0120FFF750FF2A
:10111000BDE8F08170B504460D4616462EB921890A
:101120000022606801F0D2FA06E0012E04D1218984
:101130000122606801F0CAFA05F00102218B6069A2
:1011400001F0C4FA218CC5F34002E06901F0BEFA57
:10115000218DC5F38002606A01F0B8FA218EC5F3D3
:10116000C002E06A01F0B2FA218FC5F30012606B91
:1011700001F0ACFAB4F84010C5F34012E06B01F096
:10118000A5FAB4F84810C5F38012606C01F09EFA1D
:10119000EA09B4F85010E06C01F098FA218A0022B4
:1011A000E06801F093FA0120FFF702FF218A012293
:1011B000E06801F08BFA0120FFF7FAFE218A002295
:1011C000E06801F083FA0120FFF7F2FE70BD70B510
:1011D00004460D462078102805D1012229462046D4
:1011E000FFF798FF06E0207820B901222946204623
:1011F000FFF712FF70BD70B505460C4604E014F809
:10120000011B2846FFF7E3FF20780028F7D170BDC7
:101210001FB510481049114A114BCDE90032CDE9F4
:101220000210104B104A1149114800F04DF80E49B8
:101230000F48008800F0CCF80E490D48008800F0F7
:101240002BF90C490A48008800F016F800F04CF918
:101250001FBD0000C4010020C0010020B401002017
:10126000B0010020AC010020D2010020CE010020FE
:10127000C8010020CC01002070B504460D46ACB971
:101280004FF480610E4801F011FA28B90D4800882A
:1012900010B901200B4908804FF48061084801F023
:1012A00005FA012802D10020064908804FF4806128
:1012B000034801F0FBF908B90020288070BD000048
:1012C000000802403A0000202DE9FF5F04468946ED
:1012D00016461D460EAF97E8800D4FF480513148F9
:1012E00001F0E4F910B901202F4908802E48008848
:1012F000012854D101032B4801F0D8F901284ED11F
:1013000000202949088003F001FD208810B9012040
:10131000208001E0002020802088012828D1A9F821
:101320000000224800682860214800683860214891
:101330000068C8F8000020480068CAF800001F488C
:101340000068CBF800001D4802681B480368D8F805
:1013500000003968CDE90232CDE9001018482B6849
:1013600018490268184800F001FA0120308016E0A0
:101370000E49286808600E49386808600D49D8F899
:10138000000008600C49DAF8000008600B49DBF83F
:10139000000008600220308004480C490860BDE865
:1013A000FF9F000000080240340000203C000020A5
:1013B0004000002044000020480000204C00002095
:1013C0005400002000FD010810F801085000002022
:1013D00070B505460C464FF40041264801F066F909
:1013E00010B90120244908802348008801283FD1F2
:1013F000C103204801F05AF9012839D100201E49C3
:1014000008801E48008878BB03F080FC20880628EE
:1014100002D10120208002E02088401C208025B9D4
:101420002088012801D1022020802088022802D1B2
:101430001348144908602088032802D11248114932
:1014400008602088042802D110480E4908602088CE
:10145000052802D10E480B4908602088062807D1CC
:101460000C480849086003E0FFE7002003490880B2
:1014700070BD00000000024036000020580000202F
:101480003C000020500000204000002044000020CC
:10149000480000204C00002070B504460D46ACB951
:1014A0004FF400610E4801F001F928B90D48008899
:1014B00010B901200B4908804FF40061084801F081
:1014C000F5F8012802D10020064908804FF4006198
:1014D000034801F0EBF808B90020288070BD000037
:1014E00000080240380000201CB519480088012877
:1014F0000CD102F0EBFE02F0F3FE02F0FBFE002046
:10150000144908801449086011490880134800886C
:10151000E8B902F0DBFE02F0E3FE02F0EBFE002091
:101520000C4908800C4908600D48008878B90846C5
:10153000006808490988CDE900100848038801229D
:101540000849094800F050F90120054908801CBDF0
:10155000CE010020D0010020A8010020C8010020F9
:10156000D801002000F4010800F0010810B502487D
:1015700000F0DEFD10BD00008C02002030B590F8B8
:10158000404004F01C050124AC40C56B6C6004684D
:1015900063604468102C04D10468A2600468E160B0
:1015A00003E00468A1600468E26030BD7047000099
:1015B00010B50C4A0C490D4802F098FF0948028802
:1015C000094801880948008802F07EFA0548028827
:1015D000054801880548008803F078FC044803F0BA
:1015E000FBFB10BDDE010020DC010020DA01002041
:1015F00088030020704700000021094A5161094911
:10160000096841F40071074A11601146096841F008
:1016100008011160002120F0FF02116070470000F6
:1016200070170020043C0240014608687047000023
:1016300000202749096801F48071B1F5807F07D146
:101640002449496941F00201224A516140F4807005
:101650001F49096801F40071B1F5007F07D11D49E8
:10166000496941F001011B4A516140F40070184979
:10167000096801F40061B1F5006F07D115494969A6
:1016800041F00401134A516140F4006010490968B7
:1016900001F40051B1F5005F07D10E49496941F0ED
:1016A00010010C4A516140F400500949096801F4E5
:1016B0008051B1F5805F07D10649496941F02001A9
:1016C000044A516140F480500149086070470000AD
:1016D000183C02407017002070B5044600F0FCFF73
:1016E000054609E0601C38B124B100F0F5FF401B4D
:1016F000A04201D9032070BD1B48006800F0010022
:101700000028EFD11848006800F00200022801D13B
:10171000154908601448006800F48070B0F5807FB7
:101720001BD01148006800F40060B0F5006F14D0C1
:101730000D48006800F40050B0F5005F0DD00A4875
:10174000006800F48050B0F5805F06D0064800685D
:1017500000F40070B0F5007F03D1FFF769FF0120AE
:10176000C9E70020C7E70000183C02402DE9FF5FF1
:1017700004460D4617461E46DDE910ABDDE90E892D
:1017800000F07AFE002001900294281B000A0390CA
:1017900000200090694601A800F0F2FD3A4621467B
:1017A000022000F03FFE3246211D022000F03AFEEA
:1017B000424604F10801022000F034FE4A4604F1DA
:1017C0000C01022000F02EFE524604F1100102200E
:1017D00000F028FE5A4604F11401022000F022FE17
:1017E00000F016FEBDE8FF9F2DE9FF4704460D46B9
:1017F00017461E46DDE90C8900F03EFE00200190F0
:101800000294281B000A039000200090694601A85A
:1018100000F0B6FD3A462146022000F003FE3246B3
:10182000211D022000F0FEFD424604F108010220C5
:1018300000F0F8FD4A4604F10C01022000F0F2FD30
:1018400000F0E6FDBDE8FF872DE9F34F87B00546C0
:101850004FF00108012006E008EB88014FF6FF7207
:1018600002EA4108401C0128F6DD4046FEF7D8FE9A
:1018700001900899FEF7DCFC0290FEF7E7FE1FFAE4
:1018800080FB9BFBF8F008FB10B086B29BFBF8F0E6
:1018900087B24FF00109CA460A200690059000243D
:1018A00000210898FEF72EFF05D206B91FB12D20A2
:1018B0002855601C84B208E0069800EB80004000C8
:1018C000069009F101001FFA80F90698B6FBF0F0C6
:1018D0000028F1D108E0059800EB80004000059059
:1018E0000AF101001FFA80FA0598B7FBF0F0002812
:1018F000F1D100BF0CE00A2196FBF1F201FB12616D
:10190000303104AA11540A2196FBF1F18EB2401E27
:101910000028F0DAAAF101000CE00A2197FBF1F2AD
:1019200001FB1271303103AA11540A2197FBF1F126
:101930008FB2401E0028F0DA002005E003A9095C00
:101940002955611C8CB2401C5045F7DB2E202855D0
:10195000601C84B2484604E030212955611C8CB2D9
:10196000401C0128F8DB002005E004A9095C29558A
:10197000611C8CB2401C4845F7DB204602E0202168
:101980002954401C0428FAD909B0BDE8F08F0000A2
:1019900010B504460D4908682146FFF755FF0CA015
:1019A0000CA1884210D10948006800782D280BD17D
:1019B000002007E005490A68411C515C034A12688F
:1019C0001154401C0928F5DB10BD00006C010020FB
:1019D000444300004143000005480068054988422F
:1019E00002D30020024908600148006870470000E7
:1019F00030000020009C57FC7047000038B50246BC
:101A000000230020009000BF92F84800012801D177
:101A1000022038BD012082F8480000BF486807282E
:101A200012D21068006C0C79641E04EB84051F242C
:101A3000AC40A0430D796D1E05EB85050C68AC40EC
:101A400020431468206453E048680D2812D21068BF
:101A5000C06B0C79E41F04EB84051F24AC40A04349
:101A60000D79ED1F05EB85050C68AC40204314682B
:101A7000E0633DE04868132812D21068806B0C794F
:101A80000D3C04EB84051F24AC40A0430D790D3DB3
:101A900005EB85050C68AC4020431468A06327E083
:101AA0004868192812D21068406B0C79133C04EB7B
:101AB00084051F24AC40A0430D79133D05EB85053B
:101AC0000C68AC4020431468606311E01068006B40
:101AD0000C79193C04EB84051F24AC40A0430D791C
:101AE000193D05EB85050C68AC4020431468206364
:101AF00008680A2810D2106840690C7804EB440585
:101B00000724AC40A0430D7805EB45058C68AC403C
:101B10002043146860612CE00868142812D2106811
:101B200000690C780A3C04EB44050724AC40A04350
:101B30000D780A3D05EB45058C68AC4020431468E0
:101B4000206116E008681A2812D81068C0680C785E
:101B5000143C04EB44050724AC40A0430D78143D2D
:101B600005EB45058C68AC4020431468E06000E05C
:101B700000BF0868102802D0086811281DD112483B
:101B8000006800F40000C0B90F48006840F400008D
:101B90000D4C2060086810280FD10C4800680C4CD0
:101BA000B0FBF4F000EB80004000009002E00098F1
:101BB000401E009000980028F9D100BF002082F854
:101BC000480000BF184624E704270140F801002020
:101BD00040420F0070477047704710B504462068B8
:101BE000406800F02000202838D12068006800F00C
:101BF0000200022832D1E06C00F0100018B9E06C4D
:101C000040F40070E0642068806800F04050F0B953
:101C100094F82400D8B92068006B00F0F87020B167
:101C20002068806800F4806088B92068406820F0EF
:101C3000200021684860E06C20F48070E064E06C73
:101C400000F4805018B9E06C40F00100E0642046D8
:101C5000FFF7C0FF6FF0120021680860206840683D
:101C600000F08000802842D12068006800F0040065
:101C700004283CD1E06C00F0100018B9E06C40F48E
:101C80000050E0642068806800F4401040BB206889
:101C9000406C00F4401020B12068806800F480603F
:101CA000F0B92068406800F48060C8B92068806896
:101CB00000F04050A0B994F8240088B9206840682A
:101CC00020F0800021684860E06C20F48050E064DF
:101CD000E06C00F4807018B9E06C40F00100E06442
:101CE0002046FFF789FE6FF00C002168086020682D
:101CF000406800F0400040280FD12068006800F0E4
:101D0000010050B1E06C40F48030E064204600F007
:101D10000DF96FF00100216808602068406800F04C
:101D20008060B0F1806F14D12068006800F020005E
:101D300020280ED1206D40F0020020656FF02000B9
:101D4000216808602046FFF747FF6FF020002168F8
:101D5000086010BDF8B504460027002600250CB920
:101D60000120F8BD206918B194F82C0000B100BF23
:101D7000606B102800D000BFE06CA0B90020206587
:101D800084F8480000BF6448006840F001006249E0
:101D900008600846006800F00100009000BF00BF26
:101DA000204600F0C5F8E06C00F01000002878D163
:101DB000E06C20F4885040F00200E064574800686E
:101DC00020F4403061680843544908606169E06864
:101DD000084394F83C104FF4007292FAA2F2B2FA5F
:101DE00082F291400843216A084394F824100222A9
:101DF00092FAA2F2B2FA82F2914008430543606B74
:101E0000102803D0D4E90D01084305432068006879
:101E1000C0F38010A0BBA0690543E169A068084336
:101E20002169B1F5807F02D02169012902D14FF4E7
:101E3000807100E000210843064394F82C0001283B
:101E400017D194F8240060B9206B401E4FF4604114
:101E500091FAA1F1B1FA81F1884040F400600643A3
:101E600007E0E06C40F02000E064206D40F00100ED
:101E70002065206840682A4908403043216848604E
:101E800020688068274908402843216888602069C5
:101E9000B0F5807F02D02069012803D14FF4807013
:101EA00001E035E00020B0F5807F10D12068006BA4
:101EB00020F0F871A06A401E4FF0F87292FAA2F278
:101EC000B2FA82F2904001432068016305E0206885
:101ED000006B20F0F8702168086320688068124960
:101EE0000840A84208D100202065E06C20F00200E4
:101EF00040F00100E0640CE0E06C20F0020040F0F3
:101F00001000E064206D40F001002065012700E032
:101F10000127384625E70000203802400427014009
:101F2000FF16FCFC89F1FFC0FEFF80BF7047000078
:101F300010B586B00446142101A8FEF716F9284909
:101F40002068884249D100BF2648006840F40070EC
:101F5000244908600846006800F40070009000BF43
:101F600000BF00BF081F006840F00400091F0860A0
:101F70000846006800F00400009000BF00BF302059
:101F80000190032002900020039001A9164800F060
:101F9000A5FA164816490860002048600021144838
:101FA00081608021C1604900016189004161202177
:101FB00081610021C16100F03BF908B1FFF71AFB14
:101FC00000BF0B486064446200BF0022114612202B
:101FD00000F00EFC122000F0FBFB06B010BD00006C
:101FE00000240140203802400008024008600240FE
:101FF0008C0200202DE9F04104460D4616460027CC
:1020000000BF94F84800012802D10220BDE8F08109
:10201000012084F8480000BF2046FEF7F1FD074686
:10202000002F4FD1E06C40F20161884340F4807092
:10203000E0642068406800F4806028B1E06C20F41F
:10204000005040F48050E064E06C00F48050B0F543
:10205000805F04D1206D20F00600206501E00020A3
:10206000206500BF002084F8480000BF1648616C5E
:1020700088621648616CC8621548616C08636FF02D
:102080002200216808602068406840F08060216874
:1020900048602068806840F4807021688860226809
:1020A00002F1580133462A46606C00F007F92068B7
:1020B000806800F0405028B92068806840F0804077
:1020C000216888603846A1E7650B0008F30B00081B
:1020D000D50B000870B50446002594F821000228AD
:1020E00003D00420A063012520E02068006820F0D0
:1020F0000E00216808602068006820F00100216857
:10210000086094F8400000F01C0101208840E16B59
:102110004860012084F8210000BF002084F82000DE
:1021200000BF606B10B12046616B8847284670BDC8
:1021300070B50446E06B05682068066894F84000B6
:1021400000F01C01042088402840E0B106F00400A3
:10215000C8B12068006800F0200028B92068006835
:1021600020F004002168086094F8400000F01C0191
:1021700004208840E16B4860E06A002856D0204681
:10218000E16A884752E094F8400000F01C01022008
:102190008840284018B306F0020000B320680068A9
:1021A00000F0200040B92068006820F00A00216893
:1021B0000860012084F8210094F8400000F01C0120
:1021C00002208840E16B486000BF002084F82000B6
:1021D00000BFA06A50B32046A16A884726E094F861
:1021E000400000F01C01082088402840F0B106F0B3
:1021F0000800D8B12068006820F00E00216808604F
:1022000094F8400000F01C0101208840E16B486018
:102210000120A06384F8210000BF002084F8200082
:1022200000BF206B10B12046216B884770BD0000B5
:10223000014609B9012070471E4B086898420BD22D
:102240001D4B0868C01A1423B0FBF3F0800008642B
:1022500019480838C8630AE0164B0868C01A1423E6
:10226000B0FBF3F08000086412480838C86302200D
:1022700081F821000868026847F6F0708243D1E9CE
:1022800001031843CB6818430B6918434B69184383
:102290008B691843CB691843024308680260002029
:1022A0008863012081F82100002081F8200000BF10
:1022B000C1E7000008640240086002402DE9F041D7
:1022C00004460D4616461F464FF0000800BF94F81E
:1022D0002000012802D10220BDE8F081012084F80D
:1022E000200000BF94F8210001282CD1022084F89E
:1022F00021000020A0632068006820F00100216810
:1023000008603B46324629462046FFF737F9E06A27
:1023100030B12068006840F00E00216808600BE0D2
:102320002068006820F004002168086020680068C8
:1023300040F00A00216808602068006840F0010051
:102340002168086006E000BF002084F8200000BF7C
:102350004FF002084046BFE770B5044600F0BCF9F4
:1023600006462546681C10B104480068054400BFB5
:1023700000F0B2F9801BA842FAD370BDF40100202E
:102380002DE9F04104460E460127002500BF1E48F6
:10239000007C012802D10220BDE8F08101201A4909
:1023A000087400BF4CF25030FFF796F907461FBB88
:1023B0004FF0FF303060656817E02846FFF71CF9E2
:1023C0004CF25030FFF788F907461048006820F0BB
:1023D00008000E4908600846006820F40070086094
:1023E0000FB1356007E005F58075D4E9011001EB08
:1023F0000020A842E1D800BF00BF002002490874B5
:1024000000BF3846C8E7000070170020043C0240B7
:102410000348006840F0020001490860002070474E
:10242000043C02402DE9F04107460C4615460126C2
:1024300000BF1048007C012802D10220BDE8F081D5
:1024400001200C49087400BF4CF25030FFF744F9EA
:10245000064646B900200749486125604CF25030D5
:10246000FFF73AF9064600BF00200249087400BF92
:102470003046E3E7701700201348006800F00200C0
:1024800002281FD11048006800F0010060B10F4819
:102490000D49083108600E4808600B48006800F0DC
:1024A000010008B1012070470A4807490C31086053
:1024B000094808600448006800F00200022801D1C1
:1024C0000120F0E70020EEE7043C0240EFCDAB89AD
:1024D00005040302BFAE9D8C1615141378B5034690
:1024E000002200240020CAE0012696400D6805EA7B
:1024F0000604002C71D04D68022D02D04D68122DBB
:1025000013D1D60803F1200555F826005507EE0E25
:102510000F25B540A8435607F60E0D69B540284370
:10252000D60803F1200545F8260018685600032553
:10253000B540A8430D7905F003055600B540284382
:1025400018604D68012D08D04D68022D05D04D68EA
:10255000112D02D04D68122D13D198685600032515
:10256000B540A8435600CD68B540284398605868E8
:1025700001259540A8430D79C5F3001595402843E2
:102580005860D86856000325B540A84356008D68AA
:10259000B5402843D8604D6805F08055B5F1805F9F
:1025A0006CD100BF394D2D6845F00105374E3560BF
:1025B00035462D6805F00105009500BF00BF344D7C
:1025C000960855F8260095072E0F0F25B540A8430D
:1025D000304DAB4202D1002515E04FE02E4DAB420D
:1025E00001D101250FE02D4DAB4201D102250AE0BA
:1025F0002B4DAB4201D1032505E02A4DAB4201D161
:10260000042500E005259607360FB5402843204DE8
:10261000960845F82600244D2868A0434D6805F427
:102620008035B5F5803F00D120431F4D28602D1D1A
:102630002868A0434D6805F40035B5F5003F00D18A
:102640002043194D2D1D28602D1D2868A0434D687D
:1026500005F48015B5F5801F00D12043124D0835D3
:1026600028602D1D2868A0434D6805F40015B5F5B8
:10267000001F00D120430C4D0C352860521C0D6802
:10268000D540002D7FF430AF78BD000020380240E7
:10269000080001400000024000040240000802401F
:1026A000000C024000100240000401400246136981
:1026B0000B400BB1012000E00020704742690A4046
:1026C00012B10A04826100E0816170470AB1816140
:1026D00001E00B0483617047014800687047000007
:1026E000EC010020034800680349096808440149D7
:1026F00008607047EC010020F401002010B50024B0
:10270000032000F0B3F8002000F008F808B101241D
:1027100001E000F02FF8204610BD000070B504461F
:10272000002511480068D8B10F4800684FF47A714D
:10273000B1FBF0F00D490968B1FBF0F6304600F04E
:102740003FFD58B9102C07D200222146501E00F040
:102750004FF80748046004E0012502E0012500E08D
:102760000125284670BD0000F4010020F80100207A
:10277000F001002008B500BF1448006840F0004098
:10278000124908600846006800F00040009000BF51
:1027900000BF00BF081F006840F00100091F08606B
:1027A0000846006800F00100009000BF00BF00BFB5
:1027B000081D006840F08050091D08600846006848
:1027C00000F08050009000BF00BF08BD24380240D8
:1027D00001460846002809DB00F01F0301229A4049
:1027E00043099B0003F1E023C3F8002100BF7047B9
:1027F0002DE9F05F80460D461646002702F0B8FC32
:10280000074639462A46334601F00700C0F1070A59
:10281000BAF1040F02D94FF0040A01E0C0F1070A2F
:10282000D14600F1040ABAF1070F02D24FF0000AB4
:1028300001E0A0F1030AD4464FF0010A0AFA09FAAE
:10284000AAF1010A0AEA020A0AFA0CFA4FF0010B8D
:102850000BFA0CFBABF1010B0BEA030B4AEA0B047E
:102860002146404602F08CFCBDE8F09F00BF00F01E
:102870000702064B19684FF6FF031940044B0B4340
:1028800043EA0221014B196000BF70470CED00E0E4
:102890000000FA052DE9F04104460D4614B9012067
:1028A000BDE8F0817E48006800F00100A84218D21F
:1028B00000BF012D05D17A48006840F00400784936
:1028C00008607748006820F00100284374490860D8
:1028D00000BF0846006800F00100A84201D00120B6
:1028E000DEE7207800F00200022807D16D4800687A
:1028F00020F0F000A16808436A490860207800F0E1
:10290000010000287FD06068022807D16548083898
:10291000006800F40030F8B90120C1E760680328BE
:1029200007D160480838006800F00070A0B90120A5
:10293000B6E76068012807D15A480838006800F0F7
:10294000020048B90120ABE756480838006800F497
:10295000007008B90120A3E75248006820F0030086
:10296000616808434F490860FFF7B6FE0646606895
:10297000022810D108E0FFF7AFFE801B41F288313A
:10298000884201D903208BE74648006800F00C001C
:102990000828F0D137E06068032810D108E0FFF77D
:1029A0009BFE801B41F28831884201D9032077E7E2
:1029B0003C48006800F00C000C28F0D123E060686F
:1029C000012810D108E0FFF787FE801B41F2883113
:1029D000884201D9032063E73248006800F00C0008
:1029E0000428F0D10FE008E0FFF776FE801B41F2EB
:1029F0008831884201D9032052E72A48006800F054
:102A00000C000028F0D12648006800F00100A84220
:102A100018D900BF012D05D12148006840F00400FD
:102A20001F4908601E48006820F0010028431C4927
:102A3000086000BF0846006800F00100A84201D00D
:102A400001202DE7207800F00400042807D1154864
:102A5000006820F4E060E1680843124908602078CB
:102A600000F00800082808D10E48006820F46050E3
:102A7000216940EAC1000B49086000F041F80949AA
:102A80000968C1F30311084A515CC840074908604E
:102A900007480068FFF742FE0746384600E7000097
:102AA000003C024008380240F5600008F8010020B0
:102AB000F00100200148006870470000F801002084
:102AC00000B5FFF7F7FF04490968C1F30221034A83
:102AD000515CC84000BD0000083802400561000894
:102AE00000B5FFF7E7FF04490968C1F3C221034AB3
:102AF000515CC84000BD0000083802400561000874
:102B0000F0B51A4E316801F00C0616B3042E04D04D
:102B1000082E04D00C2E1BD103E0154823E01548E5
:102B200021E0154EC1F38347F25DC1F38156731C5A
:102B30000E4E366806F4803626B10E4E5643B6FB6E
:102B4000F3F403E00A4E5643B6FBF3F420460AE0E2
:102B500000BF064E361F3668C6F342356E1C01278D
:102B6000B740F80300BF00BFF0BD000008380240C6
:102B70000024F40000366E01EC6000082DE9F843F3
:102B8000044614B90120BDE8F883FE48006800F04F
:102B90000C06FC48006800F48037207800F0010043
:102BA000002875D0082E04D00C2E0ED1B7F5803F2A
:102BB0000BD1F4480838006800F40030002867D0D2
:102BC0006068002864D10120DDE700BF606801284B
:102BD00008D1EC480838006840F48030E9490839E9
:102BE00008602DE0606868B9E6480838006820F49D
:102BF0008030E449083908600846006820F48020E5
:102C000008601DE0606805280DD1DE4808380068BE
:102C100040F48020DB49083908600846006840F429
:102C2000803008600CE0D7480838006820F4803015
:102C3000D449083908600846006820F480200860FC
:102C400000BF606890B1FFF747FD054606E0FFF75B
:102C500043FD401B642801D9032094E7C948083884
:102C6000006800F400300028F1D011E0FFF734FDD7
:102C7000054606E0FFF730FD401B642801D903201C
:102C800081E7C0480838006800F400300028F1D11E
:102C9000207800F00200022853D1042E02D00C2E1E
:102CA00017D1B7B9B7480838006800F0020020B162
:102CB000E068012801D0012065E7B248001F0068E4
:102CC00020F4F850216940EA0120AE49091F08604C
:102CD00037E0E06800B30120AB490860FFF7FCFC77
:102CE000054606E0FFF7F8FC401B022801D9032047
:102CF00049E7A4480838006800F002000028F1D035
:102D0000A048001F006820F4F850216940EA012023
:102D10009C49091F086014E000209B490860FFF7E8
:102D2000DBFC054606E0FFF7D7FC401B022801D973
:102D3000032028E793480838006800F002000028C4
:102D4000F1D1207800F01000102871D1F6BB8D4829
:102D50000838006800F4007018B1A06908B90120B3
:102D600011E78849091F206A096801F46041884217
:102D700019D9206A01F08CF908B1012003E78148D4
:102D8000001F006820F46040216A08437D49091F44
:102D90000860217F7B48001F006861F31F6079494C
:102DA000091F08601AE07748001F006820F460409F
:102DB000216A08437349091F0860217F7148001F79
:102DC000006861F31F606F49091F00E020E00860A0
:102DD000206A01F05DF908B10120D4E60121206AE2
:102DE00001EB503101208840C00366490968C1F3F6
:102DF0000311664A515CC84065490860654800682F
:102E0000FFF78CFC8046B8F1000F42D04046BAE68E
:102E1000A06948B301205C490862FFF75DFC0546E4
:102E200007E0FFF759FC401B022802D90320AAE65D
:102E30002FE054480838006800F400700028F0D0F3
:102E40005048001F006820F46040216A08434D4943
:102E5000091F0860217F4B48001F006861F31F6055
:102E60004849091F086014E0002047490862FFF73D
:102E700033FC054606E0FFF72FFC401B022801D972
:102E8000032080E63F480838006800F400700028FE
:102E9000F1D1207800F0080008282CD16069A8B191
:102EA00001203D490860FFF717FC054606E0FFF7E3
:102EB00013FC401B022801D9032064E631482C3062
:102EC000006800F002000028F1D014E00020324930
:102ED0000860FFF701FC054606E0FFF7FDFB401B1D
:102EE000022801D903204EE626482C30006800F065
:102EF00002000028F1D1207800F0040004286ED1EF
:102F00004FF000091F481C30006800F0805088B95D
:102F100000BF1C481C30006840F0805019491C312B
:102F200008600846006800F08050009000BF00BFB5
:102F30004FF001091948006800F48070B0B91748D3
:102F4000006840F4807015490860FFF7C5FB05462E
:102F500006E0FFF7C1FB401B642801D9032012E6FD
:102F60000E48006800F480700028F2D000BFA0680E
:102F7000012817D103482C30006840F480700149C3
:102F80002C310DE00838024000004742F56000088F
:102F9000F8010020F0010020800647420070004048
:102FA000086028E0A06858B96648006820F480707E
:102FB000644908600846006820F4806008601AE0F0
:102FC000A06805280CD15F48006840F480605D4926
:102FD00008600846006840F4807008600BE040E03C
:102FE0005848006820F48070564908600846006818
:102FF00020F48060086000BFA06898B1FFF76CFB08
:10300000054608E0FFF768FB401B41F28831884223
:1030100001D90320B7E54B48006800F40070002890
:10302000F0D012E0FFF758FB054608E0FFF754FB2D
:10303000401B41F28831884201D90320A3E5414871
:10304000006800F400700028F0D1B9F1010F07D139
:103050003C481038006820F080503A491039086028
:1030600000BF606AA8B30C2E52D0606A022839D122
:10307000002035490866FFF72FFB054606E0FFF7FD
:103080002BFB401B022801D903207CE52D48343856
:10309000006800F000700028F1D1D4E90A0108436B
:1030A000216B084327492C39096821F47D01084325
:1030B00024492C390860012023490866FFF70CFBDE
:1030C000054607E0FFF708FB401B022802D9032052
:1030D00059E535E01B483438006800F000700028DE
:1030E000F0D02DE0002018490866FFF7F5FA0546F4
:1030F00006E0FFF7F1FA401B022801D9032042E560
:1031000010483438006800F000700028F1D117E052
:10311000606A012800D136E50A482C38076807F4B0
:103120008031A06A814209D107F47011E06A8142BE
:1031300004D107F44001206B814201D0012022E537
:10314000002020E53438024000004742154800685E
:10315000401C1449086014480088012804D1134811
:103160000088401C1149088011480088012803D0BC
:1031700010480088012805D10F480088401C0E49DE
:10318000088004E000200C4908800C4908800A48A7
:103190000088B0F5FA7F04DD08480088401C074924
:1031A0000880704730000020240000202A00002002
:1031B00020000020220000202800002026000020FF
:1031C00070B504462546681EB0F1807F01D301200A
:1031D0000FE0681E4FF0E02148610F214FF0FF30F3
:1031E00001F0CEFF00204FF0E02188610720086148
:1031F000002070BD10B5FFF7A9FF10BD10B5024645
:1032000000BF92F83800012801D1022010BD012032
:1032100082F8380000BF022082F839001068436845
:103220001068846823F070030868034324F0800466
:10323000486804431068436010688460012082F885
:10324000390000BF002082F8380000BF00BFDDE772
:1032500010B504460CB9012010BD94F8390028B906
:10326000002084F83800204600F00CF8022084F892
:103270003900211D206801F02FFA012084F839005F
:103280000020E9E738B504462068B0F1804F16D138
:1032900000BF1848006840F0010016490860084661
:1032A000006800F00100009000BF00BF0022012173
:1032B0001C20FFF79DFA1C20FFF78AFA19E00E493F
:1032C0002068884215D100BF0A48006840F002001B
:1032D000084908600846006800F00200009000BF3E
:1032E00000BF002201211D20FFF782FA1D20FFF7F9
:1032F0006FFA38BD243802400004004001460868D7
:10330000C06840F001000B68D8600868806800F071
:103310000702062A05D00868006840F001000B6823
:103320001860002070472DE9F04104460D4600BFAB
:1033300094F83800012802D10220BDE8F081012074
:1033400084F8380000BF022084F8390020688668BD
:1033500026F0770626F47F46206886602868502885
:1033600033D00CDC202850D004DC00284BD01028AF
:1033700051D149E0302849D040284CD139E060286B
:103380002DD0702807D0B0F5805F03D0B0F5005F76
:1033900041D10DE040E0D5E902136A68206801F0F0
:1033A000E3F92068866846F077062068866033E097
:1033B000D5E902136A68206801F0D6F920688068B0
:1033C00040F480402168886026E0EA6869682068E7
:1033D00001F0DEF95021206801F0D1F91CE0EA6823
:1033E0006968206801F0E7F96021206801F0C7F9F9
:1033F00012E0EA686968206801F0CAF94021206893
:1034000001F0BDF908E000BF00BF00BF29682068D7
:1034100001F0B5F900E000BF00BF012084F83900D9
:1034200000BF002084F8380000BF00BF85E7704768
:1034300010B5044620680069C0F34000D8B1206888
:10344000C068C0F34000B0B16FF0020021680861AD
:10345000012020762068806900F0030018B1204622
:10346000FFF7E5FF05E0204600F08BF8204600F06E
:1034700089F80020207620680069C0F38000D8B168
:103480002068C068C0F38000B0B16FF0040021680C
:103490000861022020762068806900F4407018B12D
:1034A0002046FFF7C4FF05E0204600F06AF82046FA
:1034B00000F068F80020207620680069C0F3C000A2
:1034C000D8B12068C068C0F3C000B0B16FF0080088
:1034D00021680861042020762068C06900F003009C
:1034E00018B12046FFF7A3FF05E0204600F049F899
:1034F000204600F047F80020207620680069C0F3DD
:103500000010D8B12068C068C0F30010B0B16FF0EF
:10351000100021680861082020762068C06900F446
:10352000407018B12046FFF782FF05E0204600F00A
:1035300028F8204600F026F8002020762068006950
:1035400000F0010058B12068C06800F0010030B1FF
:103550006FF0010021680861204600F015F820682E
:103560000069C0F3801058B12068C068C0F38010B3
:1035700030B16FF0400021680861204600F062F829
:1035800010BD7047704700001CB5044620492068F4
:10359000096888422AD11F48008840B91E4800881F
:1035A000012804D11D480068401C1C4908601A48C5
:1035B000008820B900201A49088018490860184876
:1035C0000088002812DD1548006878B113480068AB
:1035D00013490988CDE900100F48038801221149D9
:1035E0001148FEF701F900201049088010492068B1
:1035F000096888420BD102220E490F48FEF7FAFCF7
:103600000C48438802880D490D48FDF707FA1CBD98
:10361000D0020020CA010020C8010020A80100201B
:10362000D001002000F4010800F00108D8010020BA
:103630000C030020E801002038020020E4010020F3
:10364000E0010020704770472DE9F04704462068EC
:1036500005682068C668206847694FF00008C146C1
:1036600005F00F08B8F1000F0AD105F0200038B1BD
:1036700006F0200020B1204601F0FAF8BDE8F087FE
:10368000B8F1000F6ED007F0010018B906F4907081
:10369000002867D005F0010030B106F4807018B141
:1036A000E06B40F00100E06305F0040030B107F08A
:1036B000010018B1E06B40F00200E06305F0020089
:1036C00030B107F0010018B1E06B40F00400E06396
:1036D00005F0080030B107F0010018B1E06B40F0D0
:1036E0000800E063E06B70B305F0200028B106F03D
:1036F000200010B1204601F0BBF820684069C0F3FB
:103700008019E06B00F0080010B9B9F1000F23D068
:10371000204601F08DF82068406900F04000402804
:1037200016D12068406920F0400021684861606B34
:1037300050B11748616B4863606BFEF7CBFC10B16A
:10374000606B416B88470CE02046FFF77CFF08E088
:103750002046FFF778FF04E02046FFF774FF0020C3
:10376000E0638BE705F0800030B106F0800018B10F
:10377000204601F059FA81E705F0400030B106F02B
:10378000400018B1204601F063F877E700BF75E705
:103790001D48000810B504460CB9012010BDA069F1
:1037A00000B100E000BF94F8390028B9002084F887
:1037B0003800204600F028F8242084F839002068DA
:1037C000C06820F400502168C860204601F0A4F8C9
:1037D0002068006920F490402168086120684069F1
:1037E00020F02A00216848612068C06840F4005039
:1037F0002168C8600020E063202084F8390084F844
:103800003A000020CAE7000010B586B00446142133
:1038100001A8FCF7AAFC1D492068884233D100BFEB
:103820001B48006840F400301949086008460068E9
:1038300000F40030009000BF00BF00BF14480838FB
:10384000006840F001001249083908600846006825
:1038500000F00100009000BF00BF0C20019002208A
:10386000029001200390032004900720059001A9F5
:103870000848FEF733FE002202212620FEF7B8FF9B
:103880002620FEF7A5FF06B010BD00000044004052
:10389000243802400000024010B5034693F83A0075
:1038A00020282FD101B10AB9012010BD00BF93F823
:1038B0003800012801D10220F7E7012083F8380001
:1038C00000BF99629A85DA850020D863222083F8A8
:1038D0003A0000BF002083F8380000BF1868C068B5
:1038E00040F480701C68E0601868406940F0010096
:1038F0001C6860611868C06840F020001C68E060C7
:103900000020D2E70220D0E710B504460A4920681B
:10391000096888420ED109480179C288C088401CD4
:10392000064BD88003F1080081540122011F024890
:10393000FFF7B2FF10BD000048030020E0030020A5
:103940002DE9F84304460D4616461F464FF0000980
:1039500094F8390020285CD105B116B90120BDE8E2
:10396000F88300BF94F83800012801D10220F6E75F
:10397000012084F8380000BF0020E063212084F893
:103980003900FEF7A9FE8146A684E6842BE0E08C90
:10399000401EE084A068B0F5805F16D14B4600223F
:1039A00080212046009701F073F908B10320D6E783
:1039B000A846B8F80000C0F30800216848602069F4
:1039C00008B9AD1C0FE06D1C0DE04B4600228021B4
:1039D0002046009701F05CF908B10320BFE715F815
:1039E000010B21684860E08C0028D0D14B460022B2
:1039F00040212046009701F04BF908B10320AEE7C3
:103A0000202084F8390000BF002084F8380000BF6F
:103A1000A5E70220A3E7704700BFFEE710B5044604
:103A2000054801682046FCF76DFE04D0024804609A
:103A300001200249088110BD7C0000206C0100209B
:103A400070B5049C164D2D68A84204D0144D286012
:103A50000125144E3581144D2D68A94204D0124D14
:103A600029600125114E3581114D2D68AA4204D0DF
:103A70000F4D2A6001250F4E35810F4D2D68AB4249
:103A800004D00D4D2B6001250C4E35810C4D2D6859
:103A9000AC4204D00A4D2C6001250A4E358170BD20
:103AA0005C00002030010020600000203C0100206C
:103AB000640000204801002068000020540100201C
:103AC0006C0000206001002010B50E4B1B68934273
:103AD00004D00C4B1A6001230B4C23810B4B1B8829
:103AE0008B4204D0094B19800123094C2381094BD7
:103AF0001B88834204D0074B18800123064C238186
:103B000010BD00008000002024010020840000205F
:103B100018010020860000200C0100202DE9F05F34
:103B200083460C4615461E460AAF97E88007012CCF
:103B300008D12889012805D12946584600F0C7F840
:103B400000202881022C08D13089012805D1314676
:103B5000584600F0BCF800203081032C08D1388989
:103B6000012805D13946584600F0B1F800203881C7
:103B7000042C0AD1B8F80800012806D1414658465D
:103B800000F0A5F80020A8F80800052C0AD1B9F823
:103B90000800012806D14946584600F098F8002050
:103BA000A9F80800062C0AD1BAF80800012806D1A5
:103BB0005146584600F08BF80020AAF80800BDE8EE
:103BC000F09F2DE9F05F83460C4615461E460AAF6E
:103BD00097E880072889012807D1012C05D12946BB
:103BE000584600F074F8002028813089012807D158
:103BF000022C05D13146584600F069F8002030818A
:103C00003889012807D1032C05D13946584600F0E0
:103C10005EF800203881B8F80800012808D1042C8B
:103C200006D14146584600F052F80020A8F8080096
:103C3000B9F80800012808D1052C06D14946584694
:103C400000F045F80020A9F80800BAF8080001289B
:103C500008D1062C06D15146584600F038F800200D
:103C6000AAF80800BDE8F09F70B506460C46154658
:103C70002089012807D12146304600F028F800208D
:103C800020810120288170BD2DE9F04107460E46B4
:103C900014461D463089012805D13146384600F0CA
:103CA00016F8002030812089012805D121463846A8
:103CB00000F00DF8002020812889012805D129462F
:103CC000384600F004F800202881BDE8F08170B586
:103CD00005460C46A27921792846FDF76FF928465A
:103CE0002168FDF788FA70BD70B504460D46FDF7F2
:103CF00073FE17490968884202D2002014490860FF
:103D0000FDF76AFE12490968401AB0F5FA6F05D945
:103D1000FDF762FE0E49086000F0C0FBFDF75CFE97
:103D20000B490968401A642807D908210948FEF799
:103D3000BDFC012801D100F0B5FA012C04D1042DFD
:103D400002DA00F0A1FB01E000F0A2FA70BD000071
:103D500084010020000402400EB500200090019074
:103D600002901E481E4908600020486000211C483F
:103D70008160C1604FF48071016100214161816106
:103D8000C161016280F8241002218162002180F863
:103D90002C101021416300218163012180F83C1027
:103DA000FDF7D8FF08B1FDF725FC0F20009001209A
:103DB00001900720029069460948FDF71FFE08B1EF
:103DC000FDF718FC0E20009002200190694604487F
:103DD000FDF714FE08B1FDF70DFC0EBD00240140F7
:103DE0003802002008B500BF0A48006840F0807023
:103DF000084908600846006800F08070009000BF25
:103E000000BF002211460B20FEF7F2FC0B20FEF74C
:103E1000DFFC08BD1C38024000B587B0142102A8A1
:103E2000FCF7A3F900BF4F48006840F001004D497E
:103E300008600846006800F00100019000BF00BF64
:103E400000BF0846006840F00400086008460068AB
:103E500000F00400019000BF00BF00BF08460068EA
:103E600040F0020008600846006800F0020001907F
:103E700000BF00BF00BF0846006840F008000860AF
:103E80000846006800F00800019000BF00BF002253
:103E900048F23F013448FEF719FC00224FF47071DC
:103EA0003248FEF713FC00224FF480713048FEF7D1
:103EB0000DFC002204212F48FEF708FC3F20029051
:103EC00001200390022004900020059002A92648BA
:103ED000FEF704FB4FF40040029001200390002005
:103EE0000490059002A92048FEF7F8FA4FF470708C
:103EF00002900120039000200490059002A91B4825
:103F0000FEF7ECFA4FF4807002900120039000203D
:103F10000490059002A91648FEF7E0FA4FF400401D
:103F20000290002003900120049002A91048FEF79F
:103F3000D5FA4FF4E0500290002003900120049045
:103F400002A90A48FEF7CAFA042002900120039051
:103F500000200490059002A90648FEF7BFFA07B0BA
:103F600000BD00001C38024000040240000802406E
:103F700000000240000C024000B587B00020039012
:103F8000049005900690019002904FF080401449F3
:103F900008604FF47A50486000211148816040F277
:103FA000E731C160002101614161FFF751F908B1BA
:103FB000FDF720FB4FF48050039003A90848FFF75A
:103FC000B2F908B1FDF716FB00200190029001A99B
:103FD0000348FFF713F908B1FDF70CFB07B000BD6C
:103FE000D002002000B587B0002003900490059017
:103FF000069001900290144814490860A02048607F
:1040000000211248816040F2E731C1600021016166
:104010004161FFF71DF908B1FDF7ECFA4FF480504C
:10402000039003A90948FFF77EF908B1FDF7E2FA0A
:1040300000200190029001A90448FFF7DFF808B1C1
:10404000FDF7D8FA07B000BD000400400C030020C3
:1040500010B50B480B4908604FF4E130486000216F
:1040600008488160C16001610C21416100218161CA
:10407000C161FFF78FFB08B1FDF7BCFA10BD00006E
:10408000004400404803002000BFFEE7704770472F
:1040900018B5034600222548006800F0F00050BB28
:1040A00022481C30006800F0805020B12048006891
:1040B00000F4C05118E000BF1C481C30006840F0FC
:1040C00080501A4C1C3420602046006800F080505C
:1040D000009000BF00BF1648006800F4C0512046A1
:1040E000006820F080502060B1F5C05F03D1B3F5C7
:1040F000404F00D1012200BF012A05D10D480068C0
:1041000040F004000B4C20600A48006820F00100D9
:104110001043084C206000BF2046006800F00100FA
:10412000904201D0012018BD0020FCE70838024071
:1041300000700040003C02402DE9F0473F48FDF789
:1041400073FA3F4908800846008801281ED13B4881
:10415000001DFDF769FA3B49086038480830FDF753
:1041600063FA3949086035480C30FDF75DFA374984
:10417000086032481030FDF757FA354908602F487B
:104180001430FDF751FA334908602BE00022324B1E
:104190001046324901F098FA06460F46304800684A
:1041A000FCF781FA804632463B46FCF758F9044654
:1041B000FCF760FA264908600022274B1046274981
:1041C00001F082FA04460D4626480068FCF76BFAB7
:1041D000064622462B46FCF742F98046FCF74AFA8F
:1041E0001C4908602048FDF71FFA2049088008464E
:1041F000008801281FD11C48001DFDF715FA1C4935
:10420000088019480830FDF70FFA1A490880164847
:104210000C30FDF709FA1849086016480088012893
:1042200001D100F045F913480088022803D100F0BD
:104230003FF900F047F9BDE8F087000010F80108E9
:10424000D4010020AC010020B0010020B401002006
:10425000C0010020C40100200000F03F0000244005
:10426000B8010020BC01002000F00108D6010020A8
:10427000C8010020D0010020A801002010B50022B4
:1042800004210248FEF722FA10BD0000000C024093
:1042900010B5002210210248FEF718FA10BD0000E8
:1042A0000004024010B5002208210248FEF70EFA71
:1042B00010BD00000004024010B500222021024879
:1042C000FEF704FA10BD00000004024010B5002201
:1042D00001210248FEF7FAF910BD00000004024077
:1042E00010B5002202210248FEF7F0F910BD0000CF
:1042F0000004024010B5002204210248FEF7E6F94E
:1043000010BD0000000402402DE9F84F04460D46A0
:1043100016461F46DDE90CABDDE90A891C4807603B
:104320001C48C0F800801C48C0F800901B48C0F82A
:1043300000A01B48C0F800B0012C01D1012028804A
:104340000CB90220288012481649086014480068F9
:10435000009012480368104802680E4801680C4833
:104360000068FFF76DFB0E48006800900B4803687B
:1043700009480268074801680548006800F0BEFD6A
:104380003046FCF74DF90090FDF702FBBDE8F88FD1
:104390003C00002040000020440000204800002095
:1043A0004C0000205000002010B52C48008848B96F
:1043B00000F07EF829480088401C28490880002029
:1043C000274908602548008801280FD12448006843
:1043D00024490968884209D300F074F81F4800880E
:1043E000401C1E49088000201D4908601B480088A9
:1043F00002280FD11A4800681B490968884209D36E
:10440000FFF76EFF15480088401C14490880002003
:10441000134908601148008803280FD1104800682C
:1044200010490968884209D3FFF750FF0B480088FC
:10443000401C0A4908800020094908600748008894
:1044400004280AD10648006808490968884204D34C
:104450000020034908600149088010BDD0010020F8
:10446000A8010020B4010020AC010020B001002010
:104470007047000010B5012204210248FEF726F91A
:1044800010BD0000000C024010B5012210210248AE
:10449000FEF71CF910BD00000004024010B5012217
:1044A00008210248FEF712F910BD00000004024086
:1044B00010B5012211460248FEF708F910BD0000B0
:1044C0000004024010B5012202210248FEF7FEF866
:1044D00010BD00000004024010B501220421024872
:1044E000FEF7F4F810BD000000040240F0B53C23D4
:1044F0003C24194D194E36684FF46167B6FBF7F648
:1045000006800688C6EB0616B600C6EB0616134FE5
:104510003F68A7EB86063C27B6FBF7F60E800688B9
:10452000C6EB0616B600C6EB06160C4F3F88A7EB87
:1045300086060F88C7EB0717A6EB87061680074E7F
:1045400036682F46BE4205D30026044F3E600680E3
:104550000E801680F0BD000080510100A8010020EF
:104560001CB51848006818490968CDE900101748BB
:10457000174A18490368184800F056FD11480068AA
:1045800011490968CDE900101048114A1349036820
:10459000114800F093FD0F480088012802D100F077
:1045A0001FF901E0FFF788FE0C480088012804D1BC
:1045B000FFF792FFFFF75EFF03E0FFF79BFEFFF7B9
:1045C0005DFE1CBDC4010020C0010020E4010020EC
:1045D000D0010020CA010020C8010020CC01002029
:1045E00010B5FEF77FF8FEF705FE10BD00B593B0DD
:1045F000342106A8FBF7B9FD142101A8FBF7B5FD8E
:104600001348006820F4C05040F40060104908606E
:10461000022006900120099010200A9000200F909F
:1046200006A8FEF7ABFA08B1FCF7E4FF0F200190F3
:10463000012002900020039004900590002101A821
:10464000FEF728F908B1FCF7D5FF13B000BD000054
:10465000007000401448006840F4807012490860FF
:10466000114808300068114908400F4908310860B6
:104670000D4800680E4908400B490860084600686C
:1046800020F48020086008480830006820F47D008D
:104690000549083108600020091D08604FF00060DE
:1046A0000449086070470000003802400CC0FF88D1
:1046B000FEFFFEEE08ED00E010B50248FEF7B8FE82
:1046C00010BD0000D002002010B50248FEF7B0FE79
:1046D00010BD00000C03002010B50268B0F1804F3F
:1046E0000BD01B4B984208D01A4B984205D01A4B5E
:1046F000984202D0194B984203D122F070024B68C5
:104700001A43B0F1804F11D0114B98420ED0114B8B
:1047100098420BD0104B984208D0104B984205D0CD
:104720000F4B984202D00F4B984203D122F44072B3
:10473000CB681A4322F080030C6943EA040202604A
:104740008B68C3620B6883620123436110BD000064
:104750000004004000080040000C00400008014038
:10476000000C01400010014030B50C46816821F476
:104770007F4142EA032525432943816030BD0A4633
:10478000816821F0700142F007031943816070478E
:1047900030B50B461446026A056A25F0010505622C
:1047A000816921F0F00141EA041122F00A021A4362
:1047B0008161026230BD30B50B461446056A25F0B2
:1047C000100505628169026A21F4704141EA0431F1
:1047D00022F0A00242EA03128161026230BD0000B1
:1047E00010B5FDF7F9F80B490968884202D200209C
:1047F00008490860FDF7F0F806490968401A64287E
:1048000007D9FDF7E9F80349086020210248FDF7C0
:1048100055FF10BD880100200004024070B5054618
:104820006C6A0020E085E0842046FEF70CFF70BD36
:104830000168C96821F490710268D1600168496912
:1048400021F0010102685161202180F83A1070477F
:1048500010B504462068C06820F040002168C86098
:10486000202084F839002046FFF7D5F8002010BD3D
:1048700070B5044694F83A0022284AD1A068B0F5F1
:10488000805F13D1A56A206940B920684068C0F3F1
:1048900008002880A06A801CA06219E02068406897
:1048A000C0B22880A06A401CA06211E0206938B91B
:1048B00020684068C1B2A26A501CA062117007E073
:1048C0002068406800F07F01A26A501CA06211704D
:1048D000E08D401E80B2E085C8B92068C06820F035
:1048E00020002168C8602068C06820F480702168BA
:1048F000C8602068406920F00100216848612020DC
:1049000084F83A002046FEF7FFFF002070BD00202B
:10491000FCE70220FAE7000070B504462168096947
:1049200021F44051E2681143226811612269A168B3
:10493000114362691143E26941EA02052168C968CD
:1049400049F20C62914329432268D1602168496988
:1049500021F44071A269114322685161E169B1F506
:10496000004F7DD1AF4A2168914255D1FEF7B8F88A
:1049700000EBC00101EB001162685200B1FBF2F1E3
:104980006422B1FBF2F10A0100EBC00101EB00115E
:1049900063685B00B1FBF3F100EBC00303EB0013B2
:1049A00066687600B3FBF6F36426B3FBF6F303EB1D
:1049B000C30606EB0313A1EB8301322303EBC10112
:1049C0006423B1FBF3F101F0F80102EB410200EBCB
:1049D000C00101EB001163685B00B1FBF3F100EB78
:1049E000C00303EB001366687600B3FBF6F364269E
:1049F000B3FBF6F303EBC30606EB0313A1EB830152
:104A0000322303EBC1016423B1FBF3F101F0070191
:104A100011442268916004E1FEF752F800EBC001F6
:104A200001EB001162685200B1FBF2F16422B1FBAC
:104A3000F2F10A0100EBC00101EB001163685B00B9
:104A4000B1FBF3F100EBC00303EB001366687600E3
:104A5000B3FBF6F36426B3FBF6F303EBC30600E007
:104A600032E006EB0313A1EB8301322303EBC10118
:104A70006423B1FBF3F101F0F80102EB410200EB1A
:104A8000C00101EB001163685B00B1FBF3F100EBC7
:104A9000C00303EB001366687600B3FBF6F36426ED
:104AA000B3FBF6F303EBC30606EB0313A1EB8301A1
:104AB000322303EBC1016423B1FBF3F101F00701E1
:104AC000114422689160ACE0564A2168914254D169
:104AD000FEF706F800EBC00101EB001162689200DE
:104AE000B1FBF2F100EBC00202EB001263689B0025
:104AF000B2FBF3F26423B2FBF3F202EBC20303EB6B
:104B00000212A1EB8201322202EB01116422B1FBFD
:104B1000F2F101F0F00200EBC00101EB001163685B
:104B20009B00B1FBF3F16423B1FBF3F102EB011243
:104B300000EBC00101EB001163689B00B1FBF3F1D6
:104B400000EBC00303EB00136668B600B3FBF6F39B
:104B50006426B3FBF6F303EBC30606EB0313A1EBEA
:104B60008301322303EB01116423B1FBF3F101F064
:104B70000F0111442268916053E0FDF7A1FF00EBA3
:104B8000C00101EB001162689200B1FBF2F100EB91
:104B9000C00202EB001263689B00B2FBF3F26423D5
:104BA000B2FBF3F202EBC20303EB0212A1EB8201B0
:104BB000322202EB01116422B1FBF2F101F0F002AA
:104BC00000EBC00101EB001163689B00B1FBF3F146
:104BD0006423B1FBF3F102EB011200EBC00101EB26
:104BE000001163689B00B1FBF3F100EBC00303EB22
:104BF00000136668B600B3FBF6F36426B3FBF6F366
:104C000003EBC30606EB0313A1EB8301322303EB93
:104C100001116423B1FBF3F101F00F01114422688B
:104C2000916070BD00380140014691F8390021289B
:104C30002CD18868B0F5805F0FD10A6A1088C0F364
:104C400008000B685860086918B9086A801C086277
:104C500009E0086A401C086205E00B6A581C0862FB
:104C600018780B685860C88C401E80B2C88458B948
:104C70000868C06820F080000B68D8600868C068C9
:104C800040F040000B68D860002070470220FCE72D
:104C90002DE9F04104460D4617469846069E21E050
:104CA000701CF8B12EB1FDF717FDA0EB0800B04263
:104CB00018D92068C06820F4D0702168C8602068C6
:104CC000406920F0010021684861202084F8390003
:104CD00084F83A0000BF002084F8380000BF0320A9
:104CE000BDE8F081206800682840A84201D1012079
:104CF00000E00020B842D3D00020F1E710B5024810
:104D0000FEF7A2FC10BD00004803002001200C4962
:104D100008810C4908810C4908810C4908810C491B
:104D200008810C4908810C4908810C4908810C490B
:104D300008810C4908810C4908810C490881704799
:104D4000C4000020D0000020DC000020F40000207F
:104D50000001002078010020300100203C010020EB
:104D60004801002054010020600100206C01002057
:104D70002DE9F04104460D4616461F46034A0449F4
:104D80002046FEF771FFBDE8F0810000A000002082
:104D90009400002028B90749098911B90121064A60
:104DA0001181012805D10449098911B90121014A5C
:104DB0001181704794000020A000002070B50446C7
:104DC0000D46034A03492046FEF74EFF70BD000022
:104DD00094000020A000002010B50446034B044AB4
:104DE00004492046FEF750FF10BD000024010020BA
:104DF000180100200C01002070B505460C460E4835
:104E0000008840B9012C06D10C492846FEF75FFF07
:104E10000120094908800848008801280AD14CB9B6
:104E200007492846FEF753FF012006490881002064
:104E30000149088070BD000070000020AC00002017
:104E4000B8000020940000202DE9FF4105460E46E1
:104E500017461C462046FEF7E1FD2046FCF798FD6C
:104E60000E480F490F4A104BCDE90032CDE9021030
:104E70000E4B0F4A31462846FEF7A3FE0D480E4959
:104E80000E4A0F4BCDE90032CDE902100D4B0E4A10
:104E900031462846FEF742FEBDE8FF8100010020B2
:104EA000F4000020DC000020D0000020C40000201E
:104EB00078010020600100205401002048010020FA
:104EC0003C010020300100206C01002070B5044638
:104ED0000E4615462146064800F06AF83146054858
:104EE00000F066F8A9B2044800F062F870BD000056
:104EF000880000208B0000208E0000202DE9F0416A
:104F000004460F4615461E46DDF8188021460F4818
:104F100000F02AF839460E4800F026F829460D48D8
:104F200000F022F80C49304600F05AF80B49404690
:104F300000F056F8084801680948FCF785FC074866
:104F400001680848FCF780FCBDE8F0810002002001
:104F500009020020120200207400002078000020C6
:104F60001B0200202402002070B501220A2404E064
:104F700004EB84035C00531C9AB2B1FBF4F3002BE6
:104F8000F6D1531E0AE00A25B1FBF5F605FB16150E
:104F90003035C5540A25B1FBF5F15B1E002BF2DA62
:104FA0002023835420261346551CAAB2C65470BD34
:104FB0000A2905DA3022027001F1300242700BE05A
:104FC0000A2291FBF2F2303202700A2291FBF2F3D4
:104FD00002FB1312303242700022827070470000D0
:104FE0002DE9F84F83468A4600220C4B10460C49A7
:104FF00000F06AFB06460F465846FBF711FB00908F
:10500000FBF751FB804632463B46FBF79AFA0446D3
:10501000FBF75CFBCAF80000BDE8F88F0000F03F2A
:105020000000244000BFFEE72DE9F04705460C468E
:1050300016461F46DDE908982888012827D13088C0
:10504000032824DC1B48006830B9FCF7C5FC1A496A
:105050000860022017490860FCF7BEFC1649096881
:10506000884204D200201349086013490860FCF705
:10507000B3FC11490968401AB0F5FA6F0AD90D4816
:105080000068022806D101200A49086002E00020D9
:105090000849086007480068012806D1474501D241
:1050A000208004E00020208001E000202080BDE876
:1050B000F08700008C010020900100202DE9F047CE
:1050C00005460C4616461F46DDE908892888012852
:1050D00027D13088022824D11948006830B9FCF75C
:1050E0007BFC18490860022015490860FCF774FC35
:1050F00014490968884204D2002011490860114906
:105100000860FCF769FC0F490968401AB0F5FA6FAE
:105110000AD90B480068022806D101200849086016
:1051200002E000200649086005480068012805D112
:10513000474501D2208001E000202080BDE8F087B3
:105140009401002098010020490050EAC12018BFB6
:1051500004204A0D18BF40F0010040F2FF72B2EB8C
:10516000515F08BF40F00200012808BF05207047CA
:1051700002480068C0F30220704700000CED00E018
:1051800010B5002804DB0A07130E054A135406E085
:105190000A07140E034A00F00F031B1FD45410BD5E
:1051A00000E400E018ED00E02DE9F0414F1E00EBB7
:1051B000C7010446D1E9000115461E4637F0060234
:1051C0000DD02A463346FBF74AF97F1E04EBC7038E
:1051D000D3E90023FBF79CF837F00602F1D1022F48
:1051E00025D0042F13D0062F18BFBDE8F0812A4622
:1051F0003346FBF734F9D4E90A23FBF789F82A464A
:105200003346FBF72CF9D4E90823FBF781F82A464B
:105210003346FBF724F9D4E90623FBF779F82A464D
:105220003346FBF71CF9D4E90423FBF771F82A464F
:105230003346FBF714F9D4E90223FBF769F82A4651
:105240003346FBF70CF9D4E90023BDE8F041FBF746
:105250005FB800000022134610460149FBF771B900
:105260000000F03FFBF754B80022134610461146E9
:10527000FBF767B940F2013200204FF0E041FBF745
:1052800010BB0000024A00201107FBF70ABB000018
:1052900001FDFFFF02E008C8121F08C1002AFAD171
:1052A00070477047002001E001C1121F002AFBD1A6
:1052B000704700000149086070470000FC010020B1
:1052C00070B505460C4616469CB96448008880B9FE
:1052D0004FF47A73062262A12846FEF731FB4FF4A1
:1052E0007A73022260A12846FEF72AFB01205B495F
:1052F0000880012C14D159480088012810D14FF49E
:105300007A73072259A12846FEF71AFB4FF47A73E5
:10531000022255A12846FEF713FB00204F490880C2
:1053200004215448FDF7C2F9012813D152480088DE
:1053300080B94FF47A73092250A12846FEF700FB8A
:105340004FF47A73022248A12846FEF7F9FA0120A9
:105350004949088004214748FDF7A8F9A0B9464803
:105360000088012810D14FF47A730A2246A12846FA
:10537000FEF7E6FA4FF47A7302223BA12846FEF7C5
:10538000DFFA00203C49088002213A48FDF78EF9F7
:10539000012813D13F48008880B94FF47A7309225D
:1053A0003DA12846FEF7CCFA4FF47A7302222EA1D3
:1053B0002846FEF7C5FA01203649088002212D480B
:1053C000FDF774F9A0B933480088012810D14FF4D3
:1053D0007A730A2233A12846FEF7B2FA4FF47A73A1
:1053E000022221A12846FEF7ABFA002029490880B5
:1053F00001212048FDF75AF9012813D12C480088D3
:1054000080B94FF47A7309222AA12846FEF798FA48
:105410004FF47A73022214A12846FEF791FA012074
:105420002349088001211348FDF740F9A0B920481D
:105430000088012810D14FF47A730A2220A128464F
:10544000FEF77EFA4FF47A73022207A12846FEF790
:1054500077FA00201649088070BD00009C010020EA
:105460000A536574757000000D0A000052756E6E67
:10547000696E670000040240A001002052656C6163
:1054800079335F4F4E00000052656C6179335F4F96
:1054900046460000A201002052656C6179325F4FE0
:1054A0004E00000052656C6179325F4F4646000045
:1054B000A401002052656C6179315F4F4E000000FD
:1054C00052656C6179315F4F464600008CB064488C
:1054D00064490860FDF712F9FFF788F8FEF79CFCB5
:1054E000FEF780FCFEF738FCFEF746FDFEF7B0FD48
:1054F000FEF778FD5C48FDF701FF5C48FDF7FEFE16
:1055000004225849091D5648FEF7C6F94FF4807029
:1055100057494200574BCDE90732CDE909108022A7
:10552000CDE90332CDE9053040204202CDE9002328
:105530000290514B022210215048FBF7C7FCFEF7A6
:10554000FBFD002211464D48FBF738FD4CA14B48AE
:10555000FBF751FE4F4800684F490A684F490968F8
:105560004F4B1B68CDE90031CDE902204D4803685F
:105570004D484E4902684E480088FEF7C5FE02229B
:105580004C494D48FCF736FD69E0FCF711F84B48F3
:105590000288474801883248FFF792FEFBF738FE41
:1055A0004648018842480088FEF79EFB444801882F
:1055B0003248FFF721FCFEF7D3FF3D48008890BB3F
:1055C00000203F49088039480088042801D0FBF7B3
:1055D0005BFB3C480068FBF739F804462D4800683F
:1055E0002D4909682D4A12682D4B1B68CDE9003200
:1055F000CDE902102B4822462C4903682C48FBF7C2
:105600008FFB2B480088FFF7C5FB284801881B4803
:10561000FFF7D4FB2B4803682948028823480188F8
:105620001648FFF711FC22480088012817D1FEF721
:10563000BBFE1F480088FFF7ADFB224803682048E7
:1056400002881A4801880D48FFF792FB1D4803683D
:105650001B480288154801880848FFF7F5FB94E7C6
:1056600048030020E0030020D00200200C030020AB
:1056700000000240000802400004024088030020AD
:10568000202020202020202030303A30303A303086
:1056900000000000C4010020C0010020B40100206F
:1056A000B0010020AC010020E4010020D201002064
:1056B000C8010020E801002038020020D0010020AD
:1056C000CA010020E00100202DE9F04D1D460C46E6
:1056D00098B0174621F0004123F00043002814BF82
:1056E0004FF0010C4FF0000C0CEB440CFE4A0CEB9D
:1056F00002064FEA620C66452BD33E0018BF012616
:1057000006EB45061644F94A964222D3F84A53EA74
:10571000070C02D0944205D148B918B000201146B8
:10572000BDE8F08D002808BF4FF0000C01D04FF00D
:10573000010C0CEB440212F5001F0AD8002F14BF15
:105740004FF0010C4FF0000C0CEB450212F5001F5E
:1057500007D918B03A462B462146BDE8F04DFFF771
:1057600081BD0022DFF88CA3002CB8BF534526DA98
:10577000DFF884C36345A8BF022220DADFF870C3D4
:105780009C451CDCDFF874C30CEB235CBCF1140FEC
:1057900008DDCCF1340627FA06FC0CFA06F6BE4208
:1057A0000DD108E05FB9CCF1140623FA06FC0CFA1F
:1057B00006F69E4203D10CF00102C2F1020251EA48
:1057C000000C19D1002D17DA002C18BF022A01D0C5
:1057D000012A07D00220FFF76DFD18B0BDE8F04D9B
:1057E000FFF738BD0220FFF765FDFFF733FD18B066
:1057F00081F00041BDE8F08DB7F1000C6CD153454C
:1058000025D104F1804212F5801201BF002800204A
:10581000B74918B008BFBDE8F08DB548884207DC2D
:10582000002DA1BF6046294618B0BDE8F08D07E005
:10583000281E05DA80F0004118B06046BDE8F08D02
:10584000AF497944D1E9000118B0BDE8F08DDFF827
:10585000A0C2634525D1002D1FDA19B1514512D1DF
:10586000D8B909E0002840F0EC82A24A214618B0DD
:1058700062F31E01BDE8F08D0020214618B060F3F0
:105880001E01BDE8F08D08DA18B02346BDE8F04DE2
:10589000024600206146FAF754BE18B02146BDE822
:1058A000F08D514518DAB5F1804F0DD0A5F1005CAF
:1058B000BCF1FF5C10D1B4F1000C0DDB18B06146F7
:1058C000BDE8F04D00F0ECBB234618B00246BDE841
:1058D000F04D1946FAF7C3BD060024F0004C3BD149
:1058E000D9B1514533D1002C06DD002DA1BF0020D8
:1058F000514618B0BDE8F08D002C01DD002D1BDBFA
:10590000002C13DA002D11DB012A4FF0000014BF28
:1059100078497C4918B0BDE8F08D022A18BF002CE8
:105920000AD0012A08D1002C06DA0AE0002CB8BF00
:10593000002D11DA012A04D0002018B00146BDE87C
:10594000F08D18B000204FF00041BDE8F08DA1F1BE
:105950004050B0F17F601AD0012000EBE47050EAB3
:10596000020421D0624C521E4FF0000B104304BFC2
:105970004FF0000B644C654883427CDD644A654807
:1059800093421FDD884217DB002D25DB37E0002C1A
:1059900000DA4AB1022A0CBF01204FF0FF3018B0E4
:1059A000BDE8F04DFAF741BE0120FFF783FC18B0C7
:1059B000BDE8F04DFFF758BC4D4A8A4202DC002D8D
:1059C0000ADC1CE0814202DA002D18DA04E0484BC0
:1059D000994220DD002D12DD0220FFF76BFCFFF75E
:1059E00049FC05460E460022534658462146FAF722
:1059F00036FD18B066F31E012846BDE8F08D022082
:105A0000FFF758FCFFF73EFC0A46214618B062F348
:105A10001E01BDE8F08D002230466146FAF719FDFF
:105A200080460E466FF00102FAF73BFF4FF0553209
:105A3000394BFAF711FD42463346FAF710FD0022C2
:105A4000364BFAF709FD824642463346049110462A
:105A50001946FAF704FD5246049BFAF700FD8A4600
:105A600000904FF0C0422E4B40463146FAF7F7FC0B
:105A70002C4A2B4B00E027E0CDE906015146009867
:105A8000FAF7EDFC82460191274A284B4046314601
:105A9000FAF7E5FC5246019BFAF7DBFC82460B461F
:105AA00002460591DDE90601FAF732FCDDE906233D
:105AB000002688463046FAF7CCFC5246059BFAF79A
:105AC000CBFC024600F07EB90020B1F5801F07DA5A
:105AD000352230466146FAF7E4FE06466FF03400A0
