:020000040800F2
:10000000F819002039010008C92C00086B280008E5
:10001000C52C0008A9040008A13700080000000052
:100020000000000000000000000000000D2F00088C
:100030005D0A000800000000CB2C0008AD2F00086E
:100040005301000853010008530100085301000840
:100050005301000853010008530100085301000830
:100060005301000853010008530100085301000820
:100070005301000853010008530100085301000810
:1000800053010008530100081D0200085301000835
:1000900053010008530100085301000853010008F0
:1000A000000000005301000853010008530100083C
:1000B000853000085301000853010008530100086F
:1000C00053010008530100085301000853010008C0
:1000D00053010008530100080D36000853010008C1
:1000E00053010008530100085301000853010008A0
:1000F00053010008000000005301000853010008EC
:100100000000000000000000530100085301000837
:1001100053010008530100085301000800000000CB
:1001200053010008DFF80CD000F066F800480047E3
:1001300069380008F819002006488047064800473B
:10014000FEE7FEE7FEE7FEE7FEE7FEE7FEE7FEE787
:10015000FEE7FEE72130000825010008D2B201E0E9
:1001600000F8012B491EFBD270470022F6E710B5BC
:1001700013460A4604461946FFF7F0FF204610BD15
:1001800096230022114600F009B80029A8BF704745
:10019000401C490008BF20F00100704710B4B0FABD
:1001A00080FC00FA0CF050EA010404BF10BC704758
:1001B00049B1CCF1200421FA04F411FA0CF118BF72
:1001C000012121430843A3EB0C01CB1D4FEA006141
:1001D0004FEA102042BF002010BC704700EBC35014
:1001E00010440029A4BF10BC7047401C490008BF40
:1001F00020F0010010BC7047064C074D06E0E06897
:1002000040F0010394E8070098471034AC42F6D35D
:10021000FFF78CFF1C3A00083C3A000810B5024872
:1002200000F041FE10BD00002801002038B5044652
:1002300000250020009020680068C0F3801090BB6B
:100240002068806840F001002168886017480068D5
:100250001749B0FBF1F000EB4000009002E000987D
:10026000401E009000980028F9D101F03FFA0546A1
:1002700013E001F03BFA401B02280ED9E06C40F07D
:100280001000E064206D40F00100206500BF0020F8
:1002900084F8480000BF012038BD20680068C0F322
:1002A00080100028E5D00020F6E7000008010020BB
:1002B00040420F0010B513480168134800F066F87B
:1002C00010480168114800F055F80E4808210268EE
:1002D0000F4800F0C5F80B48102102680C4800F0E8
:1002E00065F80C4802680C4801680C48006802F088
:1002F000BFFA08480268084801680848006803F027
:1003000037FA10BD24000020140000201600002041
:1003100000040240200000201C00002018000020E3
:100320002DE9F84304460D4616461F46DDF82080A9
:100330000C48008800900C48038822464FF4004186
:100340000A4800F059F82088012809D1D8F800306F
:100350003A682846316802F049FD012004490880C6
:10036000BDE8F883160000201400002000000240C1
:10037000300000200288012A06D10A6812B10A68FA
:10038000521E0A6002220280704700000288012A81
:1003900008D1054B0A689A4202D20A68521C0A60C8
:1003A00002220280704700007F96980070B50546D3
:1003B0000E4614463146284601F08AF970B90120EC
:1003C0000B4908800B480088C82807DD206828B141
:1003D0000020084908802068401E206031462846D9
:1003E00001F076F9012802D100200149088070BD92
:1003F00002000020060000202DE9F0410746884653
:1004000014461D46069E4146384601F061F990B9F2
:10041000208880B97DB976B901200F4908800F483E
:100420000088B0F5FA6F06DD0120208000200B491E
:100430000880094908804146384601F049F90128F9
:1004400003D0012D01D0012E04D1002003490880E2
:1004500001490880BDE8F081040000200A00002066
:1004600070B505460E4614463146284601F030F96F
:1004700060B901200A4908800A480088C82805DDBB
:100480000020084908802068401C2060314628462A
:1004900001F01EF9012802D100200149088070BD39
:1004A000000000200600002000BFFEE72DE9F05FFD
:1004B00004460D4616461F46DDE90CABDDE90A8908
:1004C0000020383404F8380C04F8375C04F8366C33
:1004D00044F8347C24F8308C44F82C9C24F828AC64
:1004E00044F804BC0E9820800F986060109820811A
:1004F0001198E0601298208213986061149820830C
:10050000282060770620A0760C20E0761420207743
:10051000383C322000F03CF800223321204600F025
:100520006BF8052000F034F800223321204600F05B
:1005300063F8052000F02CF800223221204600F05C
:100540005BF8052000F024F894F8521000222046B1
:1005500000F052F894F853100022204600F04CF8B6
:1005600094F854100022204600F046F894F85510F4
:100570000022204600F040F800220121204600F031
:100580003BF800220221204600F036F8BDE8F09F3B
:1005900010B50446204600F0F1FE10BDF8B5044643
:1005A0000D461646002713A0006800906078A84208
:1005B00002DC6078401EC5B2A078B04202DCA078B0
:1005C000401EC6B21DF806002844C7B22078102885
:1005D00006D147F080010022204600F08BF807E0AA
:1005E000207828B947F080010022204600F004F866
:1005F000F8BD0000004014542DE9F04104460F46B8
:1006000090463D113E46B8F1000F05D121890022E8
:10061000606801F065F807E0B8F1010F04D12189A5
:100620000122606801F05CF805F001020C34A18D34
:10063000A06A01F055F8A18EC5F34002206B01F0CD
:100640004FF8A18FC5F38002A06B01F049F8B4F810
:100650004410C5F3C002206C01F042F8A1880022CA
:10066000206801F03DF80120FFF792FFA1880122E8
:10067000206801F035F80120FFF78AFFA1880022E9
:10068000206801F02DF80120FFF782FF06F001023B
:10069000A18DA06A01F024F8A18EC6F34002206B60
:1006A00001F01EF8A18FC6F38002A06B01F018F8CC
:1006B000B4F84410C6F3C002206C01F011F8A18810
:1006C0000022206801F00CF80120FFF761FFA188EB
:1006D0000122206801F004F80120FFF759FFA188EA
:1006E00054F80C09002200F0FBFF0120FFF750FF37
:1006F000BDE8F08170B504460D4616462EB9218935
:100700000022606800F0ECFF06E0012E04D1218990
:100710000122606800F0E4FF05F00102218B6069AE
:1007200000F0DEFF218CC5F34002E06900F0D8FF45
:10073000218DC5F38002606A00F0D2FF218EC5F3DF
:10074000C002E06A00F0CCFF218FC5F30012606B9D
:1007500000F0C6FFB4F84010C5F34012E06B00F0A3
:10076000BFFFB4F84810C5F38012606C00F0B8FF0A
:10077000EA09B4F85010E06C00F0B2FF218A0022C0
:10078000E06800F0ADFF0120FFF702FF218A01229F
:10079000E06800F0A5FF0120FFF7FAFE218A0022A1
:1007A000E06800F09DFF0120FFF7F2FE70BD70B51C
:1007B00004460D462078102805D1012229462046FE
:1007C000FFF798FF06E0207820B90122294620464D
:1007D000FFF712FF70BD70B505460C4604E014F833
:1007E000011B2846FFF7E3FF20780028F7D170BDF2
:1007F0001CB50C480C490D4B0D4ACDE900100D49B4
:100800000D4800F039F80A490B48008800F096F8C6
:100810000948008800F0DEF80748008800F00EF86C
:100820001CBD0000E4000020E0000020DC000020EF
:10083000EE000020EA000020E800002010B5044689
:10084000ACB94FF480610A4800F042FF28B909486A
:10085000008810B90120074908804FF480610448DE
:1008600000F036FF012802D100200249088010BDA7
:1008700000080240160000202DE9FC470446884687
:1008800091461D46DDE90A674FF48051224800F089
:100890001FFF10B901202149088020480088012845
:1008A00038D101031C4800F013FF012832D1002089
:1008B0001A490880208810B90120208001E000201A
:1008C00020802088012816D1A8F80000144800686C
:1008D0002860144800683060134800683860386841
:1008E0003168CDE9001011482B68114902681148A0
:1008F00000F094F908E00A4928680860094930685E
:1009000008600949386808600120A9F80000044817
:1009100009490860BDE8FC8700080240100000207B
:10092000180000201C000020200000202C000020C7
:1009300000FD010810F801082400002070B50546EC
:100940000C464FF400411C4800F0C2FE10B90120D3
:100950001A4908801948008801282CD1C10316487B
:1009600000F0B6FE012826D1002014490880144862
:100970000088E8B902F052FE2088032802D1012045
:10098000208002E02088401C20802088012802D19D
:100990000C480D4908602088022802D10B480A49FA
:1009A00008602088032806D109480749086002E04A
:1009B00000200349088070BD0000024012000020A2
:1009C0003000002018000020240000201C0000201F
:1009D0002000002010B50446ACB94FF400610A486D
:1009E00000F076FE28B90948008810B901200749AF
:1009F00008804FF40061044800F06AFE012802D12B
:100A000000200249088010BD0008024014000020A8
:100A100010B50E48008801280AD102F0D3F902F07F
:100A2000DBF900200A4908800A4908600749088064
:100A30000948008840B902F0C5F902F0CDF900205C
:100A4000034908800349086010BD0000EA00002047
:100A5000EC000020D8000020E800002070470000D3
:100A600010B50C4A0C490D4802F066FA0948028894
:100A7000094801880948008801F024FF05480288D8
:100A8000054801880548008802F05AFE044802F033
:100A900047FE10BDF6000020F4000020F200002008
:100AA000F8010020704700000021094A51610949FE
:100AB000096841F40071074A11601146096841F064
:100AC00008011160002120F0FF0211607047000052
:100AD000E0150020043C0240014608687047000011
:100AE00000202749096801F48071B1F5807F07D1A2
:100AF0002449496941F00201224A516140F4807061
:100B00001F49096801F40071B1F5007F07D11D4943
:100B1000496941F001011B4A516140F400701849D4
:100B2000096801F40061B1F5006F07D11549496901
:100B300041F00401134A516140F400601049096812
:100B400001F40051B1F5005F07D10E49496941F048
:100B500010010C4A516140F400500949096801F440
:100B60008051B1F5805F07D10649496941F0200104
:100B7000044A516140F48050014908607047000008
:100B8000183C0240E015002070B5044600F0AEFDB0
:100B9000054609E0601C38B124B100F0A7FD401BF8
:100BA000A04201D9032070BD1B48006800F001007D
:100BB0000028EFD11848006800F00200022801D197
:100BC000154908601448006800F48070B0F5807F13
:100BD0001BD01148006800F40060B0F5006F14D01D
:100BE0000D48006800F40050B0F5005F0DD00A48D1
:100BF000006800F48050B0F5805F06D006480068B9
:100C000000F40070B0F5007F03D1FFF769FF012009
:100C1000C9E70020C7E70000183C02402DE9FF4764
:100C200004460D4617461E46DDE90C8900F036FCE9
:100C3000002001900294281B000A039000200090DD
:100C4000694601A800F0AEFB3A462146022000F0BA
:100C5000FBFB3246211D022000F0F6FB424604F168
:100C60000801022000F0F0FB4A4604F10C010220CA
:100C700000F0EAFB00F0DEFBBDE8FF8707480068F4
:100C8000401C06490860084600680549884202D3AE
:100C90000020024908600148006870470C000020ED
:100CA000185826057047000038B50246002300207A
:100CB000009000BF92F84800012801D1022038BD01
:100CC000012082F8480000BF4868072812D2106847
:100CD000006C0C79641E04EB84051F24AC40A04317
:100CE0000D796D1E05EB85050C68AC40204314683A
:100CF000206453E048680D2812D21068C06B0C794C
:100D0000E41F04EB84051F24AC40A0430D79ED1FC4
:100D100005EB85050C68AC4020431468E0633DE0BA
:100D20004868132812D21068806B0C790D3C04EBD4
:100D300084051F24AC40A0430D790D3D05EB8505CE
:100D40000C68AC4020431468A06327E04868192869
:100D500012D21068406B0C79133C04EB84051F24FD
:100D6000AC40A0430D79133D05EB85050C68AC4004
:100D700020431468606311E01068006B0C79193C23
:100D800004EB84051F24AC40A0430D79193D05EB0D
:100D900085050C68AC4020431468206308680A2865
:100DA00010D2106840690C7804EB44050724AC406D
:100DB000A0430D7805EB45058C68AC4020431468D2
:100DC00060612CE00868142812D2106800690C7861
:100DD0000A3C04EB44050724AC40A0430D780A3DCF
:100DE00005EB45058C68AC4020431468206116E093
:100DF00008681A2812D81068C0680C78143C04EBF4
:100E000044050724AC40A0430D78143D05EB45058F
:100E10008C68AC4020431468E06000E000BF0868C4
:100E2000102802D0086811281DD11248006800F46B
:100E30000000C0B90F48006840F400000D4C20606D
:100E4000086810280FD10C4800680C4CB0FBF4F077
:100E500000EB80004000009002E00098401E0090EF
:100E600000980028F9D100BF002082F8480000BF98
:100E7000184624E7042701400801002040420F00E3
:100E800070B50446204600F00AF80546FFF778F9E9
:100E90000149086070BD0000F8000020704701465D
:100EA0000868806D704710B504462068406800F0FF
:100EB0002000202838D12068006800F002000228B5
:100EC00032D1E06C00F0100018B9E06C40F4007012
:100ED000E0642068806800F04050F0B994F8240085
:100EE000D8B92068006B00F0F87020B120688068E5
:100EF00000F4806088B92068406820F020002168F4
:100F00004860E06C20F48070E064E06C00F4805095
:100F100018B9E06C40F00100E0642046FFF7B0FF34
:100F20006FF01200216808602068406800F08000BF
:100F3000802842D12068006800F0040004283CD1D9
:100F4000E06C00F0100018B9E06C40F40050E06470
:100F50002068806800F4401040BB2068406C00F4BA
:100F6000401020B12068806800F48060F0B92068EB
:100F7000406800F48060C8B92068806800F0405084
:100F8000A0B994F8240088B92068406820F0800057
:100F900021684860E06C20F48050E064E06C00F46C
:100FA000807018B9E06C40F00100E0642046FFF763
:100FB00079FE6FF00C00216808602068406800F03E
:100FC000400040280FD12068006800F0010050B1B7
:100FD000E06C40F48030E064204600F00DF96FF0E2
:100FE0000100216808602068406800F08060B0F16E
:100FF000806F14D12068006800F0200020280ED1F6
:10100000206D40F0020020656FF02000216808602C
:101010002046FFF743FF6FF020002168086010BDF5
:10102000F8B504460027002600250CB90120F8BDBC
:10103000206918B194F82C0000B100BF606B102833
:1010400000D000BFE06CA0B90020206584F8480003
:1010500000BF6448006840F001006249086008462B
:10106000006800F00100009000BF00BF204600F0C3
:10107000C5F8E06C00F01000002878D1E06C20F496
:10108000885040F00200E0645748006820F4403087
:1010900061680843544908606169E068084394F84E
:1010A0003C104FF4007292FAA2F2B2FA82F291402E
:1010B0000843216A084394F82410022292FAA2F20B
:1010C000B2FA82F2914008430543606B102803D0C6
:1010D000D4E90D010843054320680068C0F380107F
:1010E000A0BBA0690543E169A06808432169B1F587
:1010F000807F02D02169012902D14FF4807100E084
:1011000000210843064394F82C00012817D194F8D5
:10111000240060B9206B401E4FF4604191FAA1F1A8
:10112000B1FA81F1884040F40060064307E0E06CCA
:1011300040F02000E064206D40F001002065206850
:1011400040682A4908403043216848602068806828
:10115000274908402843216888602069B0F5807FCE
:1011600002D02069012803D14FF4807001E035E0FE
:101170000020B0F5807F10D12068006B20F0F8715E
:10118000A06A401E4FF0F87292FAA2F2B2FA82F20E
:10119000904001432068016305E02068006B20F067
:1011A000F870216808632068806812490840A842E6
:1011B00008D100202065E06C20F0020040F0010022
:1011C000E0640CE0E06C20F0020040F01000E0640D
:1011D000206D40F001002065012700E0012738461E
:1011E00025E700002038024004270140FF16FCFCE0
:1011F00089F1FFC0FEFF80BF7047000010B586B0C8
:101200000446142101A8FEF7B0FF1A49206888425D
:101210002DD100BF1848006840F4007016490860DE
:101220000846006800F40070009000BF00BF00BFD7
:10123000081F006840F00400091F086008460068A5
:1012400000F00400009000BF00BF102001900320B8
:1012500002900020039001A9084800F051F90022F3
:101260001146122000F0CEFA122000F0BBFA06B0B0
:1012700010BD000000240140203802400008024058
:1012800070B50446002500BF94F84800012801D13C
:10129000022070BD012084F8480000BF2046FEF700
:1012A000C5FF0546C5BBE06C40F20161884340F4D0
:1012B0008070E0642068406800F4806028B1E06CD1
:1012C00020F4005040F48050E064E06C00F4805062
:1012D000B0F5805F04D1206D20F00600206501E0AC
:1012E0000020206500BF002084F8480000BF6FF098
:1012F0002200216808602068406808490843216886
:1013000048602068806800F0405028B920688068F4
:1013100040F08040216888602846BAE72000000439
:1013200070B50446002594F82100022803D004205B
:10133000A063012520E02068006820F00E002168ED
:1013400008602068006820F001002168086094F8B7
:10135000400000F01C0101208840E16B4860012042
:1013600084F8210000BF002084F8200000BF606BDB
:1013700010B12046616B8847284670BD70B50446A1
:1013800000F0B4F906462546681C10B10448006810
:10139000054400BF00F0AAF9801BA842FAD370BD33
:1013A000040100202DE9F04104460E4601270025E6
:1013B00000BF1E48007C012802D10220BDE8F08158
:1013C00001201A49087400BF4CF25030FFF7DCFBD3
:1013D00007461FBB4FF0FF303060656817E02846B6
:1013E000FFF762FB4CF25030FFF7CEFB0746104888
:1013F000006820F008000E4908600846006820F4E4
:10140000007008600FB1356007E005F58075D4E91C
:10141000011001EB0020A842E1D800BF00BF00206E
:101420000249087400BF3846C8E70000E0150020F4
:10143000043C02400348006840F002000149086093
:1014400000207047043C02402DE9F04107460C465D
:101450001546012600BF1048007C012802D1022059
:10146000BDE8F08101200C49087400BF4CF25030F7
:10147000FFF78AFB064646B9002007494861256008
:101480004CF25030FFF780FB064600BF00200249B7
:10149000087400BF3046E3E7E015002013480068F9
:1014A00000F0020002281FD11048006800F001007F
:1014B00060B10F480D49083108600E4808600B48BC
:1014C000006800F0010008B1012070470A48074990
:1014D0000C310860094808600448006800F0020008
:1014E000022801D10120F0E70020EEE7043C024091
:1014F000EFCDAB8905040302BFAE9D8C1615141306
:1015000078B50346002200240020CAE00126964058
:101510000D6805EA0604002C71D04D68022D02D03A
:101520004D68122D13D1D60803F1200555F8260079
:101530005507EE0E0F25B540A8435607F60E0D6968
:10154000B5402843D60803F1200545F82600186861
:1015500056000325B540A8430D7905F00305560054
:10156000B540284318604D68012D08D04D68022D04
:1015700005D04D68112D02D04D68122D13D19868F9
:1015800056000325B540A8435600CD68B540284312
:101590009860586801259540A8430D79C5F300155A
:1015A000954028435860D86856000325B540A843A5
:1015B00056008D68B5402843D8604D6805F08055C9
:1015C000B5F1805F6CD100BF394D2D6845F0010544
:1015D000374E356035462D6805F00105009500BF92
:1015E00000BF344D960855F8260095072E0F0F259D
:1015F000B540A843304DAB4202D1002515E04FE085
:101600002E4DAB4201D101250FE02D4DAB4201D152
:1016100002250AE02B4DAB4201D1032505E02A4DFE
:10162000AB4201D1042500E005259607360FB540F1
:101630002843204D960845F82600244D2868A043ED
:101640004D6805F48035B5F5803F00D120431F4D2E
:1016500028602D1D2868A0434D6805F40035B5F5B8
:10166000003F00D12043194D2D1D28602D1D2868F5
:10167000A0434D6805F48015B5F5801F00D12043C7
:10168000124D083528602D1D2868A0434D6805F4CB
:101690000015B5F5001F00D120430C4D0C35286016
:1016A000521C0D68D540002D7FF430AF78BD00008E
:1016B00020380240080001400000024000040240BF
:1016C00000080240000C02400010024000040140EB
:1016D000024613690B400BB1012000E00020704767
:1016E0000AB1816101E00B04836170470148006821
:1016F00070470000FC0000200348006803490968A7
:101700000844014908607047FC00002004010020E3
:1017100010B50024032000F0B3F8002000F008F812
:1017200008B1012401E000F02FF8204610BD0000B0
:1017300070B50446002511480068D8B10F4800680C
:101740004FF47A71B1FBF0F00D490968B1FBF0F686
:10175000304600F03BFD58B9102C07D2002221463C
:10176000501E00F04FF80748046004E0012502E035
:10177000012500E00125284670BD0000040100207D
:10178000080100200001002008B500BF14480068CF
:1017900040F00040124908600846006800F0004030
:1017A000009000BF00BF00BF081F006840F00100AC
:1017B000091F08600846006800F00100009000BFA3
:1017C00000BF00BF081D006840F08050091D086080
:1017D0000846006800F08050009000BF00BF08BDC0
:1017E0002438024001460846002809DB00F01F03A8
:1017F00001229A4043099B0003F1E023C3F8002132
:1018000000BF70472DE9F05F80460D461646002761
:1018100001F0FEFF074639462A46334601F007002D
:10182000C0F1070ABAF1040F02D94FF0040A01E02F
:10183000C0F1070AD14600F1040ABAF1070F02D23B
:101840004FF0000A01E0A0F1030AD4464FF0010A6C
:101850000AFA09FAAAF1010A0AEA020A0AFA0CFAD1
:101860004FF0010B0BFA0CFBABF1010B0BEA030B76
:101870004AEA0B042146404601F0D2FFBDE8F09F42
:1018800000BF00F00702064B19684FF6FF0319402E
:10189000044B0B4343EA0221014B196000BF704720
:1018A0000CED00E00000FA052DE9F04104460D467C
:1018B00014B90120BDE8F0817E48006800F0010005
:1018C000A84218D200BF012D05D17A48006840F027
:1018D0000400784908607748006820F00100284338
:1018E0007449086000BF0846006800F00100A84283
:1018F00001D00120DEE7207800F00200022807D1A5
:101900006D48006820F0F000A16808436A4908604B
:10191000207800F0010000287FD06068022807D1FD
:1019200065480838006800F40030F8B90120C1E7C4
:101930006068032807D160480838006800F000702C
:10194000A0B90120B6E76068012807D15A480838D5
:10195000006800F0020048B90120ABE7564808389B
:10196000006800F4007008B90120A3E7524800683D
:1019700020F00300616808434F490860FFF7B6FE96
:1019800006466068022810D108E0FFF7AFFE801B12
:1019900041F28831884201D903208BE7464800682C
:1019A00000F00C000828F0D137E06068032810D15F
:1019B00008E0FFF79BFE801B41F28831884201D985
:1019C000032077E73C48006800F00C000C28F0D1B9
:1019D00023E06068012810D108E0FFF787FE801B34
:1019E00041F28831884201D9032063E73248006818
:1019F00000F00C000428F0D10FE008E0FFF776FEBD
:101A0000801B41F28831884201D9032052E72A48DD
:101A1000006800F00C000028F0D12648006800F0B3
:101A20000100A84218D900BF012D05D12148006846
:101A300040F004001F4908601E48006820F00100C3
:101A400028431C49086000BF0846006800F00100F8
:101A5000A84201D001202DE7207800F004000428DE
:101A600007D11548006820F4E060E1680843124996
:101A70000860207800F00800082808D10E480068A7
:101A800020F46050216940EAC1000B49086000F071
:101A900041F809490968C1F30311084A515CC8407B
:101AA0000749086007480068FFF742FE07463846C6
:101AB00000E70000003C024008380240B13900084D
:101AC0000801002000010020014800687047000064
:101AD0000801002000B5FFF7F7FF04490968C1F3CA
:101AE0000221034A515CC84000BD00000838024092
:101AF000C139000800B5FFF7E7FF04490968C1F3E1
:101B0000C221034A515CC84000BD000008380240B1
:101B1000C1390008F0B51A4E316801F00C0616B351
:101B2000042E04D0082E04D00C2E1BD103E015483F
:101B300023E0154821E0154EC1F38347F25DC1F360
:101B40008156731C0E4E366806F4803626B10E4E52
:101B50005643B6FBF3F403E00A4E5643B6FBF3F4E8
:101B600020460AE000BF064E361F3668C6F34235EF
:101B70006E1C0127B740F80300BF00BFF0BD000096
:101B8000083802400024F40000366E01A83900082D
:101B90002DE9F843044614B90120BDE8F883FE4856
:101BA000006800F00C06FC48006800F480372078DC
:101BB00000F00100002875D0082E04D00C2E0ED1A4
:101BC000B7F5803F0BD1F4480838006800F40030C6
:101BD000002867D06068002864D10120DDE700BFDD
:101BE0006068012808D1EC480838006840F480306B
:101BF000E949083908602DE0606868B9E6480838A6
:101C0000006820F48030E44908390860084600681C
:101C100020F4802008601DE0606805280DD1DE48B2
:101C20000838006840F48020DB490839086008461D
:101C3000006840F4803008600CE0D748083800683D
:101C400020F48030D449083908600846006820F440
:101C50008020086000BF606890B1FFF747FD05462F
:101C600006E0FFF743FD401B642801D9032094E7F9
:101C7000C9480838006800F400300028F1D011E0AD
:101C8000FFF734FD054606E0FFF730FD401B6428F2
:101C900001D9032081E7C0480838006800F400300B
:101CA0000028F1D1207800F00200022853D1042E40
:101CB00002D00C2E17D1B7B9B7480838006800F029
:101CC000020020B1E068012801D0012065E7B24898
:101CD000001F006820F4F850216940EA0120AE4955
:101CE000091F086037E0E06800B30120AB490860D5
:101CF000FFF7FCFC054606E0FFF7F8FC401B022856
:101D000001D9032049E7A4480838006800F0020020
:101D10000028F1D0A048001F006820F4F850216985
:101D200040EA01209C49091F086014E000209B49FB
:101D30000860FFF7DBFC054606E0FFF7D7FC401B19
:101D4000022801D9032028E793480838006800F0EA
:101D500002000028F1D1207800F01000102871D185
:101D6000F6BB8D480838006800F4007018B1A0690F
:101D700008B9012011E78849091F206A096801F4A0
:101D80006041884219D9206A00F0A0FF08B1012003
:101D900003E78148001F006820F46040216A08437F
:101DA0007D49091F0860217F7B48001F006861F39F
:101DB0001F607949091F08601AE07748001F006812
:101DC00020F46040216A08437349091F0860217F9D
:101DD0007148001F006861F31F606F49091F00E030
:101DE00020E00860206A00F071FF08B10120D4E60D
:101DF0000121206A01EB503101208840C00366496F
:101E00000968C1F30311664A515CC840654908601E
:101E100065480068FFF78CFC8046B8F1000F42D09F
:101E20004046BAE6A06948B301205C490862FFF762
:101E30005DFC054607E0FFF759FC401B022802D96C
:101E40000320AAE62FE054480838006800F4007028
:101E50000028F0D05048001F006820F46040216A3C
:101E600008434D49091F0860217F4B48001F006847
:101E700061F31F604849091F086014E000204749CA
:101E80000862FFF733FC054606E0FFF72FFC401B16
:101E9000022801D9032080E63F480838006800F492
:101EA00000700028F1D1207800F0080008282CD11B
:101EB0006069A8B101203D490860FFF717FC05469D
:101EC00006E0FFF713FC401B022801D9032064E65B
:101ED00031482C30006800F002000028F1D014E0F6
:101EE000002032490860FFF701FC054606E0FFF7D5
:101EF000FDFB401B022801D903204EE626482C306A
:101F0000006800F002000028F1D1207800F0040001
:101F100004286ED14FF000091F481C30006800F003
:101F2000805088B900BF1C481C30006840F08050C9
:101F300019491C3108600846006800F08050009084
:101F400000BF00BF4FF001091948006800F480701D
:101F5000B0B91748006840F4807015490860FFF771
:101F6000C5FB054606E0FFF7C1FB401B642801D90D
:101F7000032012E60E48006800F480700028F2D0BA
:101F800000BFA068012817D103482C30006840F436
:101F9000807001492C310DE00838024000004742B2
:101FA000B1390008080100200001002080064742E6
:101FB00000700040086028E0A06858B966480068D2
:101FC00020F48070644908600846006820F480604E
:101FD00008601AE0A06805280CD15F48006840F44A
:101FE00080605D4908600846006840F480700860C1
:101FF0000BE040E05848006820F4807056490860C3
:102000000846006820F48060086000BFA06898B1AE
:10201000FFF76CFB054608E0FFF768FB401B41F249
:102020008831884201D90320B7E54B48006800F4A5
:1020300000700028F0D012E0FFF758FB054608E0DA
:10204000FFF754FB401B41F28831884201D903203D
:10205000A3E54148006800F400700028F0D1B9F110
:10206000010F07D13C481038006820F080503A49F1
:102070001039086000BF606AA8B30C2E52D0606AA5
:10208000022839D1002035490866FFF72FFB0546A5
:1020900006E0FFF72BFB401B022801D903207CE55B
:1020A0002D483438006800F000700028F1D1D4E9E0
:1020B0000A010843216B084327492C39096821F498
:1020C0007D01084324492C39086001202349086612
:1020D000FFF70CFB054607E0FFF708FB401B022853
:1020E00002D9032059E535E01B483438006800F078
:1020F00000700028F0D02DE0002018490866FFF796
:10210000F5FA054606E0FFF7F1FA401B022801D96F
:10211000032042E510483438006800F000700028C1
:10212000F1D117E0606A012800D136E50A482C3861
:10213000076807F48031A06A814209D107F4701161
:10214000E06A814204D107F44001206B814201D052
:10215000012022E5002020E53438024000004742FB
:1021600000B5FEF78BFD13480088012804D1124802
:102170000088401C1049088010480088012803D0BE
:102180000F480088012805D10E480088401C0D49E1
:10219000088004E000200B4908800B4908800948AA
:1021A0000088B0F5FA7F04DD07480088401C064926
:1021B000088000BD040000200A000020000000206C
:1021C00002000020080000200600002070B5044630
:1021D0002546681EB0F1807F01D301200FE0681E04
:1021E0004FF0E02148610F214FF0FF3001F018FB64
:1021F00000204FF0E021886107200861002070BDB9
:1022000010B5FFF7ADFF10BD10B5024600BF92F844
:102210003800012801D1022010BD012082F83800C9
:1022200000BF022082F83900106843681068846893
:1022300023F070030868034324F0800448680443D3
:102240001068436010688460012082F8390000BF84
:10225000002082F8380000BF00BFDDE710B504465B
:102260000CB9012010BD94F8390028B9002084F879
:102270003800204600F00CF8022084F83900211DB7
:10228000206800F007FF012084F839000020E9E70A
:1022900038B504462068B0F1804F15D100BF0B4817
:1022A000006840F00100094908600846006800F035
:1022B0000100009000BF00BF002211461C20FFF764
:1022C000A1FA1C20FFF78EFA38BD00002438024026
:1022D00001460868C06840F001000B68D8600868D3
:1022E000806800F00702062A05D00868006840F000
:1022F00001000B681860002070472DE9F04104468A
:102300000D4600BF94F83800012802D10220BDE834
:10231000F081012084F8380000BF022084F83900E1
:102320002068866826F0770626F47F462068866057
:102330002868502833D00CDC202850D004DC00283A
:102340004BD0102851D149E0302849D040284CD1F9
:1023500039E060282DD0702807D0B0F5805F03D019
:10236000B0F5005F41D10DE040E0D5E902136A68A5
:10237000206800F0D7FE2068866846F0770620685F
:10238000866033E0D5E902136A68206800F0CAFE6F
:102390002068806840F480402168886026E0EA6810
:1023A0006968206800F0D2FE5021206800F0C5FE68
:1023B0001CE0EA686968206800F0DBFE60212068A4
:1023C00000F0BBFE12E0EA686968206800F0BEFE1B
:1023D0004021206800F0B1FE08E000BF00BF00BF50
:1023E0002968206800F0A9FE00E000BF00BF0120BE
:1023F00084F8390000BF002084F8380000BF00BF17
:1024000085E7704710B5044620680069C0F34000B6
:10241000D8B12068C068C0F34000B0B16FF00200CE
:1024200021680861012020762068806900F003009F
:1024300018B12046FFF7E5FF05E0204600F08BF8D5
:10244000204600F089F80020207620680069C0F35B
:102450008000D8B12068C068C0F38000B0B16FF0D0
:10246000040021680861022020762068806900F459
:10247000407018B12046FFF7C4FF05E0204600F089
:102480006AF8204600F068F800202076206800698D
:10249000C0F3C000D8B12068C068C0F3C000B0B1BC
:1024A0006FF0080021680861042020762068C06968
:1024B00000F0030018B12046FFF7A3FF05E0204617
:1024C00000F049F8204600F047F800202076206808
:1024D0000069C0F30010D8B12068C068C0F30010D4
:1024E000B0B16FF0100021680861082020762068E4
:1024F000C06900F4407018B12046FFF782FF05E084
:10250000204600F028F8204600F026F8002020762B
:102510002068006900F0010058B12068C06800F030
:10252000010030B16FF0010021680861204600F021
:1025300015F820680069C0F3801058B12068C068A1
:10254000C0F3801030B16FF0400021680861204670
:1025500000F00CF810BD7047704700000249096890
:10256000491C014A11607047D8000020704770472D
:102570002DE9F0470446206805682068C668206891
:1025800047694FF00008C14605F00F08B8F1000F89
:102590000AD105F0200038B106F0200020B1204615
:1025A00000F025FEBDE8F087B8F1000F6ED007F00F
:1025B000010018B906F49070002867D005F00100FA
:1025C00030B106F4807018B1E06B40F00100E063B8
:1025D00005F0040030B107F0010018B1E06B40F0E5
:1025E0000200E06305F0020030B107F0010018B10D
:1025F000E06B40F00400E06305F0080030B107F044
:10260000010018B1E06B40F00800E063E06B70B3CC
:1026100005F0200028B106F0200010B1204600F09F
:10262000E6FD20684069C0F38019E06B00F0080007
:1026300010B9B9F1000F23D0204600F0B8FD206892
:10264000406900F04000402816D12068406920F021
:10265000400021684861606B50B11748616B486366
:10266000606BFEF75DFE10B1606B416B88470CE05C
:102670002046FFF77CFF08E02046FFF778FF04E0E4
:102680002046FFF774FF0020E0638BE705F0800031
:1026900030B106F0800018B1204600F083FF81E7DA
:1026A00005F0400030B106F0400018B1204600F0BF
:1026B0008EFD77E700BF75E79B31000810B5044633
:1026C0000CB9012010BDA06900B100E000BF94F872
:1026D000390028B9002084F83800204600F028F896
:1026E000242084F839002068C06820F40050216854
:1026F000C860204600F0CEFD2068006920F49040BC
:10270000216808612068406920F02A00216848613A
:102710002068C06840F400502168C8600020E06371
:10272000202084F8390084F83A000020CAE700002D
:1027300010B586B00446142101A8FDF716FD1D4909
:102740002068884233D100BF1B48006840F4003045
:10275000194908600846006800F40030009000BF86
:1027600000BF00BF14480838006840F0010012495B
:10277000083908600846006800F00100009000BFBA
:1027800000BF0C2001900220029001200390032042
:1027900004900720059001A90848FEF7B1FE002229
:1027A00001212620FFF72EF82620FFF71BF806B0A0
:1027B00010BD0000004400402438024000000240E8
:1027C00010B5034693F83A0020282FD101B10AB979
:1027D000012010BD00BF93F83800012801D102206C
:1027E000F7E7012083F8380000BF99629A85DA85FF
:1027F0000020D863222083F83A0000BF002083F82D
:10280000380000BF1868C06840F480701C68E06041
:102810001868406940F001001C6860611868C06871
:1028200040F020001C68E0600020D2E70220D0E7E2
:1028300010B504460A492068096888420ED1094843
:102840000179C288C088401C064BD88003F108007B
:1028500081540122011F0248FFF7B2FF10BD0000A2
:10286000B801002050020020704700BFFEE70000C2
:1028700010B50E4B1B68984204D00C4B1860012316
:102880000B4C23810B4B1B68994204D0094B1960F8
:102890000123094C2381094B1B689A4204D0074B42
:1028A0001A600123064C238110BD00003400002073
:1028B000B400002038000020C00000203C000020B0
:1028C000CC00002070B504460D461646FEF7D6F93A
:1028D00014490968884202D2002012490860FEF7B4
:1028E000CDF910490968401AB0F57A7F06D9FEF78C
:1028F000C5F90C49086001200B4908810B48008884
:10290000A84204D0094805800120094908810948E6
:102910000088A04204D007480480012006490881AD
:1029200070BD000040000020A800002044000020EE
:102930009C00002046000020900000202DE9F0417E
:1029400080460C4615461E46069F2889012807D159
:10295000012C05D12946404600F077F80020288157
:102960003089012807D1022C05D13146404600F0BC
:102970006CF8002030813889012807D1032C05D15B
:102980003946404600F061F800203881BDE8F0810A
:1029900070B506460C4615462089012807D1214608
:1029A000304600F052F8002020810120288170BDBF
:1029B0002DE9F04107460E4614461D463089012890
:1029C00005D13146384600F040F80020308120899A
:1029D000012805D12146384600F037F80020208133
:1029E0002889012805D12946384600F02EF8002014
:1029F0002881BDE8F0812DE9F04180460C4615465E
:102A00001E46069F012C08D12889012805D1294698
:102A1000404600F01AF800202881022C08D13089A5
:102A2000012805D13146404600F00FF800203081E2
:102A3000032C08D13889012805D13946404600F0D9
:102A400004F800203881BDE8F08170B505460C46D9
:102A5000A27921792846FDF7A1FD28462168FDF7D6
:102A6000BAFE70BD0EB5002000900190029018488B
:102A700018490860002048604FF080711548816057
:102A80000021C160016141618161C161016280F821
:102A9000241001218162002180F82C101021416353
:102AA0000021816380F83C10FEF7BAFA08B1FDF707
:102AB000F9FF0E200090012001900020029069464D
:102AC0000448FEF7F1F808B1FDF7ECFF0EBD000079
:102AD000002401402801002000B587B0142102A87D
:102AE000FDF743FB00BF4948006840F0010047493B
:102AF00008600846006800F00100019000BF00BFB8
:102B000000BF0846006840F00400086008460068FE
:102B100000F00400019000BF00BF00BF084600683D
:102B200040F0020008600846006800F002000190D2
:102B300000BF00BF00BF0846006840F00800086002
:102B40000846006800F00800019000BF00BF0022A6
:102B500048F23F012E48FEF7C3FD00224FF470718A
:102B60002C48FEF7BDFD00224FF480712A48FEF785
:102B7000B7FD002204212948FEF7B2FD48F23F00CC
:102B800002900120039000200490059002A92048A3
:102B9000FEF7B6FC4FF47070029001200390002005
:102BA0000490059002A91B48FEF7AAFC4FF4807020
:102BB00002900120039000200490059002A916487D
:102BC000FEF79EFC4FF4004002900020039001208D
:102BD000049002A91048FEF793FC4FF4E0500290D5
:102BE000002003900120049002A90A48FEF788FC07
:102BF000042002900120039000200490059002A977
:102C00000648FEF77DFC07B000BD00001C380240FE
:102C1000000402400008024000000240000C024094
:102C200000B587B0002003900490059006900190B5
:102C300002904FF08040144908604FF47A50486089
:102C40000021114881604FF47A71C1600021016157
:102C50004161FFF703FB08B1FDF724FF4FF48050FB
:102C6000039003A90848FFF748FB08B1FDF71AFFD6
:102C700000200190029001A90348FFF7C5FA08B1AE
:102C8000FDF710FF07B000BD7C01002010B50B4818
:102C90000B4908604FF4E13048600021084881602A
:102CA000C16001610C21416100218161C161FFF7B7
:102CB00005FD08B1FDF7F6FE10BD00000044004020
:102CC000B801002000BFFEE77047704718B5034603
:102CD00000222548006800F0F00050BB22481C305C
:102CE000006800F0805020B12048006800F4C05116
:102CF00018E000BF1C481C30006840F080501A4C9F
:102D00001C3420602046006800F08050009000BF16
:102D100000BF1648006800F4C0512046006820F04B
:102D200080502060B1F5C05F03D1B3F5404F00D1B2
:102D3000012200BF012A05D10D48006840F00400BF
:102D40000B4C20600A48006820F001001043084C3A
:102D5000206000BF2046006800F00100904201D0D2
:102D6000012018BD0020FCE7083802400070004038
:102D7000003C024010B50E48FDF7AEFE0D4908803C
:102D800008460088012811D10948001DFDF7A4FE5E
:102D90000949086006480830FDF79EFE07490860AB
:102DA00003480C30FDF798FE0549086010BD00008F
:102DB00010F80108F0000020DC000020E0000020F6
:102DC000E400002010B5002201210248FEF788FC33
:102DD00010BD00000004024010B50022022102488C
:102DE000FEF77EFC10BD0000000402402DE9F0411A
:102DF00004460F4615461E460E4807600E480560FD
:102E00000E480660012020800A480D4908600B48E2
:102E100002680948016807480068FFF729FD07486C
:102E20000268054801680348006800F0A1FCBDE89D
:102E3000F0810000180000201C000020200000206D
:102E40002400002010B52C48008848B900F060F834
:102E500029480088401C284908800020274908602C
:102E60002548008801280FD12448006824490968B2
:102E7000884209D300F056F81F480088401C1E49BC
:102E8000088000201D4908601B48008802280FD1D7
:102E90001A4800681B490968884209D3FFF79CFF5C
:102EA00015480088401C1449088000201349086018
:102EB0001148008803280FD110480068104909689C
:102EC000884209D3FFF77EFF0B480088401C0A495F
:102ED00008800020094908600748008804280AD1B2
:102EE0000648006808490968884204D3002003495D
:102EF00008600149088010BDEC000020D8000020C7
:102F0000E4000020DC000020E0000020704700000A
:102F100010B5012211460248FEF7E2FB10BD000089
:102F20000004024010B5012202210248FEF7D8FB3E
:102F300010BD000000040240F0B53C233C24194DB4
:102F4000194E36684FF46167B6FBF7F606800688BF
:102F5000C6EB0616B600C6EB0616134F3F68A7EB86
:102F600086063C27B6FBF7F60E800688C6EB0616EB
:102F7000B600C6EB06160C4F3F88A7EB86060F88F7
:102F8000C7EB0717A6EB87061680074E36686F1E3D
:102F9000BE4205D30026044F3E6006800E80168098
:102FA000F0BD000080510100D800002010B5FEF7F0
:102FB000A3FBFFF725F910BD00B593B0342106A897
:102FC000FDF7D3F8142101A8FDF7CFF813480068E6
:102FD00020F4C05040F400601049086002200690C0
:102FE0000120099010200A9000200F9006A8FEF7FB
:102FF000CFFD08B1FDF756FD0F2001900120029092
:103000000020039004900590002101A8FEF74CFCDD
:1030100008B1FDF747FD13B000BD0000007000408F
:103020001448006840F48070124908601148083064
:103030000068114908400F49083108600D480068D0
:103040000E4908400B4908600846006820F48020BB
:10305000086008480830006820F47D000549083100
:1030600008600020091D08604FF0006004490860F6
:1030700070470000003802400CC0FF88FEFFFEEEE3
:1030800008ED00E010B50248FFF7BCF910BD0000E4
:103090007C01002010B50268B0F1804F0BD01B4BB3
:1030A000984208D01A4B984205D01A4B984202D049
:1030B000194B984203D122F070024B681A43B0F1C9
:1030C000804F11D0114B98420ED0114B98420BD02B
:1030D000104B984208D0104B984205D00F4B9842A5
:1030E00002D00F4B984203D122F44072CB681A43AE
:1030F00022F080030C6943EA040202608B68C36219
:103100000B6883620123436110BD0000000400408E
:1031100000080040000C004000080140000C014085
:103120000010014030B50C46816821F47F4142EA2D
:10313000032525432943816030BD0A46816821F07B
:10314000700142F0070319438160704730B50B46A8
:103150001446026A056A25F001050562816921F0BD
:10316000F00141EA041122F00A021A43816102626D
:1031700030BD30B50B461446056A25F010050562D2
:103180008169026A21F4704141EA043122F0A0020F
:1031900042EA03128161026230BD70B505466C6A75
:1031A0000020E085E0842046FFF7E1F970BD01686A
:1031B000C96821F490710268D1600168496921F001
:1031C000010102685161202180F83A10704710B562
:1031D00004462068C06820F040002168C8602020B4
:1031E00084F839002046FFF73FFB002010BD70B582
:1031F000044694F83A0022284AD1A068B0F5805FCE
:1032000013D1A56A206940B920684068C0F308005E
:103210002880A06A801CA06219E020684068C0B2C3
:103220002880A06A401CA06211E0206938B920689B
:103230004068C1B2A26A501CA062117007E0206809
:10324000406800F07F01A26A501CA0621170E08DFE
:10325000401E80B2E085C8B92068C06820F0200018
:103260002168C8602068C06820F480702168C86048
:103270002068406920F0010021684861202084F81E
:103280003A002046FFF7D4FA002070BD0020FCE78A
:103290000220FAE770B504462168096921F440511B
:1032A000E2681143226811612269A16811436269D1
:1032B0001143E26941EA02052168C96849F20C62DA
:1032C000914329432268D1602168496921F4407102
:1032D000A269114322685161E169B1F5004F7DD1C6
:1032E000AF4A2168914255D1FEF704FC00EBC001C2
:1032F00001EB001162685200B1FBF2F16422B1FBF4
:10330000F2F10A0100EBC00101EB001163685B0000
:10331000B1FBF3F100EBC00303EB0013666876002A
:10332000B3FBF6F36426B3FBF6F303EBC30606EB3D
:103330000313A1EB8301322303EBC1016423B1FB2F
:10334000F3F101F0F80102EB410200EBC00101EBE7
:10335000001163685B00B1FBF3F100EBC00303EB0A
:10336000001366687600B3FBF6F36426B3FBF6F34E
:1033700003EBC30606EB0313A1EB8301322303EB3C
:10338000C1016423B1FBF3F101F00701114422688C
:10339000916004E1FEF79EFB00EBC00101EB001120
:1033A00062685200B1FBF2F16422B1FBF2F10A0152
:1033B00000EBC00101EB001163685B00B1FBF3F1AE
:1033C00000EBC00303EB001366687600B3FBF6F373
:1033D0006426B3FBF6F303EBC30600E032E006EB32
:1033E0000313A1EB8301322303EBC1016423B1FB7F
:1033F000F3F101F0F80102EB410200EBC00101EB37
:10340000001163685B00B1FBF3F100EBC00303EB59
:10341000001366687600B3FBF6F36426B3FBF6F39D
:1034200003EBC30606EB0313A1EB8301322303EB8B
:10343000C1016423B1FBF3F101F0070111442268DB
:103440009160ACE0564A2168914254D1FEF752FB9C
:1034500000EBC00101EB001162689200B1FBF2F1D8
:1034600000EBC00202EB001263689B00B2FBF3F2B8
:103470006423B2FBF3F202EBC20303EB0212A1EBF3
:103480008201322202EB01116422B1FBF2F101F060
:10349000F00200EBC00101EB001163689B00B1FB7F
:1034A000F3F16423B1FBF3F102EB011200EBC00175
:1034B00001EB001163689B00B1FBF3F100EBC0036B
:1034C00003EB00136668B600B3FBF6F36426B3FBA8
:1034D000F6F303EBC30606EB0313A1EB83013223E0
:1034E00003EB01116423B1FBF3F101F00F0111446F
:1034F0002268916053E0FEF7EDFA00EBC00101EBAA
:10350000001162689200B1FBF2F100EBC00202EB25
:10351000001263689B00B2FBF3F26423B2FBF3F288
:1035200002EBC20303EB0212A1EB8201322202EB97
:1035300001116422B1FBF2F101F0F00200EBC001D5
:1035400001EB001163689B00B1FBF3F16423B1FB55
:10355000F3F102EB011200EBC00101EB0011636813
:103560009B00B1FBF3F100EBC00303EB00136668B3
:10357000B600B3FBF6F36426B3FBF6F303EBC30626
:1035800006EB0313A1EB8301322303EB0111642348
:10359000B1FBF3F101F00F0111442268916070BD9D
:1035A00000380140014691F8390021282CD1886863
:1035B000B0F5805F0FD10A6A1088C0F308000B686D
:1035C0005860086918B9086A801C086209E0086A2E
:1035D000401C086205E00B6A581C086218780B68EA
:1035E0005860C88C401E80B2C88458B90868C0684A
:1035F00020F080000B68D8600868C06840F0400088
:103600000B68D860002070470220FCE710B5024824
:10361000FEF7AEFF10BD0000B801002001200649F2
:10362000088106490881064908810649088106493A
:1036300008810649088170476C000020780000204E
:1036400084000020B4000020C0000020CC00002036
:1036500038B504460D460B4A0B492046FFF798F94A
:103660000A480B4B0B4A294600902046FFF766F9A3
:1036700009480A4B0A4A294600902046FFF7BBF941
:1036800038BD0000600000205400002084000020AD
:10369000780000206C000020CC000020C00000203A
:1036A000B400002028B90749098911B90121064A47
:1036B0001181012805D10449098911B90121014A63
:1036C00011817047540000206000002038B5044686
:1036D0000D460B4A0B492046FFF75AF90A480B4B97
:1036E0000B4A294600902046FFF728F909480A4B63
:1036F0000A4A294600902046FFF77DF938BD0000B0
:103700005400002060000020840000207800002089
:103710006C000020CC000020C0000020B40000207D
:1037200010B50446034B044A04492046FFF740F90C
:1037300010BD0000A80000209C0000209000002088
:1037400070B504460E4615462146064800F049F875
:103750003146054800F045F8A9B2044800F041F8A8
:1037600070BD0000480000204B0000204E000020EB
:1037700070B504460E4615462146064800F012F87C
:103780003146054800F00EF82946044800F00AF8D2
:1037900070BD00000C010020150100201E0100205A
:1037A00000BFFEE770B501220A2404E004EB8403A5
:1037B0005C00531C9AB2B1FBF4F3002BF6D1531EFC
:1037C0000AE00A25B1FBF5F605FB16153035C554A0
:1037D0000A25B1FBF5F15B1E002BF2DA202383549E
:1037E00070BD0A2905DA3022027001F13002427000
:1037F0000BE00A2291FBF2F2303202700A2291FBB6
:10380000F2F302FB131230324270002282707047D2
:1038100002480068C0F30220704700000CED00E091
:1038200010B5002804DB0A07130E054A135406E0FE
:103830000A07140E034A00F00F031B1FD45410BDD7
:1038400000E400E018ED00E002E008C8121F08C123
:10385000002AFAD170477047002001E001C1121F11
:10386000002AFBD1704700008CB03D483D490860FC
:10387000FDF74EFFFFF7A0FBFFF72EF9FFF7F2F879
:10388000FFF7CEF9FFF702FA3748FEF721FD0122D4
:103890003449091D3248FEF793FF3448FDF7F0FC28
:1038A0004FF4807032494200324BCDE90732CDE906
:1038B00009108022CDE90332CDE9053040204202D3
:1038C000CDE9002302902C4B022210212B48FCF75B
:1038D000EDFDFFF74FFA002211462848FCF75EFE87
:1038E00027A12648FCF777FF2A4803682A48026880
:1038F0002A4801682A48FFF779FA30E0FDF7B0F866
:10390000FCF776FF27480088C0B9FDF781F8214809
:10391000214B224A224900902248FCF701FD214810
:103920000088FFF7BFFE1E480088032801D0FCF77F
:10393000C1FC1B4801881148FFF7C8FE19480088E0
:1039400001280CD1FFF77EFA16480088FFF7AAFE7F
:10395000134801880948FFF77BFEFDF759F8CDE7CA
:10396000B8010020500200207C0100202801002026
:10397000000002400008024000040240F80100205C
:10398000202020202020202030303A30303A3030A3
:1039900000000000E4000020E0000020DC00002027
:1039A000EE000020E8000020030406080C10182098
:1039B00030000000000000000001020304060708B8
:1039C00009000000000102030400000053455455A3
:1039D0005020200052756E6E696E67200000000056
:1039E00054313A202020202020202020476961796E
:1039F0000000000054323A202020202020202020E7
:103A0000476961790000000054333A2020202020CB
:103A10002020202047696179000000003C3A00081E
:103A2000000000200C01000048380008483B000856
:103A30000C010020EC1800005838000800000000BD
:103A40000000000000000000000000000000000076
:103A50000000000000000000000000000000000066
:103A60000000000010F80108010000000000000044
:103A70000000000000000000000000000000000046
:103A80000000000000000000000000000000000036
:103A9000D43900080000000000000000CC39000804
:103AA0000000000000000000E039000800000100F4
:103AB00001000000F43900080000010001000000CE
:103AC000083A000800000100010000004800002042
:103AD00008000000010000004B0000200B00000067
:103AE000010000004E0000200E0000000100000058
:103AF0000C0100200400020001000000150100205C
:103B000004000200010000001E0100200400020069
:103B100001000000000000000A0000000A00000090
:103B2000050000000100000000000100000000008E
:103B30000000000000000000000000001000000075
:083B40000100000068FF1F00F6
:0400000508000125C9
:00000001FF
