:020000040800F2
:10000000281A00203901000881310008BB2C0008A3
:100010007D310008B5070008173D0008000000000A
:10002000000000000000000000000000D1330008C4
:10003000810D0008000000008331000871340008C1
:100040005301000853010008530100085301000840
:100050005301000853010008530100085301000830
:100060005301000853010008530100085301000820
:100070005301000853010008530100085301000810
:1000800053010008530100081D0500085301000832
:1000900053010008530100085301000853010008F0
:1000A000000000005301000853010008530100083C
:1000B00049350008530100085301000853010008A6
:1000C00053010008530100085301000853010008C0
:1000D0005301000853010008D13A000853010008F9
:1000E00053010008530100085301000853010008A0
:1000F00053010008000000005301000853010008EC
:100100000000000000000000530100085301000837
:1001100053010008530100085301000800000000CB
:1001200053010008DFF80CD000F04EF900480047FA
:10013000753D0008281A00200648804706480047F9
:10014000FEE7FEE7FEE7FEE7FEE7FEE7FEE7FEE787
:10015000FEE7FEE7E534000825010008D2B201E021
:1001600000F8012B491EFBD270470022F6E710B5BC
:1001700013460A4604461946FFF7F0FF204610BD15
:10018000F0B480EA0102D40F4200B2EB410F02D278
:100190000246084611464A0042D0C30DDDB2C1F303
:1001A000C752AD1A202D35DAC1F3160141F4000211
:1001B00004B15242C5F1200602FA06F12A41104468
:1001C000B3EBD05F23D0C4B1012DA0EBC35009DC49
:1001D000F0BC4FF0004202EAC352DBB200F500006F
:1001E00000F0C3B8400000F1807000EBC350A0F1F4
:1001F000807040EAD170490009E0490841EAC071C5
:10020000A0EBC35000F50000400800EBC350F0BC69
:1002100000F0A2B86142012202EB4101001BF6E7A7
:10022000F0BC704781F00041AAE780F00040A7E7EA
:1002300080EA010210B502F00043400022D04A00DB
:100240001FD0010E01EB1261C0F35600C2F356023B
:1002500040F4000042F40002A0FB022000047F39B9
:10026000140400D0401C50EA124001D44000491E42
:10027000C2B20C0604EBD010401C4008802A02D009
:1002800003E0002010BD20F00100002900DA00206A
:10029000184310BD30B480EA010202F0004530F08E
:1002A000004221F0004013D090B1C30DD40DC2F331
:1002B0001601C0F31600E41A41F4000140F40002F4
:1002C0007D34914201D3641C00E04900002C02DA25
:1002D00030BC002070474FF400000023914201D34E
:1002E000891A034340084FEA4101F7D151B19142C5
:1002F00002D14FF0004105E002D24FF0010101E0D0
:100300006FF0010103EBC450284430BC00F024B866
:1003100096230022114600F028B820F00040C10DBD
:10032000C0F3160040F400007F2901DA0020704776
:10033000962903DCC1F19601C84070479639884080
:1003400070470000002801DBC0F10040002901DBFC
:10035000C1F10041814270470029A8BF7047401C8D
:10036000490008BF20F00100704710B4B0FA80FCCB
:1003700000FA0CF050EA010404BF10BC704749B108
:10038000CCF1200421FA04F411FA0CF118BF012178
:1003900021430843A3EB0C01CB1D4FEA00614FEA58
:1003A000102042BF002010BC704700EBC350104427
:1003B0000029A4BF10BC7047401C490008BF20F0B2
:1003C000010010BC70470000064C074D06E0E068D5
:1003D00040F0010394E8070098471034AC42F6D38C
:1003E000FFF7A4FE583F0008783F000870B58C184E
:1003F00010F8015B15F0070301D110F8013B2A1139
:1004000006D110F8012B03E010F8016B01F8016B25
:100410005B1EF9D12B0705D40023521E0DD401F821
:10042000013BFAE710F8013BCB1A921C03E013F8EA
:10043000015B01F8015B521EF9D5A142D8D300201F
:1004400070BD00002DE9F04705460C462C4E2D4F9F
:10045000DFF8B48000F04EFE2C490968884202D2D1
:1004600000202A49086000F045FE28490968401A22
:10047000B0F5FA7F18D900F03DFE244908602846FF
:1004800000F038FF4FEA400A5046FFF741FF81462F
:100490001F4801684846FFF773FE1D4908601D4864
:1004A0000078401C1B4908701A480078052825D19F
:1004B00018480078FFF72CFF814649461448006829
:1004C000FFF7E8FE12490860134911480068FFF77A
:1004D000E1FE81463946FFF7ABFE0D490860314623
:1004E0000B480068FFF79EFE81464146FFF7D2FEAB
:1004F000206000200749087005490860BDE8F087C2
:100500000000204033335340022B873D1800002069
:10051000140000201000002000C07F4410B50248E5
:1005200000F0ECFE10BD00005801002038B5044674
:1005300000250020009020680068C0F3801090BB68
:100540002068806840F001002168886017480068D2
:100550001749B0FBF1F000EB4000009002E000987A
:10056000401E009000980028F9D101F0E3FA0546FA
:1005700013E001F0DFFA401B02280ED9E06C40F0D6
:100580001000E064206D40F00100206500BF0020F5
:1005900084F8480000BF012038BD20680068C0F31F
:1005A00080100028E5D00020F6E700003001002090
:1005B00040420F0010B514480168144800F06CF870
:1005C00011480168124800F05BF80F484FF40061D1
:1005D0000268104800F0CAF80B484FF480610268C6
:1005E0000C4800F069F80C4802680C4801680C4897
:1005F000006802F07DFB0848026808480168084866
:10060000006803F035FB10BD300000202000002002
:1006100022000020000802402C00002028000020BA
:10062000240000202DE9F84304460D4616461F46D7
:10063000DDE908890E48008800900E4803882246AC
:100640004FF400410C4800F05DF8208801280CD1DF
:10065000D9F800000090D8F80030314628463A68B2
:1006600002F020FE012005490880BDE8F883000063
:100670002200002020000020000002403C0000205A
:100680000288012A06D10A6812B10A68521E0A605D
:1006900002220280704700000288012A08D1054B1F
:1006A0000A689A4202D20A68521C0A600222028038
:1006B000704700007F96980070B505460E461446B8
:1006C0003146284601F028FA70B901200B4908800C
:1006D0000B480088C82807DD206828B10020084999
:1006E00008802068401E20603146284601F014FA38
:1006F000012802D100200149088070BD02000020BD
:10070000060000202DE9F0410746884614461D46A4
:10071000069E4146384601F0FFF990B9208880B91D
:100720007DB976B901200F4908800F480088B0F5DF
:10073000FA6F06DD0120208000200B49088009495E
:1007400008804146384601F0E7F9012803D0012D21
:1007500001D0012E04D100200349088001490880FE
:10076000BDE8F081040000200A00002070B50546B5
:100770000E4614463146284601F0CEF960B90120F4
:100780000A4908800A480088C82805DD0020084971
:1007900008802068401C20603146284601F0BCF9E2
:1007A000012802D100200149088070BD000000200E
:1007B0000600002000BFFEE72DE9F05F04460D466D
:1007C00016461F46DDE90CABDDE90A890020383406
:1007D00004F8380C04F8375C04F8366C44F8347CC0
:1007E00024F8308C44F82C9C24F828AC44F804BC41
:1007F0000E9820800F986060109820811198E0601A
:1008000012982082139860611498208328206077C2
:100810000620A0760C20E07614202077383C322089
:1008200000F03CF800223321204600F06BF8052050
:1008300000F034F800223321204600F063F8052050
:1008400000F02CF800223221204600F05BF8052051
:1008500000F024F894F852100022204600F052F8DC
:1008600094F853100022204600F04CF894F85410ED
:100870000022204600F046F894F855100022204649
:1008800000F040F800220121204600F03BF8002251
:100890000221204600F036F8BDE8F09F10B504466E
:1008A000204600F08FFF10BDF8B504460D461646F1
:1008B000002713A0006800906078A84202DC6078EE
:1008C000401EC5B2A078B04202DCA078401EC6B27D
:1008D0001DF806002844C7B22078102806D147F03A
:1008E00080010022204600F08BF807E0207828B92C
:1008F00047F080010022204600F004F8F8BD000017
:10090000004014542DE9F04104460F4690463D1135
:100910003E46B8F1000F05D121890022606801F040
:1009200003F907E0B8F1010F04D1218901226068C1
:1009300001F0FAF805F001020C34A18DA06A01F073
:10094000F3F8A18EC5F34002206B01F0EDF8A18F02
:10095000C5F38002A06B01F0E7F8B4F84410C5F3CA
:10096000C002206C01F0E0F8A1880022206801F0AC
:10097000DBF80120FFF792FFA1880122206801F037
:10098000D3F80120FFF78AFFA1880022206801F038
:10099000CBF80120FFF782FF06F00102A18DA06ACB
:1009A00001F0C2F8A18EC6F34002206B01F0BCF842
:1009B000A18FC6F38002A06B01F0B6F8B4F8441022
:1009C000C6F3C002206C01F0AFF8A18800222068B5
:1009D00001F0AAF80120FFF761FFA1880122206839
:1009E00001F0A2F80120FFF759FFA18854F80C0983
:1009F000002201F099F80120FFF750FFBDE8F081D7
:100A000070B504460D4616462EB92189002260684D
:100A100001F08AF806E0012E04D1218901226068E4
:100A200001F082F805F00102218B606901F07CF889
:100A3000218CC5F34002E06901F076F8218DC5F301
:100A40008002606A01F070F8218EC5F3C002E06A8E
:100A500001F06AF8218FC5F30012606B01F064F8B1
:100A6000B4F84010C5F34012E06B01F05DF8B4F843
:100A70004810C5F38012606C01F056F8EA09B4F82A
:100A80005010E06C01F050F8218A0022E06801F07B
:100A90004BF80120FFF702FF218A0122E06801F0F4
:100AA00043F80120FFF7FAFE218A0022E06801F0F6
:100AB0003BF80120FFF7F2FE70BD70B504460D460D
:100AC0002078102805D1012229462046FFF798FFFB
:100AD00006E0207820B9012229462046FFF712FFC0
:100AE00070BD70B505460C4604E014F8011B28469D
:100AF000FFF7E3FF20780028F7D170BD1CB50C4844
:100B00000C490D4B0D4ACDE900100D490D4800F080
:100B100039F80A490B48008800F09CF80948008819
:100B200000F0EAF80748008800F00EF81CBD00004D
:100B30000C01002008010020040100201601002003
:100B4000120100201001002010B50446ACB94FF48A
:100B500080610A4800F0E0FF28B90948008810B910
:100B60000120074908804FF48061044800F0D4FF59
:100B7000012802D100200249088010BD000802406F
:100B8000220000202DE9FC470446894616461D46F2
:100B9000DDE90A784FF48051254800F0BDFF10B917
:100BA0000120244908802348008801283ED1010300
:100BB0001F4800F0B1FF012838D100201D490880EE
:100BC00002F08EFF208810B90120208001E0002073
:100BD0002080208801281AD1A9F800001648006852
:100BE000286016480068386015480068C8F800009A
:100BF000D8F800003968CDE9001012482B68124976
:100C00000268124800F09CF9012030800EE00A4989
:100C1000286808600949386808600949D8F8000060
:100C2000086002203080044809490860BDE8FC875C
:100C3000000802401C0000202400002028000020A2
:100C40002C0000203800002000FD010810F80108E9
:100C50003000002070B505460C464FF400411F4897
:100C600000F05AFF10B901201D4908801C48008877
:100C7000012832D1C103194800F04EFF01282CD1C0
:100C80000020174908801748008818BB02F028FF89
:100C90002088042802D10120208002E02088401C06
:100CA000208025B92088012801D1022020802088B9
:100CB000022802D10C480D4908602088032802D17F
:100CC0000B480A4908602088042806D109480749CA
:100CD000086002E000200349088070BD0000024067
:100CE0001E0000203C0000202400002030000020D6
:100CF000280000202C00002010B50446ACB94FF4A9
:100D000000610A4800F008FF28B90948008810B9B6
:100D10000120074908804FF40061044800F0FCFE00
:100D2000012802D100200249088010BD00080240BD
:100D30002000002010B50E48008801280AD102F0DA
:100D40009DFA02F0A5FA00200A4908800A490860C5
:100D5000074908800948008840B902F08FFA02F07C
:100D600097FA0020034908800349086010BD00007D
:100D700012010020140100200001002010010020B9
:100D80007047000010B50C4A0C490D4802F036FBC4
:100D900009480288094801880948008801F0D2FF03
:100DA00005480288054801880548008802F048FF88
:100DB000044802F035FF10BD1E0100201C01002078
:100DC0001A01002028020020704700000021094A73
:100DD00051610949096841F40071074A11601146DF
:100DE000096841F008011160002120F0FF02116044
:100DF0007047000010160020043C024001460868BD
:100E00007047000000202749096801F48071B1F59E
:100E1000807F07D12449496941F00201224A51618A
:100E200040F480701F49096801F40071B1F5007F3A
:100E300007D11D49496941F001011B4A516140F444
:100E400000701849096801F40061B1F5006F07D11D
:100E50001549496941F00401134A516140F40060A9
:100E60001049096801F40051B1F5005F07D10E493E
:100E7000496941F010010C4A516140F400500949A0
:100E8000096801F48051B1F5805F07D106494969CD
:100E900041F02001044A516140F48050014908604A
:100EA00070470000183C02401016002070B5044640
:100EB00000F040FE054609E0601C38B124B100F0A6
:100EC00039FE401BA04201D9032070BD1B480068B9
:100ED00000F001000028EFD11848006800F002007F
:100EE000022801D1154908601448006800F4807098
:100EF000B0F5807F1BD01148006800F40060B0F5A9
:100F0000006F14D00D48006800F40050B0F5005F89
:100F10000DD00A48006800F48050B0F5805F06D01C
:100F20000648006800F40070B0F5007F03D1FFF7B9
:100F300069FF0120C9E70020C7E70000183C024014
:100F40002DE9FF4704460D4617461E46DDE90C898C
:100F500000F0C8FC002001900294281B000A0390B6
:100F600000200090694601A800F040FC3A46214666
:100F7000022000F08DFC3246211D022000F088FC8A
:100F8000424604F10801022000F082FC4A4604F1C6
:100F90000C01022000F07CFC00F070FCBDE8FF8733
:100FA0002DE9F34F87B005464FF00108012006E018
:100FB00008EB88014FF6FF7202EA4108401C012845
:100FC000F6DD4046FFF7A4F901900899FFF730F9E4
:100FD0000290FFF7A2F91FFA80FA9AFBF8F008FBDB
:100FE00010A086B29AFBF8F087B24FF0020B4FF0D8
:100FF00001090A200690059008E0069800EB8000A1
:10100000400006900BF101001FFA80FB0698B6FB2A
:10101000F0F00028F1D108E0059800EB80004000D6
:10102000059009F101001FFA80F90598B7FBF0F06F
:101030000028F1D100BF0CE00A2196FBF1F201FB80
:101040001261303104AA11540A2196FBF1F18EB2DB
:10105000401E0028F0DAA9F101000CE00A2197FBFC
:10106000F1F201FB1271303103AA11540A2197FBEE
:10107000F1F18FB2401E0028F0DA00240021089818
:10108000FFF760F905D206B91FB12D202855601C65
:1010900084B2002005E003A9095C2955611C8CB2CB
:1010A000401C4845F7DB2E202855601C84B258466A
:1010B00004E030212955611C8CB2401C0128F8DB6A
:1010C000002005E004A9095C2955611C8CB2401C74
:1010D0000128F7DB2020285509B0BDE8F08F00007B
:1010E00010B50446024908682146FFF759FF10BDB4
:1010F000E8000020054800680549884202D3002026
:101100000249086001480068704700000C00002098
:10111000185826057047000038B502460023002005
:10112000009000BF92F84800012801D1022038BD8C
:10113000012082F8480000BF4868072812D21068D2
:10114000006C0C79641E04EB84051F24AC40A043A2
:101150000D796D1E05EB85050C68AC4020431468C5
:10116000206453E048680D2812D21068C06B0C79D7
:10117000E41F04EB84051F24AC40A0430D79ED1F50
:1011800005EB85050C68AC4020431468E0633DE046
:101190004868132812D21068806B0C790D3C04EB60
:1011A00084051F24AC40A0430D790D3D05EB85055A
:1011B0000C68AC4020431468A06327E048681928F5
:1011C00012D21068406B0C79133C04EB84051F2489
:1011D000AC40A0430D79133D05EB85050C68AC4090
:1011E00020431468606311E01068006B0C79193CAF
:1011F00004EB84051F24AC40A0430D79193D05EB99
:1012000085050C68AC4020431468206308680A28F0
:1012100010D2106840690C7804EB44050724AC40F8
:10122000A0430D7805EB45058C68AC40204314685D
:1012300060612CE00868142812D2106800690C78EC
:101240000A3C04EB44050724AC40A0430D780A3D5A
:1012500005EB45058C68AC4020431468206116E01E
:1012600008681A2812D81068C0680C78143C04EB7F
:1012700044050724AC40A0430D78143D05EB45051B
:101280008C68AC4020431468E06000E000BF086850
:10129000102802D0086811281DD11248006800F4F7
:1012A0000000C0B90F48006840F400000D4C2060F9
:1012B000086810280FD10C4800680C4CB0FBF4F003
:1012C00000EB80004000009002E00098401E00907B
:1012D00000980028F9D100BF002082F8480000BF24
:1012E000184624E7042701403001002040420F0047
:1012F0007047704701460868806D704710B5044616
:101300002068406800F02000202838D1206800685C
:1013100000F00200022832D1E06C00F0100018B991
:10132000E06C40F40070E0642068806800F0405099
:10133000F0B994F82400D8B92068006B00F0F87078
:1013400020B12068806800F4806088B92068406817
:1013500020F0200021684860E06C20F48070E06498
:10136000E06C00F4805018B9E06C40F00100E064DB
:101370002046FFF7BDFF6FF012002168086020686B
:10138000406800F08000802842D12068006800F0AA
:10139000040004283CD1E06C00F0100018B9E06CA7
:1013A00040F40050E0642068806800F4401040BBC6
:1013B0002068406C00F4401020B12068806800F480
:1013C0008060F0B92068406800F48060C8B9206887
:1013D000806800F04050A0B994F8240088B92068D3
:1013E000406820F0800021684860E06C20F4805064
:1013F000E064E06C00F4807018B9E06C40F001002B
:10140000E0642046FFF786FE6FF00C00216808605C
:101410002068406800F0400040280FD12068006834
:1014200000F0010050B1E06C40F48030E0642046F0
:1014300000F00EF96FF00100216808602068406834
:1014400000F08060B0F1806F14D12068006800F077
:10145000200020280ED1206D40F0020020656FF0A2
:101460002000216808602046FFF743FF6FF020004E
:101470002168086010BD0000F8B50446002700266A
:1014800000250CB90120F8BD206918B194F82C0092
:1014900000B100BF606B102800D000BFE06CA0B9A5
:1014A0000020206584F8480000BF6448006840F0D0
:1014B0000100624908600846006800F001000090E1
:1014C00000BF00BF204600F0C5F8E06C00F010003F
:1014D000002878D1E06C20F4885040F00200E064ED
:1014E0005748006820F44030616808435449086058
:1014F0006169E068084394F83C104FF4007292FA76
:10150000A2F2B2FA82F291400843216A084394F8A9
:101510002410022292FAA2F2B2FA82F29140084317
:101520000543606B102803D0D4E90D01084305433F
:1015300020680068C0F38010A0BBA0690543E16982
:10154000A06808432169B1F5807F02D02169012993
:1015500002D14FF4807100E000210843064394F863
:101560002C00012817D194F8240060B9206B401E8C
:101570004FF4604191FAA1F1B1FA81F1884040F451
:101580000060064307E0E06C40F02000E064206D5E
:1015900040F001002065206840682A490840304337
:1015A00021684860206880682749084028432168EE
:1015B00088602069B0F5807F02D02069012803D1BE
:1015C0004FF4807001E035E00020B0F5807F10D14D
:1015D0002068006B20F0F871A06A401E4FF0F8728E
:1015E00092FAA2F2B2FA82F29040014320680163BB
:1015F00005E02068006B20F0F8702168086320681F
:10160000806812490840A84208D100202065E06C9B
:1016100020F0020040F00100E0640CE0E06C20F0FB
:10162000020040F01000E064206D40F001002065F1
:10163000012700E00127384625E700002038024056
:1016400004270140FF16FCFC89F1FFC0FEFF80BFAC
:101650007047000010B586B00446142101A8FEF7BB
:1016600084FD1A49206888422DD100BF18480068BF
:1016700040F40070164908600846006800F40070E5
:10168000009000BF00BF00BF081F006840F00400CA
:10169000091F08600846006800F00400009000BFC1
:1016A00000BF10200190032002900020039001A9A8
:1016B000084800F049F900221146122000F0C6FA4D
:1016C000122000F0B3FA06B010BD00000024014063
:1016D000203802400008024070B50446002500BFD3
:1016E00094F84800012801D1022070BD012084F83F
:1016F000480000BF2046FEF719FF054695BBE06C89
:1017000040F20161884340F48070E06420684068E2
:1017100000F4806028B1E06C20F4005040F4805068
:10172000E064E06C00F48050B0F5805F04D1206D7F
:1017300020F00600206501E00020206500BF0020A9
:1017400084F8480000BF6FF022002168086020681C
:10175000806800F0405028B92068806840F08040E0
:10176000216888602846C0E770B50446002594F8D3
:101770002100022803D00420A063012520E0206876
:10178000006820F00E00216808602068006820F0E2
:1017900001002168086094F8400000F01C0101205D
:1017A0008840E16B4860012084F8210000BF0020E0
:1017B00084F8200000BF606B10B12046616B884741
:1017C000284670BD70B5044600F0B4F906462546BB
:1017D000681C10B104480068054400BF00F0AAF975
:1017E000801BA842FAD370BD2C0100202DE9F041E6
:1017F00004460E460127002500BF1E48007C012834
:1018000002D10220BDE8F08101201A49087400BF0E
:101810004CF25030FFF74AFB07461FBB4FF0FF303A
:101820003060656817E02846FFF7D0FA4CF2503078
:10183000FFF73CFB07461048006820F008000E49FF
:1018400008600846006820F4007008600FB1356039
:1018500007E005F58075D4E9011001EB0020A842EE
:10186000E1D800BF00BF00200249087400BF38461D
:10187000C8E7000010160020043C0240034800683E
:1018800040F002000149086000207047043C02401B
:101890002DE9F04107460C461546012600BF1048C9
:1018A000007C012802D10220BDE8F08101200C4912
:1018B000087400BF4CF25030FFF7F8FA064646B9FC
:1018C00000200749486125604CF25030FFF7EEFADE
:1018D000064600BF00200249087400BF3046E3E717
:1018E000101600201348006800F0020002281FD1E3
:1018F0001048006800F0010060B10F480D49083140
:1019000008600E4808600B48006800F0010008B14C
:10191000012070470A4807490C31086009480860EF
:101920000448006800F00200022801D10120F0E71D
:101930000020EEE7043C0240EFCDAB890504030232
:10194000BFAE9D8C1615141378B5034600220024F3
:101950000020CAE0012696400D6805EA0604002C26
:1019600071D04D68022D02D04D68122D13D1D608CA
:1019700003F1200555F826005507EE0E0F25B5405A
:10198000A8435607F60E0D69B5402843D60803F163
:10199000200545F82600186856000325B540A843E1
:1019A0000D7905F003055600B540284318604D68D1
:1019B000012D08D04D68022D05D04D68112D02D0A3
:1019C0004D68122D13D1986856000325B540A843E1
:1019D0005600CD68B5402843986058680125954069
:1019E000A8430D79C5F30015954028435860D86881
:1019F00056000325B540A84356008D68B5402843DE
:101A0000D8604D6805F08055B5F1805F6CD100BF9E
:101A1000394D2D6845F00105374E356035462D6846
:101A200005F00105009500BF00BF344D960855F83C
:101A3000260095072E0F0F25B540A843304DAB4229
:101A400002D1002515E04FE02E4DAB4201D101251A
:101A50000FE02D4DAB4201D102250AE02B4DAB42E8
:101A600001D1032505E02A4DAB4201D1042500E058
:101A700005259607360FB5402843204D960845F8B2
:101A80002600244D2868A0434D6805F48035B5F53F
:101A9000803F00D120431F4D28602D1D2868A043A2
:101AA0004D6805F40035B5F5003F00D12043194DD0
:101AB0002D1D28602D1D2868A0434D6805F4801554
:101AC000B5F5801F00D12043124D083528602D1D2B
:101AD0002868A0434D6805F40015B5F5001F00D136
:101AE00020430C4D0C352860521C0D68D540002D4C
:101AF0007FF430AF78BD000020380240080001407C
:101B0000000002400004024000080240000C0240B5
:101B10000010024000040140024613690B400BB163
:101B2000012000E0002070470AB1816101E00B0450
:101B3000836170470148006870470000240100205D
:101B40000348006803490968084401490860704770
:101B5000240100202C01002010B50024032000F0F7
:101B6000B3F8002000F008F808B1012401E000F00B
:101B70002FF8204610BD000070B50446002511481E
:101B80000068D8B10F4800684FF47A71B1FBF0F0EB
:101B90000D490968B1FBF0F6304600F03FFD58B939
:101BA000102C07D200222146501E00F04FF80748A3
:101BB000046004E0012502E0012500E0012528463B
:101BC00070BD00002C010020300100202801002001
:101BD00008B500BF1448006840F000401249086092
:101BE0000846006800F00040009000BF00BF00BF42
:101BF000081F006840F00100091F086008460068DF
:101C000000F00100009000BF00BF00BF081D006889
:101C100040F08050091D08600846006800F08050C0
:101C2000009000BF00BF08BD2438024001460846AE
:101C3000002809DB00F01F0301229A4043099B00A2
:101C400003F1E023C3F8002100BF70472DE9F05FE6
:101C500080460D461646002702F060F807463946D2
:101C60002A46334601F00700C0F1070ABAF1040F13
:101C700002D94FF0040A01E0C0F1070AD14600F191
:101C8000040ABAF1070F02D24FF0000A01E0A0F1F6
:101C9000030AD4464FF0010A0AFA09FAAAF1010A26
:101CA0000AEA020A0AFA0CFA4FF0010B0BFA0CFBD3
:101CB000ABF1010B0BEA030B4AEA0B042146404649
:101CC00002F034F8BDE8F09F00BF00F00702064BB9
:101CD00019684FF6FF031940044B0B4343EA0221F6
:101CE000014B196000BF70470CED00E00000FA05E1
:101CF0002DE9F04104460D4614B90120BDE8F081FC
:101D00007E48006800F00100A84218D200BF012DF3
:101D100005D17A48006840F00400784908607748A7
:101D2000006820F0010028437449086000BF08469D
:101D3000006800F00100A84201D00120DEE7207811
:101D400000F00200022807D16D48006820F0F00082
:101D5000A16808436A490860207800F00100002863
:101D60007FD06068022807D165480838006800F411
:101D70000030F8B90120C1E76068032807D1604846
:101D80000838006800F00070A0B90120B6E760686C
:101D9000012807D15A480838006800F0020048B905
:101DA0000120ABE756480838006800F4007008B915
:101DB0000120A3E75248006820F00300616808434F
:101DC0004F490860FFF7B6FE06466068022810D14A
:101DD00008E0FFF7AFFE801B41F28831884201D94D
:101DE00003208BE74648006800F00C000828F0D17B
:101DF00037E06068032810D108E0FFF79BFE801BE6
:101E000041F28831884201D9032077E73C480068D5
:101E100000F00C000C28F0D123E06068012810D1FC
:101E200008E0FFF787FE801B41F28831884201D924
:101E3000032063E73248006800F00C000428F0D16A
:101E40000FE008E0FFF776FE801B41F28831884200
:101E500001D9032052E72A48006800F00C0000284E
:101E6000F0D12648006800F00100A84218D900BF50
:101E7000012D05D12148006840F004001F49086089
:101E80001E48006820F0010028431C49086000BF7C
:101E90000846006800F00100A84201D001202DE7AB
:101EA000207800F00400042807D11548006820F4C9
:101EB000E060E168084312490860207800F00800FB
:101EC000082808D10E48006820F46050216940EAD3
:101ED000C1000B49086000F041F809490968C1F3E5
:101EE0000311084A515CC840074908600748006868
:101EF000FFF742FE0746384600E70000003C02407C
:101F000008380240D93E0008300100202801002096
:101F100001480068704700003001002000B5FFF75D
:101F2000F7FF04490968C1F30221034A515CC84024
:101F300000BD000008380240E93E000800B5FFF788
:101F4000E7FF04490968C1F3C221034A515CC84054
:101F500000BD000008380240E93E0008F0B51A4E06
:101F6000316801F00C0616B3042E04D0082E04D0FC
:101F70000C2E1BD103E0154823E0154821E0154E37
:101F8000C1F38347F25DC1F38156731C0E4E366870
:101F900006F4803626B10E4E5643B6FBF3F403E04A
:101FA0000A4E5643B6FBF3F420460AE000BF064E45
:101FB000361F3668C6F342356E1C0127B740F8035A
:101FC00000BF00BFF0BD0000083802400024F4004C
:101FD00000366E01D03E00082DE9F843044614B9DE
:101FE0000120BDE8F883FE48006800F00C06FC48BC
:101FF000006800F48037207800F00100002875D0D8
:10200000082E04D00C2E0ED1B7F5803F0BD1F4482A
:102010000838006800F40030002867D060680028A5
:1020200064D10120DDE700BF6068012808D1EC48D9
:102030000838006840F48030E949083908602DE02C
:10204000606868B9E6480838006820F48030E449E0
:10205000083908600846006820F4802008601DE008
:10206000606805280DD1DE480838006840F48020FB
:10207000DB49083908600846006840F48030086091
:102080000CE0D7480838006820F48030D44908397B
:1020900008600846006820F48020086000BF60687F
:1020A00090B1FFF747FD054606E0FFF743FD401BF3
:1020B000642801D9032094E7C9480838006800F46F
:1020C00000300028F1D011E0FFF734FD054606E0AE
:1020D000FFF730FD401B642801D9032081E7C04889
:1020E0000838006800F400300028F1D1207800F0B2
:1020F0000200022853D1042E02D00C2E17D1B7B9FA
:10210000B7480838006800F0020020B1E0680128F4
:1021100001D0012065E7B248001F006820F4F850A4
:10212000216940EA0120AE49091F086037E0E068F4
:1021300000B30120AB490860FFF7FCFC054606E050
:10214000FFF7F8FC401B022801D9032049E7A44807
:102150000838006800F002000028F1D0A048001FF5
:10216000006820F4F850216940EA01209C49091FC9
:10217000086014E000209B490860FFF7DBFC05467F
:1021800006E0FFF7D7FC401B022801D9032028E70F
:1021900093480838006800F002000028F1D1207848
:1021A00000F01000102871D1F6BB8D480838006887
:1021B00000F4007018B1A06908B9012011E788493E
:1021C000091F206A096801F46041884219D9206A10
:1021D00000F0D8FF08B1012003E78148001F006824
:1021E00020F46040216A08437D49091F0860217F6F
:1021F0007B48001F006861F31F607949091F086070
:102200001AE07748001F006820F46040216A084304
:102210007349091F0860217F7148001F006861F33E
:102220001F606F49091F00E020E00860206A00F08D
:10223000A9FF08B10120D4E60121206A01EB503149
:1022400001208840C00366490968C1F30311664A4A
:10225000515CC8406549086065480068FFF78CFC20
:102260008046B8F1000F42D04046BAE6A06948B3B4
:1022700001205C490862FFF75DFC054607E0FFF7B7
:1022800059FC401B022802D90320AAE62FE054483B
:102290000838006800F400700028F0D05048001F93
:1022A000006820F46040216A08434D49091F086016
:1022B000217F4B48001F006861F31F604849091FD8
:1022C000086014E0002047490862FFF733FC054628
:1022D00006E0FFF72FFC401B022801D9032080E60F
:1022E0003F480838006800F400700028F1D12078D9
:1022F00000F0080008282CD16069A8B101203D49F0
:102300000860FFF717FC054606E0FFF713FC401BCB
:10231000022801D9032064E631482C30006800F01F
:1023200002000028F1D014E0002032490860FFF7D5
:1023300001FC054606E0FFF7FDFB401B022801D922
:1023400003204EE626482C30006800F002000028EA
:10235000F1D1207800F0040004286ED14FF000097C
:102360001F481C30006800F0805088B900BF1C482E
:102370001C30006840F0805019491C310860084644
:10238000006800F08050009000BF00BF4FF00109CE
:102390001948006800F48070B0B91748006840F42C
:1023A000807015490860FFF7C5FB054606E0FFF79A
:1023B000C1FB401B642801D9032012E60E480068C7
:1023C00000F480700028F2D000BFA068012817D167
:1023D00003482C30006840F4807001492C310DE036
:1023E0000838024000004742D93E00083001002072
:1023F000280100208006474200700040086028E065
:10240000A06858B96648006820F480706449086084
:102410000846006820F4806008601AE0A06805287B
:102420000CD15F48006840F480605D490860084650
:10243000006840F4807008600BE040E05848006895
:1024400020F48070564908600846006820F48060D7
:10245000086000BFA06898B1FFF76CFB054608E074
:10246000FFF768FB401B41F28831884201D9032005
:10247000B7E54B48006800F400700028F0D012E087
:10248000FFF758FB054608E0FFF754FB401B41F2FD
:102490008831884201D90320A3E54148006800F44F
:1024A00000700028F0D1B9F1010F07D13C48103875
:1024B000006820F080503A491039086000BF606A17
:1024C000A8B30C2E52D0606A022839D100203549B9
:1024D0000866FFF72FFB054606E0FFF72BFB401BC6
:1024E000022801D903207CE52D483438006800F02B
:1024F00000700028F1D1D4E90A010843216B084398
:1025000027492C39096821F47D01084324492C39D5
:102510000860012023490866FFF70CFB054607E029
:10252000FFF708FB401B022802D9032059E535E0DC
:102530001B483438006800F000700028F0D02DE00F
:10254000002018490866FFF7F5FA054606E0FFF790
:10255000F1FA401B022801D9032042E51048343823
:10256000006800F000700028F1D117E0606A0128CF
:1025700000D136E50A482C38076807F48031A06A94
:10258000814209D107F47011E06A814204D107F455
:102590004001206B814201D0012022E5002020E58E
:1025A000343802400000474215480068401C144976
:1025B000086014480088012804D113480088401C92
:1025C0001149088011480088012803D0104800886C
:1025D000012805D10F480088401C0E49088004E0FE
:1025E00000200C4908800C4908800A480088B0F592
:1025F000FA7F04DD08480088401C074908807047BE
:102600000C000020040000200A0000200000002030
:1026100002000020080000200600002070B50446DB
:102620002546681EB0F1807F01D301200FE0681EAF
:102630004FF0E02148610F214FF0FF3001F076FBB1
:1026400000204FF0E021886107200861002070BD64
:1026500010B5FFF7A9FF10BD10B5024600BF92F8F4
:102660003800012801D1022010BD012082F8380075
:1026700000BF022082F8390010684368106884683F
:1026800023F070030868034324F08004486804437F
:102690001068436010688460012082F8390000BF30
:1026A000002082F8380000BF00BFDDE710B5044607
:1026B0000CB9012010BD94F8390028B9002084F825
:1026C0003800204600F00CF8022084F83900211D63
:1026D000206800F041FF012084F839000020E9E77C
:1026E00038B504462068B0F1804F15D100BF0B48C3
:1026F000006840F00100094908600846006800F0E1
:102700000100009000BF00BF002211461C20FFF70F
:102710009DFA1C20FFF78AFA38BD000024380240D9
:1027200001460868C06840F001000B68D86008687E
:10273000806800F00702062A05D00868006840F0AB
:1027400001000B681860002070472DE9F041044635
:102750000D4600BF94F83800012802D10220BDE8E0
:10276000F081012084F8380000BF022084F839008D
:102770002068866826F0770626F47F462068866003
:102780002868502833D00CDC202850D004DC0028E6
:102790004BD0102851D149E0302849D040284CD1A5
:1027A00039E060282DD0702807D0B0F5805F03D0C5
:1027B000B0F5005F41D10DE040E0D5E902136A6851
:1027C000206800F011FF2068866846F077062068D0
:1027D000866033E0D5E902136A68206800F004FFE0
:1027E0002068806840F480402168886026E0EA68BC
:1027F0006968206800F00CFF5021206800F0FFFE9F
:102800001CE0EA686968206800F015FF6021206814
:1028100000F0F5FE12E0EA686968206800F0F8FE52
:102820004021206800F0EBFE08E000BF00BF00BFC1
:102830002968206800F0E3FE00E000BF00BF01202F
:1028400084F8390000BF002084F8380000BF00BFC2
:1028500085E7704710B5044620680069C0F3400062
:10286000D8B12068C068C0F34000B0B16FF002007A
:1028700021680861012020762068806900F003004B
:1028800018B12046FFF7E5FF05E0204600F08BF881
:10289000204600F089F80020207620680069C0F307
:1028A0008000D8B12068C068C0F38000B0B16FF07C
:1028B000040021680861022020762068806900F405
:1028C000407018B12046FFF7C4FF05E0204600F035
:1028D0006AF8204600F068F8002020762068006939
:1028E000C0F3C000D8B12068C068C0F3C000B0B168
:1028F0006FF0080021680861042020762068C06914
:1029000000F0030018B12046FFF7A3FF05E02046C2
:1029100000F049F8204600F047F8002020762068B3
:102920000069C0F30010D8B12068C068C0F300107F
:10293000B0B16FF01000216808610820207620688F
:10294000C06900F4407018B12046FFF782FF05E02F
:10295000204600F028F8204600F026F800202076D7
:102960002068006900F0010058B12068C06800F0DC
:10297000010030B16FF0010021680861204600F0CD
:1029800015F820680069C0F3801058B12068C0684D
:10299000C0F3801030B16FF040002168086120461C
:1029A00000F00CF810BD704770470000024909683C
:1029B000491C014A116070470001002070477047B0
:1029C0002DE9F0470446206805682068C66820683D
:1029D00047694FF00008C14605F00F08B8F1000F35
:1029E0000AD105F0200038B106F0200020B12046C1
:1029F00000F05FFEBDE8F087B8F1000F6ED007F081
:102A0000010018B906F49070002867D005F00100A5
:102A100030B106F4807018B1E06B40F00100E06363
:102A200005F0040030B107F0010018B1E06B40F090
:102A30000200E06305F0020030B107F0010018B1B8
:102A4000E06B40F00400E06305F0080030B107F0EF
:102A5000010018B1E06B40F00800E063E06B70B378
:102A600005F0200028B106F0200010B1204600F04B
:102A700020FE20684069C0F38019E06B00F0080078
:102A800010B9B9F1000F23D0204600F0F2FD206804
:102A9000406900F04000402816D12068406920F0CD
:102AA000400021684861606B50B11748616B486312
:102AB000606BFEF759FE10B1606B416B88470CE00C
:102AC0002046FFF77CFF08E02046FFF778FF04E090
:102AD0002046FFF774FF0020E0638BE705F08000DD
:102AE00030B106F0800018B1204600F0BDFF81E74C
:102AF00005F0400030B106F0400018B1204600F06B
:102B0000C8FD77E700BF75E75F36000810B50446DB
:102B10000CB9012010BDA06900B100E000BF94F81D
:102B2000390028B9002084F83800204600F028F841
:102B3000242084F839002068C06820F400502168FF
:102B4000C860204600F008FE2068006920F490402C
:102B5000216808612068406920F02A0021684861E6
:102B60002068C06840F400502168C8600020E0631D
:102B7000202084F8390084F83A000020CAE70000D9
:102B800010B586B00446142101A8FDF7EEFA1D49E0
:102B90002068884233D100BF1B48006840F40030F1
:102BA000194908600846006800F40030009000BF32
:102BB00000BF00BF14480838006840F00100124907
:102BC000083908600846006800F00100009000BF66
:102BD00000BF0C20019002200290012003900320EE
:102BE00004900720059001A90848FEF7ADFE0022D9
:102BF00001212620FFF72AF82620FFF717F806B054
:102C000010BD000000440040243802400000024093
:102C100010B5034693F83A0020282FD101B10AB924
:102C2000012010BD00BF93F83800012801D1022017
:102C3000F7E7012083F8380000BF99629A85DA85AA
:102C40000020D863222083F83A0000BF002083F8D8
:102C5000380000BF1868C06840F480701C68E060ED
:102C60001868406940F001001C6860611868C0681D
:102C700040F020001C68E0600020D2E70220D0E78E
:102C800010B504460A492068096888420ED10948EF
:102C90000179C288C088401C064BD88003F1080027
:102CA00081540122011F0248FFF7B2FF10BD00004E
:102CB000E801002080020020704700BFFEE700000E
:102CC00070B5044608480068FDF722FB054621461A
:102CD000FDF738FB07D02046FDF71FFB02490860CF
:102CE00001200249088170BD4C000020E80000204E
:102CF00010B50E4B1B68984204D00C4B1860012392
:102D00000B4C23810B4B1B68994204D0094B196073
:102D10000123094C2381094B1B689A4204D0074BBD
:102D20001A600123064C238110BD000040000020E2
:102D3000C400002044000020D000002048000020F3
:102D4000DC00002070B504460D461646FEF7D2F9A9
:102D500014490968884202D2002012490860FEF72F
:102D6000C9F910490968401AB0F57A7F06D9FEF70B
:102D7000C1F90C49086001200B4908810B48008803
:102D8000A84204D009480580012009490881094862
:102D90000088A04204D00748048001200649088129
:102DA00070BD000050000020B8000020540000203A
:102DB000AC00002056000020A00000202DE9F047C4
:102DC00081460C4615461E46DDE90878012C08D1DF
:102DD0002889012805D12946484600F092F80020AC
:102DE0002881022C08D13089012805D13146484676
:102DF00000F087F800203081032C08D138890128A1
:102E000005D13946484600F07CF800203881042C72
:102E10000AD1B8F80800012806D14146484600F01A
:102E200070F80020A8F80800BDE8F0872DE9F04709
:102E300081460C4615461E46DDE90878288901289A
:102E400007D1012C05D12946484600F05AF8002048
:102E500028813089012807D1022C05D13146484606
:102E600000F04FF8002030813889012807D1032C69
:102E700005D13946484600F044F800203881B8F8BA
:102E80000800012808D1042C06D14146484600F02C
:102E900038F80020A8F80800BDE8F08770B50646AD
:102EA0000C4615462089012807D12146304600F0FE
:102EB00028F8002020810120288170BD2DE9F041F3
:102EC00007460E4614461D463089012805D1314675
:102ED000384600F016F8002030812089012805D1FD
:102EE0002146384600F00DF800202081288901286D
:102EF00005D12946384600F004F800202881BDE8B5
:102F0000F08170B505460C46A27921792846FDF777
:102F1000CBFC28462168FDF7E4FD70BD0EB500200E
:102F200000900190029018481849086000204860FD
:102F30004FF08071154881600021C16001614161DD
:102F40008161C1610162012180F824108162002148
:102F500080F82C10102141630021816380F83C101F
:102F6000FEF78AFA08B1FDF72FFF0E20009001202E
:102F700001900720029069460448FEF7CDF808B199
:102F8000FDF722FF0EBD0000002401405801002083
:102F900000B587B0142102A8FDF7E7F800BF494843
:102FA000006840F00100474908600846006800F0EA
:102FB0000100019000BF00BF00BF0846006840F05C
:102FC000040008600846006800F00400019000BF9B
:102FD00000BF00BF0846006840F0020008600846D5
:102FE000006800F00200019000BF00BF00BF08466B
:102FF000006840F0080008600846006800F008001B
:10300000019000BF00BF002248F23F012E48FEF7AA
:103010008BFD00224FF470712C48FEF785FD0022D5
:103020004FF480712A48FEF77FFD002204212948D1
:10303000FEF77AFD48F23F00029001200390002045
:103040000490059002A92048FEF77EFC4FF47070B2
:1030500002900120039000200490059002A91B48D3
:10306000FEF772FC4FF48070029001200390002064
:103070000490059002A91648FEF766FC4FF4004044
:103080000290002003900120049002A91048FEF74E
:103090005BFC4FF4E050029000200390012004906C
:1030A00002A90A48FEF750FC042002900120039078
:1030B00000200490059002A90648FEF745FC07B0E1
:1030C00000BD00001C38024000040240000802401D
:1030D00000000240000C024000B587B000200390C1
:1030E000049005900690019002904FF080401449A2
:1030F00008604FF47A5048600021114881604FF415
:103100007A71C160002101614161FFF7CFFA08B116
:10311000FDF75AFE4FF48050039003A90848FFF7CB
:1031200014FB08B1FDF750FE00200190029001A9A8
:103130000348FFF791FA08B1FDF746FE07B000BD5E
:10314000AC01002010B50B480B4908604FF4E1308A
:103150004860002108488160C16001610C21416123
:1031600000218161C161FFF7D1FC08B1FDF72CFEA0
:1031700010BD000000440040E801002000BFFEE751
:103180007047704718B5034600222548006800F0D4
:10319000F00050BB22481C30006800F0805020B185
:1031A0002048006800F4C05118E000BF1C481C30E3
:1031B000006840F080501A4C1C34206020460068A3
:1031C00000F08050009000BF00BF1648006800F477
:1031D000C0512046006820F080502060B1F5C05FEB
:1031E00003D1B3F5404F00D1012200BF012A05D120
:1031F0000D48006840F004000B4C20600A4800684D
:1032000020F001001043084C206000BF20460068F9
:1032100000F00100904201D0012018BD0020FCE721
:103220000838024000700040003C024010B50E48D3
:10323000FDF7E4FD0D49088008460088012811D1FA
:103240000948001DFDF7DAFD094908600648083005
:10325000FDF7D4FD0749086003480C30FDF7CEFDAB
:103260000549086010BD000010F801081801002091
:1032700004010020080100200C01002010B50022EC
:1032800001210248FEF750FC10BD0000000402407E
:1032900010B5002202210248FEF746FC10BD0000D6
:1032A000000402402DE9F04104460D4616461F4633
:1032B000DDF8188010480660104807601048C0F814
:1032C0000080012020800C480E4908600C480268EC
:1032D0000A48016808480068FFF70AFD08480268C4
:1032E000064801680448006800F0C2FC2846FDF763
:1032F000F7FEBDE8F0810000240000202800002037
:103300002C0000203000002010B52C48008848B95F
:1033100000F060F829480088401C284908800020F7
:10332000274908602548008801280FD124480068F3
:1033300024490968884209D300F056F81F480088DC
:10334000401C1E49088000201D4908601B48008859
:1033500002280FD11A4800681B490968884209D31E
:10336000FFF796FF15480088401C1449088000208C
:10337000134908601148008803280FD110480068DD
:1033800010490968884209D3FFF778FF0B48008885
:10339000401C0A4908800020094908600748008845
:1033A00004280AD10648006808490968884204D3FD
:1033B0000020034908600149088010BD1401002065
:1033C000000100200C010020040100200801002061
:1033D0007047000010B5012211460248FEF7A4FB19
:1033E00010BD00000004024010B501220221024875
:1033F000FEF79AFB10BD000000040240F0B53C232C
:103400003C24194D194E36684FF46167B6FBF7F648
:1034100006800688C6EB0616B600C6EB0616134FE6
:103420003F68A7EB86063C27B6FBF7F60E800688BA
:10343000C6EB0616B600C6EB06160C4F3F88A7EB88
:1034400086060F88C7EB0717A6EB87061680074E80
:1034500036686F1EBE4205D30026044F3E600680CC
:103460000E801680F0BD0000805101000001002098
:1034700010B5FEF765FBFFF7EBF810BD00B593B094
:10348000342106A8FCF771FE142101A8FCF76DFE9B
:103490001348006820F4C05040F4006010490860F0
:1034A000022006900120099010200A9000200F9021
:1034B00006A8FEF791FD08B1FDF786FC0F200190EC
:1034C000012002900020039004900590002101A8A3
:1034D000FEF70EFC08B1FDF777FC13B000BD00004D
:1034E000007000401448006840F480701249086081
:1034F000114808300068114908400F490831086038
:103500000D4800680E4908400B49086008460068ED
:1035100020F48020086008480830006820F47D000E
:103520000549083108600020091D08604FF000605F
:103530000449086070470000003802400CC0FF8852
:10354000FEFFFEEE08ED00E010B50248FFF782F93D
:1035500010BD0000AC01002010B50268B0F1804F32
:103560000BD01B4B984208D01A4B984205D01A4BEF
:10357000984202D0194B984203D122F070024B6856
:103580001A43B0F1804F11D0114B98420ED0114B1D
:1035900098420BD0104B984208D0104B984205D05F
:1035A0000F4B984202D00F4B984203D122F4407245
:1035B000CB681A4322F080030C6943EA04020260DC
:1035C0008B68C3620B6883620123436110BD0000F6
:1035D0000004004000080040000C004000080140CA
:1035E000000C01400010014030B50C46816821F408
:1035F0007F4142EA032525432943816030BD0A46C5
:10360000816821F0700142F007031943816070471F
:1036100030B50B461446026A056A25F001050562BD
:10362000816921F0F00141EA041122F00A021A43F3
:103630008161026230BD30B50B461446056A25F043
:10364000100505628169026A21F4704141EA043182
:1036500022F0A00242EA03128161026230BD70B51D
:1036600005466C6A0020E085E0842046FFF7A7F954
:1036700070BD0168C96821F490710268D160016869
:10368000496921F0010102685161202180F83A1056
:10369000704710B504462068C06820F040002168DB
:1036A000C860202084F839002046FFF705FB002081
:1036B00010BD70B5044694F83A0022284AD1A0689B
:1036C000B0F5805F13D1A56A206940B920684068D1
:1036D000C0F308002880A06A801CA06219E020685E
:1036E0004068C0B22880A06A401CA06211E0206936
:1036F00038B920684068C1B2A26A501CA06211703B
:1037000007E02068406800F07F01A26A501CA062B8
:103710001170E08D401E80B2E085C8B92068C06895
:1037200020F020002168C8602068C06820F4807004
:103730002168C8602068406920F001002168486164
:10374000202084F83A002046FFF79AFA002070BD46
:103750000020FCE70220FAE770B5044621680969F9
:1037600021F44051E2681143226811612269A16885
:10377000114362691143E26941EA02052168C9689F
:1037800049F20C62914329432268D160216849695A
:1037900021F44071A269114322685161E169B1F5D8
:1037A000004F7DD1AF4A2168914255D1FEF7C6FB4B
:1037B00000EBC00101EB001162685200B1FBF2F1B5
:1037C0006422B1FBF2F10A0100EBC00101EB001130
:1037D00063685B00B1FBF3F100EBC00303EB001384
:1037E00066687600B3FBF6F36426B3FBF6F303EBEF
:1037F000C30606EB0313A1EB8301322303EBC101E4
:103800006423B1FBF3F101F0F80102EB410200EB9C
:10381000C00101EB001163685B00B1FBF3F100EB49
:10382000C00303EB001366687600B3FBF6F364266F
:10383000B3FBF6F303EBC30606EB0313A1EB830123
:10384000322303EBC1016423B1FBF3F101F0070163
:1038500011442268916004E1FEF760FB00EBC001B7
:1038600001EB001162685200B1FBF2F16422B1FB7E
:10387000F2F10A0100EBC00101EB001163685B008B
:10388000B1FBF3F100EBC00303EB001366687600B5
:10389000B3FBF6F36426B3FBF6F303EBC30600E0D9
:1038A00032E006EB0313A1EB8301322303EBC101EA
:1038B0006423B1FBF3F101F0F80102EB410200EBEC
:1038C000C00101EB001163685B00B1FBF3F100EB99
:1038D000C00303EB001366687600B3FBF6F36426BF
:1038E000B3FBF6F303EBC30606EB0313A1EB830173
:1038F000322303EBC1016423B1FBF3F101F00701B3
:10390000114422689160ACE0564A2168914254D13A
:10391000FEF714FB00EBC00101EB0011626892009E
:10392000B1FBF2F100EBC00202EB001263689B00F6
:10393000B2FBF3F26423B2FBF3F202EBC20303EB3C
:103940000212A1EB8201322202EB01116422B1FBCF
:10395000F2F101F0F00200EBC00101EB001163682D
:103960009B00B1FBF3F16423B1FBF3F102EB011215
:1039700000EBC00101EB001163689B00B1FBF3F1A8
:1039800000EBC00303EB00136668B600B3FBF6F36D
:103990006426B3FBF6F303EBC30606EB0313A1EBBC
:1039A0008301322303EB01116423B1FBF3F101F036
:1039B0000F0111442268916053E0FEF7AFFA00EB6B
:1039C000C00101EB001162689200B1FBF2F100EB63
:1039D000C00202EB001263689B00B2FBF3F26423A7
:1039E000B2FBF3F202EBC20303EB0212A1EB820182
:1039F000322202EB01116422B1FBF2F101F0F0027C
:103A000000EBC00101EB001163689B00B1FBF3F117
:103A10006423B1FBF3F102EB011200EBC00101EBF7
:103A2000001163689B00B1FBF3F100EBC00303EBF3
:103A300000136668B600B3FBF6F36426B3FBF6F337
:103A400003EBC30606EB0313A1EB8301322303EB65
:103A500001116423B1FBF3F101F00F01114422685D
:103A6000916070BD00380140014691F8390021286D
:103A70002CD18868B0F5805F0FD10A6A1088C0F336
:103A800008000B685860086918B9086A801C086249
:103A900009E0086A401C086205E00B6A581C0862CD
:103AA00018780B685860C88C401E80B2C88458B91A
:103AB0000868C06820F080000B68D8600868C0689B
:103AC00040F040000B68D860002070470220FCE7FF
:103AD00010B50248FEF774FF10BD0000E801002099
:103AE00001200849088108490881084908810849D6
:103AF000088108490881084908810849088108495E
:103B0000088170477C00002088000020940000207D
:103B1000F4000020C4000020D0000020DC000020C1
:103B2000E80000207CB505460E4614462046FFF707
:103B3000C7F82046FDF7D4FA0C4A0D492846FFF78E
:103B4000ADF90C480C490D4B0D4ACDE9001031463A
:103B50002846FFF76BF90B480B490C4B0C4ACDE993
:103B6000001031462846FFF729F97CBD700000207F
:103B70006400002094000020880000207C000020C9
:103B8000F4000020DC000020D0000020C400002051
:103B9000E800002028B90749098911B90121064A1E
:103BA0001181012805D10449098911B90121014A6E
:103BB0001181704764000020700000207CB504462D
:103BC0000D460D4A0D492046FFF768F90C480D498E
:103BD0000D4B0E4ACDE9001029462046FFF726F985
:103BE0000B480C490C4B0D4ACDE9001029462046E4
:103BF000FFF7E4F87CBD00006400002070000020A6
:103C000094000020880000207C000020F4000020A8
:103C1000DC000020D0000020C4000020E8000020CC
:103C200010B50446034B044A04492046FFF746F901
:103C300010BD0000B8000020AC000020A000002053
:103C400070B504460E4615462146064800F04CF86D
:103C50003146054800F048F8A9B2044800F044F89D
:103C600070BD0000580000205B0000205E000020B6
:103C700070B504460E4615462146064800F010F879
:103C80003146054800F00CF82946044800F008F8D1
:103C900070BD0000340100203D01002046010020DD
:103CA00070B501220A2404E004EB84035C00531C79
:103CB0009AB2B1FBF4F3002BF6D1531E0AE00A25A9
:103CC000B1FBF5F605FB16153035C5540A25B1FBD9
:103CD000F5F15B1E002BF2DA2023835420261346D5
:103CE000551CAAB2C65470BD0A2905DA30220270EA
:103CF00001F1300242700BE00A2291FBF2F2303205
:103D000002700A2291FBF2F302FB1312303242706E
:103D100000228270704700BFFEE700000248006882
:103D2000C0F30220704700000CED00E010B5002841
:103D300004DB0A07130E054A135406E00A07140EA3
:103D4000034A00F00F031B1FD45410BD00E400E031
:103D500018ED00E002E008C8121F08C1002AFAD1DD
:103D600070477047002001E001C1121F002AFBD1FB
:103D7000704700008CB0434843490860FDF7ECFEF3
:103D8000FFF77CFBFFF704F9FFF7C8F8FFF7A4F98A
:103D9000FFF7D8F93D48FEF7C3FC01223A49091D57
:103DA0003848FEF735FF3A48FDF796FC4FF480702F
:103DB00038494200384BCDE90732CDE9091080225D
:103DC000CDE90332CDE9053040204202CDE90023A0
:103DD0000290324B022210213148FCF7EDFCFFF734
:103DE00025FA002211462E48FCF75EFD2DA12C4835
:103DF000FCF777FE30480068009030480368304890
:103E00000268304801683048FFF74CFA39E0FCF7A7
:103E1000B9FFFCF773FE2B491D48FCF713FB2B4839
:103E20000088D8B9FCF786FF23482449244BCDE904
:103E300000102448244902682448FCF7F3FB234877
:103E40000088FFF7A7FE20480088042801D0FCF76F
:103E5000B1FB1D4801881248FFF7B0FE1B480088DF
:103E600001280ED1FFF750FA18480088FFF792FE9C
:103E700014480268144801880948FFF753FEFCF70C
:103E800059FFC4E7E801002080020020AC010020B7
:103E900058010020000002400008024000040240D7
:103EA00028020020202020202020202030303A30FE
:103EB000303A3030000000000C01002008010020E2
:103EC0000401002020010020160100201001002024
:103ED000030406080C101820300000000000000049
:103EE00000010203040607080900000000010203A4
:103EF00004000000534554555020200052756E6E4A
:103F0000696E672000000000493D2020202020200D
:103F100020202020416D70650000000054313A20BF
:103F20002020202020202020476961790000000007
:103F300054323A2020202020202020204769617917
:103F40000000000054333A20202020202020202090
:103F50004769617900000000783F000800000020F8
:103F600034010000EC030008D43F000834010020B5
:103F7000F4180000643D00080134062B10F8010815
:103F80000113FC3E82089AF40C2B1C3F0C1A010210
:103F9000219A300C9A440C22582A2031290C1A5BA1
:103FA0000C5A0B0C1A5E0C5A0E0C1334011320041D
:103FB0003A020C9A3D0C9A460C1A4F0C5A03549A2A
:103FC0000860415A0A045A05506906B9F459161492
:043FD00068FF1F0067
:0400000508000125C9
:00000001FF
